:100000005844002099A50000499E0000499E000028
:10001000499E0000499E0000499E0000499E000044
:10002000499E0000499E0000499E0000499E000034
:0C003000499E0000499E0000159E000043
:10003C00DFF88408007D7047DFF87C28117D10758F
:10004C0008467047DFF87018D1E90023C0E9002397
:10005C007047DFF86408C0690047DFF85C18096A6C
:10006C00084710B502F0C9F938B1DFF8E448A068C8
:10007C0002F0CCF9A0614FF0FF3010BD10B520207C
:10008C00EFF3118480F31188DFF8D0088068002129
:10009C0002F0C0F984F3118810BD000038B520209F
:1000AC00DFF8B858EFF3118480F31188A8680021A9
:1000BC0002F0B0F96969081AA969814238BF0020B9
:1000CC0084F3118832BD70B5DFF8906804460D4694
:1000DC00B068214602F09CF93461756170BD2DE960
:1000EC00F8438846DFF8781809680446DFF86C088E
:1000FC000F184FF0FF393D680BE0F069B169884784
:10010C00B08A012805D1F068A0EB0800484598BFDB
:10011C008146BD4211D02E462D68B08A0128F8D1F7
:10012C00012C04BFF0684045EAD13169002907BFB2
:10013C000020B0820818F060DFE74846BDE8F28383
:10014C0000000000F8B52020DFF81048EFF311870D
:10015C0080F31188A068012102F05CF90121A183D0
:10016C000021E183656921682268461B801A691A9F
:10017C00884204D20020A08387F31188F1BD87F355
:10018C001188002005E04519361A29460120FFF791
:10019C00A6FF8642F7D22021EFF3118781F3118855
:1001AC00E18B012903D129460020FFF798FFA169B3
:1001BC0010F1010F08BF084603D0801B814238BFE5
:1001CC0008464119FFF77FFF012020840020A083FF
:1001DC00256087F31188F1BD38B504461D46A26031
:1001EC006869DFF87C272061A1612146A869E0617C
:1001FC000020A0821268DFF86407101800F084F861
:10020C00288A18B12046BDE832403DE031BD8260FD
:10021C00816100220261C36182820146DFF84027BE
:10022C00DFF83807126810186EE038B5DFF82C5775
:10023C000446288C012804BFA88B002817D1A86875
:10024C00012102F0E7F829686A692B68D21A411A71
:10025C008A420CD3A2681118E1600123A3826B6956
:10026C00181A82420ED21046BDE834402BE7FFF735
:10027C0005FFA1680818E0600120A082A88B012866
:10028C0008BFE88331BD000010B52021EFF31184C5
:10029C0081F31188FFF7C9FF84F3118810BD002189
:1002AC008182704701617047816070477047808A16
:1002BC00704780B500F001F8FCE738B50024DFF892
:1002CC00905804E0686850F824008047641C286843
:1002DC008442F7DB31BD13E001680A6802605060AC
:1002EC0008467047016881420CBF0120002070470E
:1002FC00426808604A60116041607047000000BFAE
:10030C00406000607047F3E72023EFF3118283F322
:10031C001188086043684B6043681960416082F340
:10032C00118870470168426811604168006841603B
:10033C00704710B50446107E207261810021DFF8F1
:10034C00A0080068001902F057F900202060012075
:10035C00606010BDDFF888180968081802F060B9F1
:10036C0038B504462020EFF3118580F31188207CEA
:10037C00022808D12046FFF7D5FF0020207429461B
:10038C00A06800F011FC85F3118831BDF0B50E4664
:10039C008FB016F1010F18BF002E05460AD06B4620
:1003AC003246DFF8401805A8FFF731FF05A8039087
:1003BC00022002E00020039003208DF81000DFF8EB
:1003CC002008006847192020EFF3118480F311886E
:1003DC00688978BB16B984F3118837E000F002FA0B
:1003EC0000F0B0FAC0F818D0029800F0B3FB6946E0
:1003FC003846FFF77DFF9DF81000022804BF0398D4
:10040C00FFF713FF84F31188284600F0F3F920203E
:10041C00EFF3118480F31188039818B1FFF782FF72
:10042C000020039000200299886184F311889DF8C4
:10043C0010000BE06889401E6881039818B1FFF723
:10044C0071FF0020039084F3118801200FB0F0BDE0
:10045C0070B50446DFF88807006806192020EFF312
:10046C00118580F311883046FFF73CFF48B1207AA4
:10047C00C0074EBF01206089401C608185F3118844
:10048C0070BD00F0AFF904463046FFF725FF01219F
:10049C000174C16809B100228A822946806800F083
:1004AC0083FB85F311882046BDE87040A2E1000073
:1004BC002DE9F8430746DFF8F847B86AD4F81090EE
:1004CC00A568E6682061E760786AA060386A78629F
:1004DC000020B88320800120FFF7AEFD804640F25B
:1004EC00000CEFF311808CF311883969F868BA6845
:1004FC0090472021EFF3118081F311884046FFF7DC
:10050C009BFD01202080C4F81090E660A560BDE83A
:10051C00F1830000F8B5DFF8984725696068B0FAF8
:10052C0080F0C0F11F00616901EBC0063046FFF797
:10053C00D3FE07463046FFF7D5FE00F098F860680A
:10054C0040B1B0FA80F0C0F11F00616901EBC00648
:10055C00B542EBD3F1BD000070B52020DFF8505749
:10056C00EFF3118480F311886868B0FA80F0C0F161
:10057C001F006A69296902EBC00081420ED200F0AB
:10058C0031F90646DFF8000802F01AF9002028803D
:10059C0084F311883046BDE870402BE100202880A0
:1005AC0084F3118870BD10B5002404E021460020AE
:1005BC0002F086F8641CDFF8FC0600688442F5DB68
:1005CC00002000E0401CDFF8C41709688842F9D30A
:1005DC0000F096BB0AE0DFF8D8060188481E80417F
:1005EC00C00F7047DFF8C816FEE000005FF0000097
:1005FC0080B5A8B92021EFF3118081F31188DFF8C1
:10060C00B0164A6822B180F31188FFF7A5FF02E00B
:10061C000A8080F3118800F0E5F8BDE80240E9E0BB
:10062C0001BD000000B17047F8B5DFF88446606882
:10063C00D0B12569B0FA80F0C0F11F0003E0B0FA28
:10064C0080F0C0F11F00616901EBC006B5420BD20E
:10065C003046FFF741FE07463046FFF743FE00F0F9
:10066C0006F860680028EAD100202080F1BD18B19E
:10067C006068B96988436060384619E770B505460B
:10068C002020EFF3118480F31188A88B10B184F330
:10069C00118870BD0120A883FFF7A4FF0646A86A45
:1006AC002946FFF725FEDFF80806AA6941681143C1
:1006BC00416084F31188002E04BFBDE87040FFF741
:1006CC004BBF70BD10B5DFF8DC480020208101E085
:1006DC0000F08AFA60680028FAD06068B0FA80F0FE
:1006EC00C0F11F00A16901EBC0006169814209D210
:1006FC00226960610068206100F1100102F11000B4
:10070C0001F08EFE20890028DFD110BD10B5DFF876
:10071C00B048208908B1FFF7D5FF0020208040F2B7
:10072C00000CEFF311808CF3118810BD38B501F07B
:10073C0073FE00B3002407E02146002001F0CCFF3B
:10074C00002100F065F9641CDFF85408006884424D
:10075C00F2DB0024DFF8685806E0286B50F8240020
:10076C00002100F055F9641CDFF858080068844239
:10077C00F3D34FF0FF3032BD5FF0000010B594B0F2
:10078C002021EFF3118081F31188DFF8344801E068
:10079C0000F02AFA60680028FAD06068B0FA80F09D
:1007AC00C0F11F00A16901EBC0006061006820610D
:1007BC00002020810220FFF73FFC40F2000CEFF3F9
:1007CC0011808CF311882021EFF3118081F31188B3
:1007DC0001F00DFE206900F1100104A801F020FECB
:1007EC0014B010BDDFF8BC17088801220A807047CE
:1007FC005FF0000000B1704710B52021DFF8C04752
:10080C00EFF3118081F31188208920B1FFF7E3FE0B
:10081C0008B1FFF757FF0020208040F2000CEFF3E7
:10082C0011808CF3118810BD00B1704710B5DFF842
:10083C009047208920B1FFF7CEFE08B1FFF742FFA9
:10084C000020208010BDDFF8780700697047000099
:10085C00808F012800D0704710B52020EFF3118451
:10086C0080F31188DFF85807C168491EC16004D1B4
:10087C0084F311880020FFF7F0FB84F3118810BD7E
:10088C0070B5DFF83C070469FFF7ACFF0546202084
:10089C00EFF3118680F31188204600F05BF90320FA
:1008AC0020752046FFF7D4FF86F311882046FFF70A
:1008BC0026FD28464EE000003419002010B52021FA
:1008CC00EFF3118481F311888068214600F06CF9F4
:1008DC0084F3118810BD000000B9704730B58DB09D
:1008EC0002466B46DFF8E01604A8FFF790FC04A85C
:1008FC0003902020EFF3118480F31188FFF772FF2F
:10090C0000F020F800F026F90398FFF78EFC6846FB
:10091C00FFF7F5FC0299C1F818D084F3118828462A
:10092C00FFF768FF2020EFF3118480F31188039800
:10093C00FFF7F8FC0020039084F31188029988617A
:10094C000DB030BD0546DFF878060069029070479F
:10095C00041A0020BDE870404CE70000041A002087
:10096C0058A600002DE9F04116460446B069A06077
:10097C000D46706A984610B9DFF850060068606240
:10098C00376A17B9DFF84806076801F04BFDF269C2
:10099C0041424AB340B1401E801808402062381AC8
:1009AC0010180840E06101E02262E7614FF0FF306F
:1009BC006062A5623069E06270692063B06A60634E
:1009CC00B08DA087012804D1DFF8F405C168491C5B
:1009DC00C1604146204600F01BF80446404601F039
:1009EC0035FA90B1E01C10E020B1C219521E114032
:1009FC00E16100E0E7610246E169606A434601F0AB
:100A0C006BFA00282062D4D10120BDE8F0810000EF
:100A1C0070B50D4604462B46DFF8B825DFF8B8153F
:100A2C0001F0FCFC2061284601F010FA60BB0120AB
:100A3C0020750020A061A168DFF8840500290AD583
:100A4C000021E160DFF8941509680818206421463C
:100A5C00FFF75AFC18E0A26801219140E160A168FF
:100A6C00806901F0C2FD2064FFF7BCFE0546202022
:100A7C00EFF3118680F31188204600F089F886F395
:100A8C0011882846FFF7B6FE002070BD2DE9F84FFF
:100A9C0004460D46FFF7A6FE06462020EFF311870D
:100AAC0080F31188D4F80880A84502D187F3118807
:100ABC0047E0002DDFF8EC9407D5DFF8200500683F
:100ACC004FF0000A00EB090B06E0012000FA05FAD2
:100ADC00D9F8180000EBC50B207D012822D1204647
:100AEC00FFF720FC206CFFF7FDFB28B1D9F80400C0
:100AFC00E1688843C9F80400D9F81000A04207D176
:100B0C00C9F814B02146DBF80000FFF7FCFB03E04A
:100B1C0021465846FFF7ECFBD9F804004AEA0000DE
:100B2C00C9F80400A560C4F80CA0C4F840B0002DAE
:100B3C0044BF0020C9F814000120A9F8080087F36D
:100B4C0011883046FFF756FE4046BDE8F28F000094
:100B5C00FCA500002DE9F0410446DFF86454266C36
:100B6C006F68D4F80C80FFF7DDFB3046FFF7BAFB5B
:100B7C0010B127EA080068602869A04204BF002071
:100B8C0068610220207501202881BDE8F0810000F9
:100B9C0010B52021EFF3118481F31188214600F068
:100BAC0003F884F3118810BD2DE9F041DFF81064CF
:100BBC00776804460D46D4F80C80206C2146FFF76C
:100BCC0097FB48EA070070602021012020753081D6
:100BDC0085F31188EFF3118081F31188BDE8F08162
:100BEC0064A600006D03000080B5DFF8F403DFF8A5
:100BFC00F423006890420DD140F2000CEFF3118009
:100C0C008CF31188FFF759FB2021EFF3118081F34E
:100C1C00118801BD010013D140F2000CEFF31180DB
:100C2C008CF31188002001E00098401C0090009883
:100C3C000028F9D02021EFF3118081F3118801BD38
:100C4C0080472021EFF3118081F3118801BD000052
:100C5C0080B501F0A0FB08B14FF0FF3002BD01F0F0
:100C6C00C8BB01F0C8BB01F0BEBB38B50446084692
:100C7C001146049D1A462B4601F096FB60602846EF
:100C8C0001F0E4F800B1012032BD00B585B00021BF
:100C9C0001A8FFF7E8FF039804E00099BE20087054
:100CAC000098401C009000986845F6D305B000BD34
:100CBC00301A002068A6000001F097BB10B5202167
:100CCC00EFF3118081F31188DFF81C03416982690D
:100CDC00C90802EBC1010839016100244FF0FF3152
:100CEC00016007E02146002001F0B0FB002100F07C
:100CFC004FF8641CDFF8F40200688442FFF6F2AF90
:100D0C004FF0FF3010BDFEB51746DFF8E422054664
:100D1C000846DFF8D41268821E46C969126851F879
:100D2C002010089C914210D001900021DFF8C402E1
:100D3C000068009002918F23DFF8BC02018800222A
:100D4C00204601F099F80120FEBD00F0ADF8AF602F
:100D5C0070696860306A10F1010F08BFFF202874B9
:100D6C000020318B01B10120B18C09B140F002009F
:100D7C00E8602146284600F00BF80546204601F0B5
:100D8C0065F800B1E81CFEBD210500006CA6000052
:100D9C0038B50446217BB4F912008907054602D503
:100DAC00217C202907D2A16800F0C2F8B4F9120006
:100DBC004042608209E0DFF83002DFF84012406AFE
:100DCC0040F82540284600F0B3F8217C284600F076
:100DDC00D9F8207BC00744BF284600F087F80020D4
:100DEC00E06032BD012900D1704710B5B0F9124056
:100DFC00204600F059F8DFF8F8010168204600F0B1
:100E0C0097F8DFF8E411496A002041F8240010BD7E
:100E1C0010B5DFF8D401DFF8E821C169DFF8E4018F
:100E2C0001600368934211D0002302E041F8234093
:100E3C005B1CDFF8D4412468A34207D20F2B32BFCE
:100E4C0052F82340DFF8A8412468EFE7DFF8BC2113
:100E5C004168126821F47F4101EB0221DFF8B021D7
:100E6C005118416020218176DFF8A8110968C16012
:100E7C0010BD000040F2000CEFF311808CF31188D0
:100E8C00704700002021EFF3118081F31188704727
:100E9C0080F311887047000040F2000CEFF31180D2
:100EAC008CF31188704700001028DFF86C110FD3F9
:100EBC00A0F1100252091038012300F01F0011EBB1
:100ECC0082018340D1F80001C1F8803118400AE05A
:100EDC000F2807D108690A6932F0020200F00200FB
:100EEC000A6100E0002000BF704700001028DFF806
:100EFC0028110FD3A0F1100252091038012300F071
:100F0C001F0011EB82018340D1F80001C1F80031C0
:100F1C0018400AE00F2807D108690A6952F002024A
:100F2C0000F002000A6100E0002000BF70470000E2
:100F3C00DFF8B420D26942F82010704710B5DFF802
:100F4C00DC40206901F04CFC0020206010BD30B565
:100F5C00DFF8C820936943605469846025462A7879
:100F6C00BE2A04D0012200210160104630BD0022AF
:100F7C000029F8D015F8011BBE29FBD0691E591A9F
:100F8C006118F1E7DFF890208218102802D382F85C
:100F9C00F0137047042828BF82F8141D7047000016
:100FAC0074A600004C1A0020DFF83C305B6801226C
:100FBC001A80DFF8542112681300FED0104700008D
:100FCC004C1A002084A60000C90800007CA6000072
:100FDC0080A600008D0800001907000070A6000014
:100FEC0078A60000C7020000D01900203CA6000023
:100FFC0048A6000034A600001A2F0000599D0000DE
:10100C000000000008ED00E038A600004CA600002F
:10101C000000FA0540A6000000E000E0D019002016
:10102C00F8B507462021EFF3118081F31188FFF703
:10103C00D9FB0446FFF7D6FA05460020FEF7FCFF65
:10104C000646DFF8040AB249406AD1F8041DC9B259
:10105C0050F82110CF6040F2000CEFF311808CF3AC
:10106C0011884868896888472021EFF3118081F343
:10107C0011883046FEF7E0FF05EB0420F2BDC0B24C
:10108C00FFF7D0BA000AFFF7CFBB7CB50446DFF8F8
:10109C00180B00880D4600281CBFE1690029164674
:1010AC0003D0206ABE2201F0BFFB206B01902B46BF
:1010BC00E06A00903246A16A206AE4692018001F99
:1010CC0001F020FC76BDDFF81C0B0068704701F0C6
:1010DC004FBC80B5002301223421DFF8C00901F098
:1010EC0005FF00B10120C0B202BDDFF8FC1A0A688E
:1010FC00002812BF42F00100500840000860704701
:10110C0000007047FEE7000044A6000080B50420F4
:10111C0001F020FF022818BF03280DD103200090F6
:10112C001C234FF040520021DFF8700901F0BBFE88
:10113C00BDE80240042063E0DFF8E419DFF8E4299D
:10114C000968DFF8A80A12680818DFF8AC1AB1FBB6
:10115C00F2F18160BDE80240FFF796B880B5DFF888
:10116C00C8090078DFF8C40901688908890041F0D2
:10117C000101016001F0FBFE01F085FFDFF8B01901
:10118C00002008600220DFF8AC190968C96888479C
:10119C00DFF8780A016849084900016000F00FFA8D
:1011AC00042000F00BF900F0A6BCDFF8441A405CF8
:1011BC0070470022012904D1012807D1DFF8000A69
:1011CC0003E0012802D1DFF8480A02681046704794
:1011DC00DFF8180A0079704701F0DEBE10B5202147
:1011EC00EFF3118481F31188DFF8001AC98801200C
:1011FC00012908BFFFF76DFF84F3118810BD0000B3
:10120C0030B52022EFF3118182F31188B0FA80F20D
:10121C00C2F11F02DFF8DC39D25CB0FA80F4C4F101
:10122C001F04551EE55405D1DFF8C029136823EAC5
:10123C000000106081F3118830BD00002DE9F041F1
:10124C002021EFF3118481F31188DFF8A419425C9B
:10125C00531E435444D1DFF8A419DFF8A48901EBE1
:10126C0080052E786F88300618D5D8F80010096ADA
:10127C0038468847D8F80010896A38468847D8F825
:10128C000010096B38468847DFF878190120086090
:10129C00DFF8740900688007FAD514E0700606D5EB
:1012AC00DFF8601A51F82710002088470BE0D8F8B7
:1012BC000010896938468847D8F80010496B3846C1
:1012CC0088470228F8D106F03F003F2818BFFFF7E7
:1012DC00B5FF687800F03F003F2818BFFFF7AEFF5E
:1012EC0084F31188BDE8F08110B508B1140001D168
:1012FC00032010BD8160C26003610146DFF8142930
:10130C00DFF8040A12681018FEF7FEFF002010BD6B
:10131C0000E000E0F8B504462020DFF8D418EFF325
:10132C00118580F31188625C531C6354002A3ED1F2
:10133C00DFF8C81801EB8407387800F03F003F282D
:10134C0018BFFFF7E7FF787800F03F003F2818BF81
:10135C00FFF7E0FF7E883878DFF8A478010613D514
:10136C003968C969304688473968496A30468847C0
:10137C003968C96A3046884700F036F8DFF88808C3
:10138C0000688007FAD512E0400606D5DFF874191C
:10139C0051F826100120884709E039684969304620
:1013AC0088473968496B304688470128F9D185F35D
:1013BC0011882046BDE8F24000F0DABF2022EFF39E
:1013CC00118182F31188DFF824281368034313601A
:1013DC00B0FA80F0C0F11F00DFF81828835C5B1CAA
:1013EC00835481F311887047DFF8181801200860C6
:1013FC00704700002DE9F04F83B04FF0000800213A
:10140C000128C1468A4618BF022410D12022DFF8D9
:10141C00F878EFF3118082F311883A79012A06BF2C
:10142C0002223A71012180F3118809B10624BDE032
:10143C00FFF7D8F90090012000F0E3F8040002D087
:10144C0001203871AFE0FFF7CDF8DFF8B01901904B
:10145C00C1F80090012001F07DFD012804D100208D
:10146C0000F066FF4FF00108DFF8A448DFF8805762
:10147C00216889680020884700F0A1F8687C08B1D1
:10148C004FF00109287C08B149F00209E87B08B14A
:10149C0049F00409E87ADFF8646718B1A16AF08DA5
:1014AC00096B8847A87A18B1A16A708D096B8847B7
:1014BC00FFF79AFF49F02000A16A8969884701204B
:1014CC00FFF713FE3878C00748BF4FF0010A12D45B
:1014DC00DFF82C0901F00CFE8346BBF1040FF7D0AA
:1014EC0000F067F88008800008600321A26CDFF828
:1014FC00100952689047002001F002FE00F05FF8DE
:10150C00A06A806B8047BAF1000F0AD1A26CDFF899
:10151C00F00852685946904700F04BF840F0030031
:10152C0008600120216889688847DFF8D8080068BE
:10153C008006FAD5B8F1000F1CBF012000F0F8FEB0
:10154C00A16A496948468847A16A496B4846884759
:10155C000128F9D1E87A18B1A16AF08DC96A8847D7
:10156C00A87A18B1A16A708DC96A8847FFF73CFF49
:10157C000020FFF7BAFD03203871042000F041F879
:10158C00DFF878180120086000F019F801F0C6FEA9
:10159C00082000F036F80446012038710198FFF756
:1015AC0027F801F046FE0098FFF724F92046BDE825
:1015BC00FE8FDFF8C008DFF8BC1800687047DFF852
:1015CC00380800687047000038B52020DFF838571D
:1015DC00EFF3118480F31188E888012803D101F01E
:1015EC002FFD0020E88084F3118831BD10B5202137
:1015FC00EFF3118481F31188FEF794FE84F31188C4
:10160C0010BD38B500F024F80818FEF76BFE002565
:10161C0040B9204600F008F820B1DFF878080068DF
:10162C0080470225284632BD70B500F011F80D1820
:10163C002E68B068204206D03169F2682046904787
:10164C00C0B2012803D03668AE42F2D1002070BD82
:10165C00DFF8C01509680446DFF8AC0670470000D7
:10166C0030BF704770B501F055FEDFF880552E681D
:10167C0006F00C000C2848D0700724D4FEF70EFDA1
:10168C00044600210120FFF794FDA0421BD2DFF895
:10169C00100400684519DFF88C040668DFF8F807B9
:1016AC000068B0FBF6F0201AA8602846FEF7ECFDA7
:1016BC004FF47A70B0FBF6F200210120FFF79AFE8E
:1016CC000020A88223E030071FD4DFF84005DFF8A4
:1016DC003045DFF82457F10601685ABF4908490024
:1016EC0041F001010160DFF88C07016841F0030152
:1016FC000160202021688969884728682068806BF0
:10170C00804701202860286801E0FFF7A9FF01F05D
:10171C0005FEBDE8704001F0B7BD000010B50C1817
:10172C0001F0F8FD401E8041C00FDFF880170A68F9
:10173C00002AFCD0246801220A6008B101F0EEFDF9
:10174C00204610BD80B50420FFF738FE0820FFF7B7
:10175C0035FE0E20FFF7DEFDDFF85407DFF85417D7
:10176C000068C0F3815003280CBF012000200880C2
:10177C00DFF8440702680AB1012002BDDFF84437E4
:10178C0040221A600122C2610020486002BD10B5DF
:10179C00DFF8A013DFF8244782B00968096820201D
:1017AC0088470F202060072341F61D5060604FF4DE
:1017BC00C0720220009000F0C7F8DFF80407012186
:1017CC00016001688907FCD501212161DFF8E4463D
:1017DC002188012907D1002101610220202100F07C
:1017EC008FF8012004E00121002000F089F802208C
:1017FC00606013BD2DE9F041DFF8CC06DFF8B4468C
:10180C0082B0016842688A434260016160680028C6
:10181C0004BFBDE8F341FFF7BABF0128DFF8AC16EF
:10182C001AD10220606008684BF2F52148436188A8
:10183C00000A11B10021618006E0DFF894160968F6
:10184C00090210EB11204008DFF888160860000C24
:10185C004860012088600CE002280FD10868B0F5C0
:10186C00C06F02D10020606045E00321616000F090
:10187C006FF80121BDE8FC41002041E003283DD177
:10188C00002060600868A0F5C065A06800F0B2F8A0
:10189C000646284600F0AEF886422CDAA6692846A1
:1018AC0000F0ACF88019A061E56860697B4E854258
:1018BC000ED0A769A7F1100000F09CF880462069B3
:1018CC00103800F097F8804502DABFB200970BE0B1
:1018DC00ADB2009508234FF47F423021304601F021
:1018EC00E2FA206980B2009012234FF4F80204212E
:1018FC00304601F0D8FABDE8F3418AE0BDE8F38147
:10190C0070B50D46DFF8444682B0032121600021FA
:10191C00DFF83C66316031688907FCD480B20090F6
:10192C000523602200F010F8012030603068800739
:10193C00FCD5A561002020600821DFF88805C16076
:10194C0001600120206073BD0021544801F0ABBA46
:10195C0070B50646514C82B030212046FFF7DEFEB2
:10196C00DFF85055C0F30720E86004212046FFF74C
:10197C00D5FEC0F384402861A6F5C060A8602E692E
:10198C0000F03CF88019A861A969E868022909DA15
:10199C00401E6FF03F039842B8BF184610310BD56C
:1019AC00002109E01E2908DB401C4028A8BF3F206D
:1019BC0010392029A8BF1F21A9616861082380B2B2
:1019CC0000904FF47F42302100F011F8012000907C
:1019DC0011234FF4003200F009F8A86980B200908E
:1019EC0012234FF4F80200F001F873BD04212046D5
:1019FC0001F059BA002848BF4042704700284CBF3C
:101A0C006FF00101022101EB4000032190FBF1F08A
:101A1C00704780B5DFF8A8040021016001688907D0
:101A2C00FCD40021016041600120DFF88C140860B7
:101A3C000E20FFF703FC0820FFF7E2FBBDE8024095
:101A4C000420FFF7DDBB0000D019002010B50446C0
:101A5C000020D4E90A2347F6906101F067FC0129C4
:101A6C0028BF4FF0FF3010BD10B50C4601F0D6FC6E
:101A7C00011D201AB0F1004F05D8081BB0F1004F22
:101A8C0038BF8C4200D20C46DFF8DC231268526A55
:101A9C002146BDE8104001201047000000A00C407A
:101AAC0014A600002DE9F04180460A46D8E90A0147
:101ABC00D8E90C45A0FB026701FB0277A6196F4120
:101ACC00340C002244EA07414046FFF7CDFFC8E939
:101ADC000E67BDE8F08180B5DFF8280500680028A6
:101AEC001EBFDFF81C054068002804D0818811B1A6
:101AFC00002100F0C1F84FF0FF3002BDDFF8040503
:101B0C00006800281EBFDFF8F8044068002806D0E3
:101B1C00818821B1017B002908BF00F00DB8704706
:101B2C0018A600005CA600002339002004400340E6
:101B3C0040100940A0010010F8B506462020DFF83F
:101B4C002C53DFF8DC75EFF3118480F311882868CF
:101B5C0040F0800028600120B96849688847F96A1C
:101B6C00096A142088473069B0F5802F34BF0421EE
:101B7C00010CBA68526A012090473A681268232116
:101B8C0000209047B968C96901208847286820F46B
:101B9C00E02040F480302860286840F00100286084
:101BAC0084F31188F1BD000026340000DFF8F00545
:101BBC00036840680022002110185941704700004A
:101BCC0024A60000DFF8A012DFF8340410B5096871
:101BDC0044684968012088476069A169BDE81040E4
:101BEC000847000050A600000C200840581900209F
:101BFC00AC380020F8380020A0860100F49E0000CC
:101C0C00B801001028200860282008408C210840CA
:101C1C0028A600001CA60000F8B504460D46FFF7E8
:101C2C00C5FFD4E90A6732463B4601F07FFB3DB164
:101C3C00A6FB002306FB013307FB0033C4E90C238E
:101C4C00F2BD38B5DFF82442DFF81C52206840089A
:101C5C0040002060206840F0800020600120E0629D
:101C6C00E06A2968496801208847696A096A142072
:101C7C008847E06A31BD000010B52021EFF31184D4
:101C8C0081F31188FFF7DDFF84F31188002010BD6C
:101C9C00704700002021EFF3118081F31188704709
:101CAC0081F3118870470020704710B50446DFF8A7
:101CBC00F404006800220121001900F0DCFC002073
:101CCC00606010BD38B50446DFF8A451606829691E
:101CDC0088420BD0DFF8CC0400684FF0FF310019BC
:101CEC00FEF754FB28696060002032BD012032BD34
:101CFC0031B94160DFF8AC1409680818FEF7A8BBCD
:101D0C0070470000841700205819002001207047EC
:101D1C00900100102DE9F04105461646EA699846F7
:101D2C0030460F46A96901F08BFBB8F1000F3C4619
:101D3C00766005D0EA6908234146304600F064F825
:101D4C00F6686969CFB9079BAA68E86800F0F7F8EC
:101D5C00070008BF00201BD000F0DCF9696839606F
:101D6C0007F10804696849687960696849680F6017
:101D7C0069684F6000F093F803E00839204601F0E1
:101D8C009BFB286810F1010F18BF206000F023F8AE
:101D9C00BDE8F081F8B505460C461646EA69A96916
:101DAC001F46304601F04CFB76602FB1EA690823E0
:101DBC003946304600F028F86869F668A0F1080149
:101DCC00204601F079FB286810F1010F18BF206044
:101DDC0000F001F8F2BD286908B171680151204684
:101DEC0070470800194606D0130004D011F1010FFA
:101DFC0008BF1047104770472C2009400C40094081
:101E0C0000400340141009402DE9F843D1F80C8030
:101E1C00D8F800900446086815461E46AF1BA0EB88
:101E2C000902BA4288BF3A46204601F009FB2560F8
:101E3C0064603D19E560B14588BFB1464A464146EC
:101E4C00284601F00DFB2E60BDE8F183DFF86C1322
:101E5C000978012904D118B1C06810B1012000E043
:101E6C000020C0B2704700008C0100100020094017
:101E7C004C1A00202422084010B584B0089C02940F
:101E8C00079C0194069C0094DFF834432468A04717
:101E9C001FBD000020A600002CA60000FEE7014696
:101EAC00DFF80403006800F0C6BA000000800C40A4
:101EBC00B43F00501819002004800C400C400C401A
:101ECC0034600C402C500C4028500C4008400C4006
:101EDC00102009403C600C402DE9F0410546984625
:101EEC0084B00E4617464046FFF7B0FF044617B9BC
:101EFC00DFF8D0020768002D12BF2846DFF8C802B1
:101F0C00006843463A46314600F08EFA070012D17B
:101F1C001CB94046FFF79AFF68B9DFF8B0020068B9
:101F2C000090029601953423DFF8A4020188002268
:101F3C004046FFF7A1FF384604B0BDE8F08180B5FC
:101F4C000093002300F006F802BD000000400C4096
:101F5C0038600C4070B51D46049B0C46FFF7BCFF67
:101F6C00060003D02A46214600F05EFC304670BDC8
:101F7C000A6942604A6982604969C1607047F8B574
:101F8C000446DFF8500200680D46174600F051FA7F
:101F9C00616800267A1E0A4018BFBE1AA26873191F
:101FAC009A4203D2FFF77BFF0020F2BD7718521B39
:101FBC00921B5918A2606160FFF771FF3846F2BDA1
:101FCC00DFF814020088012800D07047E0B500202B
:101FDC00029001905523DFF8040200680090002263
:101FEC00DFF8FC0101880020FFF746FF07BD002049
:101FFC007047C2680A60806848608860704700005B
:10200C00C819002030A60000DFF8D801818801B182
:10201C00704738B5012181800024DFF8CC5104E0F1
:10202C00686850F824008047641C28688442F7DBF9
:10203C00DFF8B801DFF8B85100688047002404E0ED
:10204C00686850F824008047641C28688442F7DBD9
:10205C0031BD2DE9F0470D4600268246012DA4BF67
:10206C00A90001F02DFADFF87C71DFF88801C7F8C0
:10207C0000A00024D0F800800CE0DFF87C010068A0
:10208C0030F8140028B158F82410002088474AF87A
:10209C002400641CAC42F0DB0120F880B14601E066
:1020AC0009F10109DFF854010068814518DA0126AD
:1020BC00002402E000200640641CAC420EDA5AF800
:1020CC00240010F1010F07D058F8241088474AF863
:1020DC00240010F1010FEDD10120ECE73000DFD02E
:1020EC001EB90FF2341000F008F800203860BDE87B
:1020FC00F08700BF4FF0FF30704710B5044600F07A
:10210C0009F8204600F099F9DFF8F4000068BDE802
:10211C0010400047DFF8BC00006800F08AB90000EE
:10212C008401001038B50546FFF7F4FFDFF8D41032
:10213C00DFF8D4304A681B6801249A4206DA0B682F
:10214C0043F822504A68521C4A6000E00024FFF712
:10215C00A6FE204632BD10B5044600F009F8204614
:10216C00DFF8A8100968BDE810400847FEE7FEE755
:10217C0070B50446DFF83000DFF88850FFF7CCFF6D
:10218C006E6806E0296801EB8601761E51F8041C86
:10219C008847012E2046F5DABDE8704000F04FB9B3
:1021AC000820094054A60000BCA600001849096884
:1021BC000847184909680847FEE77047D6350000FC
:1021CC008CA60000901A0020A0A6000088A6000093
:1021DC00D2340000BCA60000CA34000090A6000057
:1021EC00C2340000941A002004A60000A4A600002B
:1021FC000CA60000B0A60000ACA60000A8A600002B
:10220C00C0A600009C1A0020C8A60000C4A60000AE
:10221C00B4A60000B8A600007864632E72756E74C4
:10222C00696D652E537461727475703A20276D61F7
:10223C007850617373657327206578636565646591
:10224C006400000000B589B008216846FFF701FF63
:10225C0009B000BDFEF73BBF00B581B00FF21D0009
:10226C00FFF760FFFFF74AFCFEF726FDFEF7B2F919
:10227C0001B05DF804EBFEF77FBA000000B581B049
:10228C00FEF7B0F9FEF7AEFA01B05DF804EB0320EF
:10229C00FDF7D2BE10B504460320FDF7CDFE204657
:1022AC00BDE81040FFF757BF00B581B0FDF7FEFF4A
:1022BC00DFF80002C06801B05DF804EBFEF7DEB990
:1022CC00DFF8F411DFF8F40188617047DFF81C12B5
:1022DC0001280CBF40F2FF700020086000207047FE
:1022EC0030B581B0FEF7CEFDDFF804520446E88825
:1022FC0020B100F0A5FE60B10020E880FFF722FAC3
:10230C0005461020FFF77DF9012D0BD1FFF73FFAA1
:10231C0008E0052105F13000FDF7C6FF05F130009E
:10232C00FDF7B2FF204601B0BDE83040FEF7B0BD6E
:10233C0010B5012818D100F00DFE012816D000F0C0
:10234C0067FEDFF8AC410120E08004F13000FDF7BE
:10235C00A6FF052104F13000FDF7A6FF04F13000C3
:10236C00FDF792FF002010BD00F08DFE002010BD87
:10237C0010B501240E2805D1012000F0EBFD012839
:10238C0005D003E0DFF86C11405C00B90024204656
:10239C0010BD00207047DFF8C400006800281ABF89
:1023AC004069C00F01207047F0B5044630208FB053
:1023BC000D4600901E461346019602AA0021DFF836
:1023CC00B401FFF7A7FC070009D0009602AB2A4620
:1023DC002146FEF798FC3046FFF738FD00B1002788
:1023EC0038460FB0F0BDFEF7B2BDFEF743BDFEF7A9
:1023FC00A5BDFEF759BDFEF779BDDFF8600000689A
:10240C0000281ABFC069C00F01207047FFF71EBB20
:10241C00FFF748BBFFF700BC01207047FEF735BE45
:10242C0000F096BAFEF74FBE10B50468A468A0473A
:10243C0010BDFFF72FBCFFF733BCFFF7B7BEFFF79C
:10244C00B8BE09B9DFF83C11FFF7DEBC01EB410265
:10245C0008B9DFF8D00200EBC2007047941A0020D4
:10246C00F0B58FB004463020149F00900D461646F0
:10247C00019702AA2146DFF8FC00FFF78BFC0097BE
:10248C0002AB324629462046FEF73DFC3846FFF7A4
:10249C00DDFC0FB0F0BD00B581B00121009100232F
:1024AC000146DFF8B822DFF8CC00FFF79AFC01B048
:1024BC0000BD0000041A0020D01900200004000008
:1024CC0010B588B002AA0B99019118210091014610
:1024DC00DFF82001FFF71EFC040008BF002003D02A
:1024EC0002A9FFF7D5FB204608B010BD0000046020
:1024FC0058190020AC38002010B588B002AA0B99EE
:10250C0001911821009101460848FFF703FC0400D3
:10251C0008BF002003D002A9FFF7C7FB204608B074
:10252C0010BD09B9DFF86412FFF76EBCA0A3000060
:10253C00F0B504462C208DB00D4600901E46134677
:10254C00019602AA0021DFF84802FFF7E3FB07001F
:10255C0009D0009602AB2A462146FEF786FB304690
:10256C00FFF774FC10B100200DB0F0BD38460DB073
:10257C00F0BD000060A3000009B9DFF81812FFF7E6
:10258C0043BC0000A4A1000070B58CB004460193BC
:10259C00242000900D46134602AA0021DFF8F80112
:1025AC00FFF7B8FB060008BF002005D002AB2A4697
:1025BC002146FDF711FE30460CB070BD70B58CB0E5
:1025CC000446002001900D4624200090164602AAD5
:1025DC002146DFF8C401FFF7DDFB02AB324629468A
:1025EC002046FDF7F9FD0CB070BD08B100EBC10041
:1025FC007047000080A3000010B588B0044600208E
:10260C0001900B461820009002AA2146DFF88C019D
:10261C00FFF7C0FB02A92046FDF75DFE08B010BD18
:10262C0000B581B0012100914FF0FF33014600222B
:10263C00DFF86801FFF7D5FB01B000BD09B9DFF881
:10264C006011FFF7E1BB30B58BB00446242001923A
:10265C0000900B4602AA0021DFF84801FFF75AFB55
:10266C00050008BF002004D002AA2146FDF761FE38
:10267C0028460BB030BD30B58BB00446002001901D
:10268C000D4624200090134602AA2146DFF81401BF
:10269C00FFF780FB02AA29462046FDF74AFE0BB045
:1026AC0030BD00B581B0012100914FF0FF330146E0
:1026BC00DFF8F420DFF8EC00FFF793FB01B000BD6E
:1026CC0001EB410208B9DFF8E40000EB021070479F
:1026DC0001B93749FFF798BB4C22514300B9354833
:1026EC000818704770B504463C2092B0154600900F
:1026FC000B46019502AA00212F48FFF70BFB0600A1
:10270C0008D02B4602AA2146FEF72CF92846FFF7E3
:10271C009DFB10B1002012B070BD304612B070BDE0
:10272C00000000009817002070B504463C2092B0C1
:10273C000D4600901E461346019602AA21461E48DD
:10274C00FFF728FB334602AA29462046FEF70AF972
:10275C003046FFF77BFB12B070BD0000F10D00009E
:10276C0010B58AB002AA0D99019120210091014661
:10277C001248FFF7CFFA040008BF002003D002A9CB
:10278C00FFF7F6FB20460AB010BD000034A2000093
:10279C00C0A30000F8A20000E0A3000000A4000009
:1027AC001CA3000020A400006103000018180020E6
:1027BC0030A100008018002040A4000060A400009C
:1027CC0010B5EFF31484002C1CBF002181F3148886
:1027DC008047002C1CBF022181F3148810BD00001F
:1027EC0000B5EFF3038212F0FF0F0DD06A46A2F191
:1027FC00200282F309886FF0020E10604FF0807196
:10280C00D1610849916170475DF804EB694681F329
:10281C00098880F308884FF00200EFF3148180F3ED
:10282C00148870471528000062F30F2262F31F42D0
:10283C00401810F0030308D0C91A1FD3DB0748BF98
:10284C0000F8012D28BF20F8022D130030B41446D7
:10285C001546103928BF20E93C00FAD8490728BF93
:10286C0020E90C0048BF40F8042D890028BF20F84F
:10287C00022D48BF00F8012D30BC7047C91818BF95
:10288C0000F8012DCB0728BF00F8012D7047F0B4DC
:10289C00016844688368091801EB5402E40748BFD7
:1028AC004B440C3091422BD011F8014B14F0030522
:1028BC0004BF11F8015BED1C26090F2E07D111F88E
:1028CC00016B0F3603E011F8017B03F8017B6D1EE1
:1028DC00F9D1002EE6D0A40811F8015B04F0030432
:1028EC00032C08BF11F8014B05EB04241C1BB51C71
:1028FC00D8D014F8016B03F8016B6D1EF9D1D1E738
:10290C00F0BC704740F8043D40F8042D40F8041D1D
:10291C00019940F8041D009940F8041D0B4940F83A
:10292C00041D81EA0101A1F1010140F8041D40F8E8
:10293C00041D40F8041D40F8041D40F8041D40F827
:10294C00041D40F8041D40F8041D70476D2900005B
:10295C002DE9F04FC0F800D0D1F800D0BDE8F08FD1
:10296C000498804700980199029ADDF80CE0104712
:10297C0010B5DFF86404046814F1010F08BF0024DB
:10298C0000F004FEDFF85414002008600120DFF88A
:10299C0050140860DFF84C140860DFF84C04006831
:1029AC0028B1DFF848040068204600F023F8DFF86F
:1029BC004004DFF8402401688908890041F0005187
:1029CC0041F005010160DFF8300401686FF31B4131
:1029DC0011430160DFF824040168C1F301310129BE
:1029EC0007D10168DFF81824114041F4003202606D
:1029FC00016010BD2DE9F84F0446DFF808140120E2
:102A0C000860DFF8040401680029FCD0DFF8FC53EF
:102A1C00DFF8FC83C0202860D8F80CA0D8F8081088
:102A2C00DFF8F00389075DBFD8F80410090C41F0FA
:102A3C00F00172210170DFF8E0130968D8F80C205E
:102A4C00C1F304611629A8BF203901EB2271491C7E
:102A5C006FF009029142B8BF114601F01F0141F419
:102A6C00F8510183CAF3C061DFF8B00381F00101B2
:102A7C000160CAF3806181F00101816014B9DFF853
:102A8C00A0732DE0DFF89C030068C0F383615FEA5C
:102A9C008A32C0F38F2021D44FEA0A4212160AD58B
:102AAC004FF6FF73400804D11846490804BF0121B2
:102ABC000120521CF6D4012A10DB400040F001002A
:102ACC00B0F5803F21BF0120490041F001011029E0
:102ADC0024BF0F214FF6FF70521EECE740EA01476E
:102AEC0000F018FC401E8041C00FCF4E3168002909
:102AFC00FCD0DFF83893C9F810700121316008B1AF
:102B0C0000F00CFC0CB9D82008E0C64A106811681B
:102B1C00C0F3870001F0030140EA0120009040F26D
:102B2C00FF3700233A462C21C14800F0BCF91CB1F8
:102B3C00BC48C06A8704BF0C00F0ECFB401E80410F
:102B4C00C00F31680029FCD0C9F814700121316024
:102B5C0008B100F0E3FB002C0FBFB64FB148406A40
:102B6C0020F0033700F0D6FB401E8041C00F3168C7
:102B7C000029FCD0C9F80C700121316008B100F0BB
:102B8C00CDFB0CB9AC4F04E0A648AC49006A01EA95
:102B9C00000700F0BFFB401E8041C00F31680029C8
:102BAC00FCD0C9F808700121316008B100F0B6FB07
:102BBC000CB9A34F20E09B48806AD8F80830DB079B
:102BCC00C0F30352C0F303410BD4D8F804301F05F3
:102BDC0002EB27721B0482F3040201EB237181F3D5
:102BEC000401090441EA025182B242EA0107222C93
:102BFC0024BF00F08040074300F08CFB401E804156
:102C0C00C00F31680029FCD0C9F804700121316073
:102C1C0008B100F083FB2220222C824F06D3F86BE4
:102C2C00000F00F00100400040F0200085490872C0
:102C3C001120222C05D3F86B400F00F0010040F05E
:102C4C001000202C08724FF0000B07D3B86CC10C8D
:102C5C0001F44071C0F3845040EA010B00F05AFBC0
:102C6C00401E8041C00F31680029FCD0C9F820B04B
:102C7C000121316008B100F051FB6020202C06D3FB
:102C8C00B86C000D00F00300400040F060006D498E
:102C9C00C8728020222C06D3F86BC00E00F0010005
:102CAC00C00040F080000870222C4FF47C4006D30A
:102CBC00F86B400D00F03F00800040F47C4062490E
:102CCC00DFF888B10880202C0AD3B86C0203810A83
:102CDC0002F47C1242EA815100F00F0041EA003B01
:102CEC0000F018FB401E8041C00F31680029FCD059
:102CFC00C9F800B00121316008B100F00FFB544855
:102D0C0044210170882181700CB9302105E0F96BE8
:102D1C00C90C01F0030141F03001C1704FEA9A5027
:102D2C0010F0030003D002283CD012D33CE0012168
:102D3C00042000F0EDF843F2BD70E86386202864AF
:102D4C0001206864434801680029FCD000206864B5
:102D5C002EE0012000F0FEF804462146042000F08D
:102D6C00D7F8042000F0F6F8A042FAD1D8F80030D9
:102D7C001802000A81B2E963000C2864012068641F
:102D8C00344801680029FCD0002068644FF06022B0
:102D9C00180E314B1B681B68072198474FF4806055
:102DAC00C9F83800032100E00221042000F0B0F83B
:102DBC00F8692A4900F03F00087047F618002849C6
:102DCC00088010492748006800202860086001200E
:102DDC0025490860BDE8F18F1C1300508404604243
:102DEC005C600C400822044380012843000120430E
:102DFC00044003400000390148200340040009400E
:102E0C00FFFFFCFC101009409402224300600C40B0
:102E1C00A83F005056620840B812005000002043F2
:102E2C00FF0F0F005013005000800C4008A00C4006
:102E3C0000A00C40000088688A766800FFFFFC0048
:102E4C00273F710041A10C40DCA10C4000803F40A9
:102E5C0005A10C4084088C43B40100100BB00C404D
:102E6C0070B00C402C2009409404604238B50446E4
:102E7C000D4600F04FFA401E8041C00F1A490A68F7
:102E8C00002AFCD0012D02D0022D02D003E02478C0
:102E9C0002E0248800E0246801220A6008B100F0F6
:102EAC003DFA204632BD38B500EB4100102B00F541
:102EBC00007402D3103B241D120C0498984040EA75
:102ECC00024500F027FA401E8041C00F06490A68EF
:102EDC00002AFCD0256001220A6000281CBFBDE836
:102EEC00314000F01BBA31BD00800C4038B51D4696
:102EFC000818102D144602D3103D801C240C0221FE
:102F0C00FFF7B4FF04EA000188B2E84032BD2200AA
:102F1C0038B50446E0070D4607D5A8B2009000234B
:102F2C00012200216B48FFF7BEFFA00707D5A8B20E
:102F3C0000900123022200216648FFF7B4FF6007CE
:102F4C0007D5ADB2009502230C2200216148FFF792
:102F5C00AAFF31BD0146042907BF1D234FF0C04213
:102F6C001C234FF080525B483421FFF7BFBF10B5D4
:102F7C00594C21688968012088475848016889069E
:102F8C00FCD521690968402088472169896840205F
:102F9C0088471128F9D110BD70B5054600F03EFAEE
:102FAC004F4C6168401A4FF47A714843060C00F09C
:102FBC00F7FA2169401A48BF4042711940F6B932FC
:102FCC00914207D2062805DAA068E168814201D354
:102FDC00226852B943494A68D2074FF4FA6016D4B2
:102FEC000868C0B27D21484308E0081A3E494843AE
:102FFC00000C00EB9000904238BF1046C82801D25C
:10300C00C82070BDB0F57A6F88BF4FF47A6070BD80
:10301C0010B582B00120009000232E4C01221946DD
:10302C002046FFF740FF01200090034602220021BA
:10303C002046FFF738FF00F0F1F92949886013BDED
:10304C0080B50120FFF786FF01281AD0002301224A
:10305C0034212048FFF74AFFA0B12448006880477C
:10306C0000F0DCF91E498B680A68C860A2EB92027A
:10307C00C01A1D4B5843000C0860904238BF1046D4
:10308C000860012002BD10B582B0002000900146FE
:10309C00104C002301222046FFF705FF0020009072
:1030AC000146012302222046FFF7FDFE1C234FF0B0
:1030BC00805234212046FFF719FF10B10B480068ED
:1030CC008047074C00F0AAF9606000F069FA2061B3
:1030DC0013BD000000A00C4090010010141009401A
:1030EC00C0380020AC3F005040420F008000001060
:1030FC000068010701D50420704700F003007047F9
:10310C00F8B505467748784C0068800705D5082047
:10311C00A071764976480860F1BD00F041FA754A15
:10312C001268002112F0030F18BF0121520748BF8B
:10313C0041F002010DB141F0040194F90720821A0B
:10314C00052A02DAA279914259D0A0F10F0200258A
:10315C000023002A1FD402EB02121312082B28BFE3
:10316C0007231D46072D28BF0625634E06EB850752
:10317C0056F825507F687E1BF5B24F0744BFC6F347
:10318C0007277D198F0744BFC6F307477D19CF0763
:10319C0048BF05EB1665584E56F82370FEB25FEA31
:1031AC00417C44BFC7F3072C66445FEA817C44BF73
:1031BC00C7F3074C66445FEAC17C48BF06EB176651
:1031CC00A2EB03226A434D4B1D681B68A171803230
:1031DC00092A92412D17C5F108053427D243DBB2D9
:1031EC007D436B4306EBD272B3FBF2F2B2F5803F38
:1031FC0028BF4FF6FF7200F30700A280E071404831
:10320C000068A188206000201F2904D21F21A18002
:10321C0004E04908401CB1F5007FFAD20F390909C6
:10322C0040EAC100314A3749084310600020506021
:10323C00F1BD10B53448006884B224B300F0B0F985
:10324C00294991F90720904205DA6FF07F029042EC
:10325C00B8BF1046C8718888844201D28C8010BDDA
:10326C00274A12680B68D21A921C202A28BF1F22E8
:10327C00231A520823FA02F42018B0F5803F28BF15
:10328C004FF6FF70888010BD2048006800B9704769
:10329C0010B41F498A6802F04063B3F1406F1ED02E
:1032AC004B689B071BD40F4B1C680968C1F3035177
:1032BC001C31090114F0050F06D088420FD224F0FE
:1032CC000500186010BC7047814208D2100158BF2D
:1032DC0044F00104500158BF44F004041C6010BCBD
:1032EC0070470000000009400039002030100940F0
:1032FC00FDFDA400242208409C130050B43F005054
:10330C000820094000FFA4803410094028500940CF
:10331C00AC3F0050EFF3108072B67047EFF31080A3
:10332C0062B670470138FDD1704770471B4213D10C
:10333C00094236D12AB18446B0FBF2F002FB10C22E
:10334C00704700F041B9FCD30022002370470B00FA
:10335C000200002100207047904271EB030CF6D361
:10336C0070B5B1FA81F4B3FA83F52C1BA340C4F108
:10337C00200532FA05F63343A2405FF00046E640E2
:10338C0002E05B085FEA3202841A71EB030524BF8A
:10339C00204629467641F4D302000B003000002170
:1033AC0070BD012ACFD970B5140C20D0B1FA81F4BC
:1033BC00B2FA82F5C4F120046419B4F12006D6D314
:1033CC00B2405FF00044F440002502E052085FEA8E
:1033DC003303C61A71EB020E24BF304671466441AA
:1033EC006D41F3D302000B002000290070BD0C4688
:1033FC00B1FBF2F102FB11452D0445EA1045B5FB7A
:10340C00F2F402FB145580B240EA0545B5FBF2F02C
:10341C0002FB105240EA044070BD010038B5FFF7C2
:10342C0079FF06490C684D68401E8041C00F18BFDB
:10343C00FFF774FF280C40EA044032BD0820094015
:10344C0062B38B0708D0521E11F8013B00F8013B08
:10345C0000F024808B07F6D1830740F0208000BF5A
:10346C00103A07D330B4B1E83810103AA0E838104D
:10347C00F9D230BC530724BFB1E80810A0E80810FB
:10348C0044BF51F8043B40F8043BD20724BF31F849
:10349C00022B20F8022B44BF0B7803707047083ABC
:1034AC0007D3B1E80810083A40F8043B40F804CBC5
:1034BC00F7D25307E4E70A000022FFF7B9B901007D
:1034CC00002200F087B809002D480068000C00F0BD
:1034DC000700032828BF4FF0FF30704729490968BF
:1034EC00C1F30F314BF69A1291424FF0FF3001D1DC
:1034FC00002070474BF6BE12914201D1012070475B
:10350C004BF62032914208BF0220704710B41D497F
:10351C001D4B0A681B680968120FDBB2802B28BF91
:10352C000023C1F30F314BF69A14A1424FF0FF3038
:10353C000CD1012A08D0032A1DD0072A1DD0082A35
:10354C0008BF03F1160013E00A2011E04BF6BE147D
:10355C00A14206D1002AF7D0022A09D103F11400A6
:10356C0006E04BF62034A14204BF002A03F10A0006
:10357C0010BC40B270471420FAE71520F8E70000A1
:10358C009412005018130050A010005080B5FFF793
:10359C00A5FF18B9FFF7BAFF162800DAFEE701BD40
:1035AC000748084A816812780068C90352B2A0F52E
:1035BC004070C9135043A1EB2010803000127047AB
:1035CC00285009400C1300507047010062F30F2281
:1035DC0062F31F4200B500BF1300964694461039A3
:1035EC0028BFA0E80C50FAD85FEA417C28BF0CC079
:1035FC0048BF40F8042BC90728BF20F8022B48BF4E
:10360C0000F8012B00BD000020B108232C22002162
:10361C00FEF787BF704720B108233C220021FFF73B
:10362C0057B8704780B5FDF7DDF8ADF80000FDF731
:10363C0029FCADF80200009802BD01B5BDF80200EE
:10364C00FDF726FCBDF80000BDE80240FDF7D2B83E
:10365C0038B5DFF86048DFF860580020A4F8340B68
:10366C00E820208040F64C20A4F8E80004F1E800A3
:10367C006860002000F003F8A8606C6031BDF8B5FC
:10368C0000240025061D16F003001CBF311D0E1A68
:10369C00FFF7C8FFDFF82018B6B20860112EB4BFD0
:1036AC004F688F6839880B0403D581F400410025DD
:1036BC0019E0A5B123883A88134423809BB2B34206
:1036CC0011D327461946B7B1891B89B20429A7BF64
:1036DC00F15346F40041398841F4004109E0B1420C
:1036EC00F1DA01253C46CF1939880029DBD10027B6
:1036FC0001E027F8041BFFF7A0FF3846F2BD10B518
:10370C0000F049F8DFF8B017221F086013885B043B
:10371C005B0C13804B689A4238BF4A60BDE810407E
:10372C008BE770B500F037F80021DFF890570C22CA
:10373C0002FB01F6725942B1944203D1FFF77DFFAF
:10374C00701970BD491C0829F1D320E070B500F048
:10375C0022F8054600200C22DFF8601702FB001649
:10376C00316849B90020B06034600022FEF76BFF6D
:10377C00706018B900F072FC8C4204D12846FFF737
:10378C005CFF304670BD401C0828E5D32846FFF787
:10379C0054FF002070BD044644E738B5FFF7FBFF2B
:1037AC000025DFF81C170C2202FB0512128842B10F
:1037BC00944203D1FFF741FFA8B232BD6D1C0B2D13
:1037CC00F1D3FFF73AFFFF2032BD10B50446208835
:1037DC00FFF7E3FFFF2800D170E1DFF8E4160C22BD
:1037EC0002FB00108168080002D16FF0010010BDCF
:1037FC002046BDE81040084702460FF2B070104753
:10380C0010B500200C21DFF8B426002401FB00F3D6
:10381C00401C9C509B1808289C60F7D30020DFF8B4
:10382C00A026002301FB0024401C0B282380F9D385
:10383C00082010800FF25D709060BDE8104007E723
:10384C0070B590B0FCF7CEFF04466846FFF7E3FE78
:10385C000520069000224FF44870089069464FF0FE
:10386C0001100490DFF85C060590DFF85C06FEF7AB
:10387C0039FF050006D0FFF7D5FE06462846FFF7B0
:10388C0065FF08B900F0EAFB3046FFF7D6FE20468C
:10389C00FCF7B0FF10B070BD70B500F0E8F8FFF7A2
:1038AC0055FF0546FFF7BEFEA2880021DFF8103653
:1038BC000C2606FB01331E883EB91A805D60A26897
:1038CC009A60A1816968216161E7B24204D1FFF776
:1038DC00B4FE6FF0020070BD491C0B29E6D300F05A
:1038EC00BDFB00BF38B500F0C2F8FFF72FFF050095
:1038FC0019D0FFF797FE0021DFF8C4250C2303FB3A
:10390C000122138863B94FF6F873138055600023B6
:10391C009360A1806968A160FFF78FFE002032BD23
:10392C00491C0B29E8D300F099FB00BF10B50446E5
:10393C0060680C3080B2FFF7A2FE10B96FF0030084
:10394C0010BD6168018100210160FF2181720C3082
:10395C00A060002010BD80B540680C3810E080B22B
:10396C008DE610B50446606880B2FFF788FEA06053
:10397C0000280CBF6FF00300002010BD80B540681C
:10398C00FFF7BDFE002002BD38B504460D46FFF71B
:10399C0049FE002145F80C1C216811B9256006E090
:1039AC00114651F80C2C002AFAD141F80C5CBDE8F8
:1039BC00324042E62DE9F04104466FF00206E06821
:1039CC00A0F10C05E0880B28BCBFA0880B280BDAF3
:1039DC00FFF728FEE188DFF8E8840C2707FB01815C
:1039EC00496819B9FFF729FE304617E0FFF725FEA5
:1039FC00A0882871E0886871207AA871E088E16855
:103A0C0007FB008040680830FFF7BEFFE08807FB2B
:103A1C00008040684068FCF71BFD0020BDE8F08189
:103A2C0070B500F024F8FFF77CFE10B96FF00400BD
:103A3C0070BD00F10806FFF7F5FD3168002541B1B6
:103A4C000D46A5F10C010A68326000220A60FF22C3
:103A5C008A72FFF7F2FDA560A5F10C010DB90220E9
:103A6C0070BD0879A0804879E080002070BD0446C4
:103A7C00FCF7E9BE0B280BDADFF844240C2303FB1C
:103A8C000020008800281CBF4FF6F872904202D12B
:103A9C004FF0FF307047088000207047811D8088F0
:103AAC00E8E710B50446E088FFF777FEFF2800D161
:103ABC0004E0E0802046BDE810407BE74FF0FF308B
:103ACC0010BD3EB50446FFF7ABFF050017D1A0882B
:103ADC006946FFF7CFFF78B1A06802900821ADF8D6
:103AEC00041001A80321ADF80610DFF8E013896873
:103AFC0088476FF005003EBDBDF80000A080284649
:103B0C003EBD10B5DFF8C82312680C464FF47A712D
:103B1C00A1FB00010023FFF709FC002902D8B0F13A
:103B2C00004F02D36FF0020010BD2060002010BDCA
:103B3C0038B5FFF79CFFFFF7F4FD0546FCF778FA64
:103B4C00002818BF012800D015B96FF0040032BD51
:103B5C00606840B9009000996868FCF717FC401E3B
:103B6C008041C00F32BD10F1010F08BF4FF0FF3084
:103B7C00F0D000F050F90028EDD032BD80B540688F
:103B8C00FCF766FC002002BD00F068FA00BF80B5AF
:103B9C004068FDF766F8002002BD80B54068FDF76F
:103BAC005EF8002002BD80B5FDF776F9FCF720FE2B
:103BBC00002002BD80B5FCF715FEFDF763F900206F
:103BCC0002BD10B58CB004466846FFF71DFDE02021
:103BDC0000F013F808B900F041FA0BE010B58CB006
:103BEC0004466846FFF710FDE06800F006F808B9D7
:103BFC0000F034FA00200CB010BD08900023A1682E
:103C0C0060686A46FEF794BC10B50446FCF736FAB9
:103C1C006060002010BD0146886849680847F0B50F
:103C2C0007468BB0BC68A94D6CBB0C20FFF727FD79
:103C3C0004006FF003061ED008232422002101A8E3
:103C4C00FEF79AFC0020ADF81400069007940023B0
:103C5C007968A04801AAFEF797FC206068B9082093
:103C6C00ADF800000C20ADF802006846A968884742
:103C7C002046FFF744FD304618E0F868606038696C
:103C8C00A060BC600AE02868804706462068FCF704
:103C9C0006FB3869A06030466968884779682068F7
:103CAC00FCF702FB2068FCF7EFFA00200BB0F0BD2C
:103CBC0010B5044682B0606800F0ADF820B90098E9
:103CCC0060602046FFF7ABFF16BD80B5406810B9A9
:103CDC006FF0020002BD0068FCF7E1FA002002BDA3
:103CEC007B49096841600020704750B5044678480C
:103CFC0002686FF00046A6FB020100234FF47A72B3
:103D0C00FFF714FB002902D8B0F1004F00D3304666
:103D1C006060002050BD2DE9F04186B00646FCF7EE
:103D2C0092FDFFF7FEFC0446002002900025FCF7F4
:103D3C007FF9002818BF012800D014B96FF00400D7
:103D4C0066E0706820B110F1010F03D14FF0FF3025
:103D5C00009004E000F05FF85FEA000857D1FCF730
:103D6C008DF900994FF001080F1800E000900099B0
:103D7C006068FCF70BFB80B303A8FFF751FE5FEA0A
:103D8C0000081AD1BDF8100001A9FFF773FE80B925
:103D9C00059ABDF81210BDF80400B368984740B1FD
:103DAC00BDF80400B081BDF81200F08105983061B7
:103DBC0013E0059902A8FFF7E7FD00986D1C10F1C0
:103DCC00010F18BF00284FF00108D0D0FCF756F9AE
:103DDC00381A02D000998142C8D2029EFFF722FC09
:103DEC0004F1080756B1314600E0114651F80C2C8D
:103DFC00002AFAD13A6841F80C2C3E60FFF71DFC02
:103E0C00002D03E06068FCF723FB6D1EFAD14046E1
:103E1C0006B0BDE8F081694673E6F8B5FFF727FEFA
:103E2C000546FCF705F9002818BF01286FF00406B9
:103E3C0013D0FFF7F7FB0021214A0C234B439F5A69
:103E4C004FB19B185B681B68AB4201D1A18043E06A
:103E5C00491C0B29F1D3FFF7F0FB3046F2BDF8B546
:103E6C000446FCF7E5F8002818BF012802D16FF0D2
:103E7C000400F2BDFCF7E7FC0546FFF7D3FBA7886F
:103E8C000F4A00210C234B439E5A6EB1BE4208D1FF
:103E9C00991849680968A9420CBF01210021A16049
:103EAC001AE0491C0B29EDD3FFF7C7FB4FF0FF308D
:103EBC00F2BD0000C41A0020E43800208C3700202A
:103ECC0008370020880A00200538000088090020E7
:103EDC005CA60000233C0000FFF7AFFB0020F2BD06
:103EEC0070B504463C20FFF7CAFB05006FF00306D3
:103EFC0011D0FFF790FB207AA8610022608928621C
:103F0C002946E06828616068FEF7ECFB0446284609
:103F1C00FFF7F5FB0CB9304670BD002070BD70B5D5
:103F2C0004462420FFF7ABFB05006FF0030613D00B
:103F3C00082324220021FEF781FB2079012808BFE9
:103F4C002876A06800222946FEF77DFBE060284613
:103F5C00FFF7D5FBE06808B9304670BD002070BD96
:103F6C0010B5044682B0A06840B900900099606812
:103F7C00FCF70CFA401E8041C00F16BD10F1010F6A
:103F8C0008BF4FF0FF30F0D0FFF745FF0028EDD011
:103F9C0016BD00004188292902D36FF0010070473B
:103FAC000FF2140252F8211008470000D737000016
:103FBC003136000047360000A5380000F13800000B
:103FCC0039390000633900006F390000893900006D
:103FDC00C13900002D3A0000AF3A0000CF3A000082
:103FEC003D3B0000893B0000953B00009B3B0000E3
:103FFC00A73B0000B33B0000C13B0000CF3B0000DF
:10400C00153C0000BD3C0000ED3C0000F73C0000FE
:10401C00A93A00001D9C0000E59C0000233D000017
:10402C00273E00002B3C0000D73C00007F9C00008A
:10403C00B79C0000CB9C00006B3E00001D9D000057
:10404C00399D0000ED3E00002B3F00006D3F00004D
:10405C002F9D0000479D0000E93B0000012000F06F
:10406C0001B800002021090326311820ABBEF9E766
:10407C002DE9F84CDFF83C790C46002640F2013B68
:10408C0092467B78398A97F804C097F803E0B0EB36
:10409C000B0540F67B4232D06D1E37D06D1E3DD0E5
:1040AC00AD1E41D06D1E00F07D806D1E00F0808035
:1040BC006D1E00F08D806D1E00F09D806D1E00F059
:1040CC00A2806D1E00F0A7806D1E00F0AD806D1EED
:1040DC0000F0B280ED1E00F0B7806D1E00F0BC80C9
:1040EC006D1E00F0C1806D1E00F0C6806D1E00F0CC
:1040FC00CB806D1F00F0D380AD1E2ED0E7E0102CCE
:10410C0005D11022514607F1A4008AE0102C40F092
:10411C00DC801022514607F1B40082E0042C6BD1F4
:10412C00DAF80000F862DDE0012C65D1BCF1010F7A
:10413C0036D09AF80000F870BEF1000F06D00028B7
:10414C00F1D1022B1BD0052BEDD118E00028EAD0C1
:10415C00012B21D0042B1DD11EE0012C4CD1BEF122
:10416C00010F1DD09AF800003871BCF1000F0AD075
:10417C00002807D1032B1CBF072B052B02D1C8B27B
:10418C0000F059FEAEE00028FCD0012B1CBF042B24
:10419C00062B01D0052B02D1012000F004FCA1E07C
:1041AC0012269FE0022C27D1BAF80000B88299E0C1
:1041BC00202C0EDA07F1CC061F213046FFF77CF9D4
:1041CC0000F097F8388A7C713346224601210EE0C4
:1041DC00202C7ADA07F1EC061F213046FFF76CF938
:1041EC0000F087F8388ABC71334622460021C0B2F1
:1041FC0000F004FE73E0012C67D19AF8000005284A
:10420C0063DAF8716EE0012C5FD19AF80000042893
:10421C005BDA387266E0062C57D10622514607F558
:10422C008670FFF70DF95DE0012C4ED19AF8000075
:10423C0008284ADA787255E0012C46D19AF8000029
:10424C00042842DAB8724DE0012C3ED19AF80000F5
:10425C0002283ADAF87245E000F047F835D1811FB0
:10426C00914232D238833DE000F03FF82DD1811FCE
:10427C0091422AD2788335E000F037F825D1B0F599
:10428C00FA7F22DAB8832DE000F02FF81DD1A0F1CF
:10429C000A0140F67742914217D2F88322E0012CB2
:1042AC0004BF9AF8000001280FD107F1800000F03C
:1042BC00BAFF40B900F01CFB060013D107F15C00FB
:1042CC0000F0B8FF0EE016260CE018260AE02728AE
:1042DC0007DA022C05D1BAF8001000F0BFFD064633
:1042EC0000E002263046BDE8F28CBAF80000022C41
:1042FC007047224651463046FFF7A2B838B5002425
:10430C004FF440730D46C21ADFF8A81636D0521E71
:10431C0036D0521E37D0521E38D0521E39D0521EB3
:10432C003AD0521E3CD0521E3CD0521E3DD0521E92
:10433C003ED0521E3ED0521E3ED0521E40D0521E77
:10434C0040D0521E40D0921E40D0521E40D0521E21
:10435C0040D0521E40D0521E40D0521E40D0521E51
:10436C0045D0521E45D0521E45D0921E47D0521EEB
:10437C0014D0521E41D0521E43D045E0887841E003
:10438C001022A4312FE01022B4312CE0C86A28602E
:10439C0041E00622C43126E0C87833E0087931E0E8
:1043AC00888A35E04A79CC311DE08A79EC311AE003
:1043BC00C87927E0087A25E0062201F5867112E01B
:1043CC00487A1FE0887A1DE0C88A21E0C87A1FE08D
:1043DC00088B1DE0488B1BE0888B19E0C88B17E01D
:1043EC00062201F58A712846FFF72AF813E0088C9B
:1043FC000EE0488C0CE0888C0AE0087B02E04878E0
:10440C0000E0487B287006E0272803DA00F042FD24
:10441C00288000E00224204632BD1CB5DFF894450C
:10442C00617889B900B1206304F12C00019004F18A
:10443C00B400009004F1A403208AA1780022C0B239
:10444C0000F097FC002016BD112016BDDFF86405A6
:10445C004178062918BF072905D1C18A008A132281
:10446C00C0B200F0ACBC1220704700B58FB008236E
:10447C003C2200216846FEF72BF9DFF83C0500F1E1
:10448C005001079100234FF4DC7108916A46032117
:10449C0006910FF2D101FEF747F90FB000BD70B5D0
:1044AC0084B000F016F90120DFF81015DFF8044590
:1044BC0009680FF20D55ADF80200002668468847D2
:1044CC00BDF8040020820298A062002060704FF6B4
:1044DC00FF70E08200F0FCFC2070002301200190B2
:1044EC00002200200090294604F1380000F060FE04
:1044FC00022000F02FF804F15C0000F059FE0420BB
:10450C0000F028F804F1800000F052FE0420A070A6
:10451C0004F1A40200200021002300252BC204F189
:10452C00B405103A4BC5E062E0712072A17207200D
:10453C0060721021022000F0E4FD103D2A4610218B
:10454C00032000F0DEFD04F12C020421042000F015
:10455C00D8FD7FBD01900023002000900022294649
:10456C0070470000FEB5FFF79AFFDFF84854DFF8FC
:10457C004C4405F1800700F0ACF80A20ADF80200BD
:10458C004FF0FF30019068462168884700284BD1D6
:10459C0000F09FF80920ADF80200684621688847B2
:1045AC00BDF80610029E00283ED1BDF8040010286C
:1045BC0004BF288A81422DD130884FF6FF71884282
:1045CC0009D17088400425D505F12C020421042062
:1045DC0000F0ACFD1EE03078A22805D0D02804BF36
:1045EC00304600F07AF815E07079132812D1308932
:1045FC00012804BFA87B022805D1384600F01AFE1A
:10460C00FFF724FF06E0052000F044FC0146384685
:10461C0000F0F4FD46B100F05CF80320ADF80200A8
:10462C000196684621688847688AC10730D54FF6DD
:10463C00FE7108406882E9782879014328D018B1C6
:10464C0003208DF800000CE0E8798DF800000622BC
:10465C00287A8DF8010005F586710DF10200FEF740
:10466C00EFFE687A8DF808006946A87A8DF8090083
:10467C00288AC0B200F0BEFB00281FBF082068705B
:10468C00286B002804D0016808001CBF082088474C
:10469C00688A810706D54FF6FD71084068820020B4
:1046AC0000F026F9688A41070AD54FF6FB710840DD
:1046BC006882A87B012804D0022808BFFFF7C6FE39
:1046CC0059E70090EB8BAA8B698B288B00F044F98F
:1046DC0051E70820ADF800007047F8B50546B54C19
:1046EC00A878010004F58A7704F1800612D002281C
:1046FC003BD0032818BF04285BD0052800F081802C
:10470C00062800F0AB80072800F0CD800F2800F0C1
:10471C00E980F1BD6878D8B904F1A4021021022017
:10472C0000F004FD04F1B4021021032000F0FEFCA3
:10473C000622E91C04F1C400FEF782FE0120607021
:10474C0004F1CC03208A62790121C0B200F056FB3F
:10475C0008B108206070206B30B10168080003D0EC
:10476C006078BDE8F4400847F1BD6878E8B9E878AE
:10477C0048B1208AA27904F1EC030021C0B200F008
:10478C003DFB687011E06078022818BF07280CD038
:10479C00062802D12079012807D104F1380000F055
:1047AC0042FD10B9012000F0FEF868780028DBD03B
:1047BC00CFE7697821BB03280AD16078062808BFA7
:1047CC000720C7D0E07800280CBF03200220C1E7E7
:1047DC00A18AE078002907D0227910430AD004F18D
:1047EC00380000F00BFD05E0012807BF0020E07049
:1047FC00002020716078072814BF04200620A9E748
:10480C00A7E7687820BB0622291D3846FEF718FE5C
:10481C006889E08206206070E8892084288A608498
:10482C00688AA084E8782073E07A012809D11F20D7
:10483C0000F030FB4FF47A71414304F15C0000F05E
:10484C00DDFC6A89E8780423291D00F0BCF982E7B5
:10485C003128D5D10020E07004207BE7A88800F037
:10486C00C9F906213846FEF727FE00202084608413
:10487C00A084A879607304F15C0000F0DBFC304686
:10488C0000F0D8FC4FF6FF70E082207908B10320CD
:10489C0060E7A87908280CBF05200420607001206F
:1048AC0000F081F857E7304600F0C4FC6878002827
:1048BC000AD1E8882084288960846889A08404F15E
:1048CC005C0000F0B0FC00287FF44EAF636B002B53
:1048DC003FF44AAFA28C618C208C1B6801B0BDE800
:1048EC00F0401847A888BDE8F440052100F0A8BAAC
:1048FC00FEB5304D298B0446288C884224BF698B29
:10490C00814207D3688CA98B884202BFA88CE98BA3
:10491C0088421ED0052000F0BDFA0646E88AADF8A4
:10492C000000288BADF80200688BADF80400A88B52
:10493C00ADF80600E88BADF80800684600F03AFACE
:10494C00070007D1AC73314605F1800000F056FC2E
:10495C0000E018273846FEBD70B5164C6578062D5C
:10496C0001D0142070BD40F67A45861FAE423CBF84
:10497C008E1FAE4215D2B2F5FA7F12DAA3F10A05F8
:10498C0040F67646B5420CD220836183A283E38342
:10499C000498FFF7ADFF04F15C0000F04BFC002025
:1049AC0070BD182070BD03494A8A10434882886A3A
:1049BC00FBF74EBDD80B0020902F00209009002053
:1049CC00F1E70000E0B50821ADF8001001900221DC
:1049DC0000F00FF8002814BF002002980EBD00B59F
:1049EC0083B00821ADF800100190032100F001F80C
:1049FC0007BDADF802106846DFF87C15096808475A
:104A0C001FB5ADF80610ADF804000824DFF86815E2
:104A1C008DF808200393ADF80040ADF802406846CD
:104A2C000968884704B010BD30B585B0144608221B
:104A3C000291ADF800201922DFF83C1509680190AD
:104A4C00ADF802201D466846884714B1BDF80C101D
:104A5C00218015B1BDF80E102980089A04991160B7
:104A6C0005B030BD00B583B00820ADF800001A20A9
:104A7C0000F014F800280CBFBDF80400FF200EBD98
:104A8C00E0B5ADF80000ADF80610002000F006F817
:104A9C0000280CBF9DF80800FF200EBDDFF8D814CD
:104AAC000968ADF802006846084750B110F1040FD0
:104ABC0001D10420704710F1030F01D1022070477F
:104ACC00012070478123037042EAC111002341F495
:104ADC007C41C370818070478223037081800023E6
:104AEC00C370827170473EB504460820ADF80000D3
:104AFC000D462020ADF802001020DFF87C14096868
:104B0C00ADF804006846884720B9029810B16FF0E0
:104B1C0004003EBD00950023002221464FF0FF30DB
:104B2C00FFF782FF3EBD10B582B01446CA78012A49
:104B3C0003D18A88DFF858341A8000F010F858B97D
:104B4C00009069462046FFF7CEFF28B900984478BC
:104B5C00FFF745FF204616BDFFF7A7FF16BD0B4616
:104B6C00022210214CE738B51C461546FFF7F7FF1B
:104B7C00B8B9009069462846FFF7B5FF88B9009888
:104B8C004578002D04BFC079A04205D100988168FA
:104B9C0004982246FEF754FC0098FFF720FF2846A5
:104BAC0032BDFFF782FF32BD38B500F0B2F9050017
:104BBC0004D0042200F032F8AC6026E031BD3C8118
:104BCC00BD72FE604EE72DE9F04100F040F90700A0
:104BDC000FD0142200F022F83C72FD603E8287F860
:104BEC001280FFF73FFF3946BDE8F041DFF8A42300
:104BFC0099E72FE038B500F030F8050001D0152208
:104C0C0000E031BD00F00AF82C81FFF72BFF2B469A
:104C1C0001B0BDE8304002221021F1E601215BE732
:104C2C00002204215FE02DE9F04100F010F90700AB
:104C3C0010D002220421FFF74FFFBC60BD81BE7370
:104C4C00C7F81080FFF70EFF3946BDE8F041DFF8DA
:104C5C00482368E70420BDE8F08104460A20B1E649
:104C6C00002203213FE000B583B00FF2490301930A
:104C7C0006230093032300F04AF80EBD1078802819
:104C8C0002BF508840F27F61884208D190889842D8
:104C9C0002BF91790098814201D101207047002018
:104CAC00704710B582B00624FFE70094FFF7E6FFCB
:104CBC0016BD00000323F4E71078802802BF50884B
:104CCC0040F27F6188420CD19088032818BF0428D9
:104CDC0007D1907900281CBF1028112801D1012080
:104CEC00704700207047F8B500F0F4F907000CD0BD
:104CFC0032462946FFF7F0FEBC60FFF7B3FE39469B
:104D0C00BDE8F840DFF894220DE70420F2BD2DE950
:104D1C00F04100F027F807000AD0069A4146FFF749
:104D2C00DBFE3C817D81FFF74CFF079A00F0DDB97B
:104D3C0090E742460321C5E670B582B000F045F914
:104D4C00FFF790FE1B210091C3B232462946204644
:104D5C0000F0E9F876BD10B582B01D24009400F087
:104D6C00E2F816BD04460D46164698461020FFF78D
:104D7C0029BE2DE9F04180460D4616461F461820E7
:104D8C00FFF720FE040014D0002200F05DF800F0C4
:104D9C00B4F920726572A672E760069820610798D4
:104DAC006061FFF75FFE2146BDE8F0410FF29122F2
:104DBC00B9E64FE70FF28D231122002109E1F8B576
:104DCC0000F0ABF807000FD00A2200F03DF800F01D
:104DDC000DF838727D813E73FFF744FE3946BDE80D
:104DEC00F8400FF265229EE60420F2BD21465020C9
:104DFC00FFF746BE0FF255230622FBE02DE9F041EA
:104E0C0080460D4616461F461020FFF7DBFD0400BA
:104E1C0010D0072200F018F800F06FF920726572BC
:104E2C00A672E760FFF71EFE2146BDE8F0410FF2C7
:104E3C00212278E60EE70FF21D2308220021D9E08B
:104E4C000FF215231022AFE00421FFF73BBE0446FE
:104E5C000D46164698461420FFF7B4BD70B500F009
:104E6C0014F806000BD03022FFF7EEFF00F009F823
:104E7C003146BDE870400FF2E512FFF754BE042036
:104E8C0070BD34817581FFF7EDBD04460D460C20D5
:104E9C00FFF798BD30B583B004460020ADF8040090
:104EAC0000F013F805000DD03122FFF7CDFF2C8157
:104EBC00FFF7D8FD01A9009102230FF2A512294694
:104ECC00FFF751FEBDF804003EBD0A20FFF77ABD86
:104EDC001CB500208DF8040000F012F804000CD072
:104EEC001222FFF79BFEFFF7BDFD01A900910123E4
:104EFC000FF271122146FFF736FE9DF8040016BD25
:104F0C000820FFF75FBD04460D4616461020FFF73C
:104F1C0059BD04460C20FFF755BD04460D461646F8
:104F2C000E20FFF74FBD2DE9F041FFF790FF070072
:104F3C0011D0069AFFF7FEFE3C813E74FD6000F036
:104F4C00DCF87874FFF78EFD3946BDE8F0410FF2BE
:104F5C005512FFF7E8BDFFF77DBE38B51446104A71
:104F6C0015682A0006D0009302460B462146012004
:104F7C00A84732BD002032BD90090020094A1368B1
:104F8C001A0003D00A46014601201847704700005A
:104F9C00A41A0020D1500000D7500000C54C0000CE
:104FAC0010390020143900202DE9F04100F00DF8E3
:104FBC0098460C20FFF706FD070004D000F016F809
:104FCC003C81BD728EE0FFF745BE04460D46164689
:104FDC0070472DE9F041FFF7C5FE070004D000F043
:104FEC0005F8BC60FD607DE0FFF734BE324604215D
:104FFC00FFF768BD2DE9F041FFF7B4FE070006D0BE
:10500C00FFF7F4FFFFF7F2FE3872FD606AE0FFF77E
:10501C0021BE1078802802BF508840F27F61884200
:10502C000CD190884FF680710140B1F57E4F04BFD2
:10503C0000F07F00984201D101207047002070479A
:10504C000023E6E71123E4E70A23E2E70623E0E77F
:10505C000723DEE70823DCE71023DAE73023D8E761
:10506C003123D6E780B5122300930123FFF706FE08
:10507C0002BD00001078802802BF508840F27F618A
:10508C0088420DD190884FF6807101404FF68052C6
:10509C00914204BF00F07F00984201D1012070477B
:1050AC000020704770B5FFF790FF1D23FFF7E2FF5C
:1050BC0030B9324629462046BDE870401B23D9E75B
:1050CC00012070BD80B51423CEE780B50223009378
:1050DC000423CBE704460D4616460C20FFF772BCA2
:1050EC003D81FE60FFF7BEFC42463946BDE8F0410B
:1050FC00FFF719BD3C817D81BE8141465020FFF7F1
:10510C00BFBCF8B5FFF7FFFE07000DD0012200F081
:10511C0022F83C727D72FFF754FD3946BDE8F84029
:10512C000FF26902FFF7FFBC0420F2BDF8B5FFF7E0
:10513C00EAFE07000DD0022200F00DF83C727D72E1
:10514C00FFF73FFD3946BDE8F8400FF24502FFF787
:10515C00EABC0420F2BD0521FFF7B4BC107880280E
:10516C0002BF508840F27F6188420DD190884FF683
:10517C00807101404FF68062914204BF00F07F00C5
:10518C00984201D101207047002070470123E5E7C8
:10519C000223E3E700B583B00821ADF800100190BD
:1051AC000521ADF80210684653490968884707BDC8
:1051BC00F0B589B004460D4616461F460823242236
:1051CC0000216846FDF7D8F90F984C4909680690FC
:1051DC006B464FF47A70B0FBF1F101FB07F00590D0
:1051EC0001FB06F20E98ADF8100029462046FDF79B
:1051FC00E5F9204609B0F0BDFBF746B838B50446D2
:10520C000D46FBF754F810B12046FBF748F800F0B8
:10521C0031F800FB05F12046FBF746F82046BDE8C7
:10522C003240FBF731B880B5FBF741F800B10120F3
:10523C00C0B202BDFBF733B870B504460D46FBF7A0
:10524C0036F820B12046FBF72AF8012600E00026AC
:10525C0000F010F8454329462046FBF725F829466F
:10526C002046FBF71FF826B12046BDE87040FBF73F
:10527C000BB870BD214909684FF47A70B0FBF1F09E
:10528C00704710B504460021FDF7B6F9204610BD55
:10529C0070B584B004460820ADF800000D4604201B
:1052AC00ADF802000C2014490968019016466846B6
:1052BC00884758B9029949B18E602046FBF718F817
:1052CC0015B12846FBF7C4F8012003E03046FFF780
:1052DC0061FF002004B070BD10B50446FBF702F866
:1052EC0038B92046FAF7F8FF8468FFF753FF2046D9
:1052FC0010BD002010BD0000900900205CA600002D
:10530C0040680068D0F80405084018BF0120C0B2FE
:10531C00704740680068C0F80415704750F8041FC7
:10532C0021F002010160704750F8142F01E050F891
:10533C00242F22EA01010160704770B50446FBF787
:10534C00A1FDDFF8A8660546307850B114F0704F17
:10535C0004BF1020FBF754FF0420FBF751FF002083
:10536C0030702846BDE87040FBF792BD38B54568F3
:10537C008468E86E00F0A2FBA86E00F07CFD20684B
:10538C00FFF7CCFF05F11C00FDF785F86079FBF702
:10539C0055FF287818B905F13800FDF782F905F1A9
:1053AC009000FCF723F9FBF76DFD002185F8A410A4
:1053BC00BDE83240FBF76CBD2DE9F04147688668CB
:1053CC00202915464FF0FF3807F1680404D02BD381
:1053DC0022290BD006D327E0387B012818BF0020E8
:1053EC0020721EE00020207280461FE0287840F0DA
:1053FC000041206841F4005100F0ECFCB0B9306879
:10540C00B0F1804F0CBF0B2223222978206800F0CA
:10541C00AEFD97F85910206800F009FD287887F840
:10542C0059004FF0000801E06FF001084046BDE85C
:10543C00F0812DE9F041D0F804C080680B88046835
:10544C00DFF8AC55DFF8AC850CF15802B4F1804FA5
:10545C0092F800E00FF204640CBF47462F4603FAA3
:10546C000EF38E689BB246B10FF2E85C5CF82EC06E
:10547C00C7F808C09E19761E04E054F82E60BE6072
:10548C000CF172067E6043F6F07C066808363E60CE
:10549C00D7F808E00E88761E0CEA061646EA0E06C9
:1054AC00BE600768B7F1804F0CBF08F110051035CE
:1054BC0092F800804F683FB10FF2905454F8284096
:1054CC00AC60DB195B1E03E054F82830AB60831D25
:1054DC002B60036808336B60AB680988491E0CEAC3
:1054EC0001111943A960526952688168C368126836
:1054FC0019439162006850F8241F41F003010160C8
:10550C00BDE8F08170B50446A66830686568C1696D
:10551C000162C90721D50121FFF706FF686D18B19B
:10552C002046BDE8704033E13068FFF7F7FE306885
:10553C000321FFF7FCFE00F07EF93068DFF8B814A9
:10554C00B0F1804F0CBF4FF4807040F2011009682D
:10555C0088472046BDE8704091E1F168E86EFFF79E
:10556C00CFFE30B130680221FFF7E1FEF16800F0A8
:10557C0065F9B168E86EFFF7C3FE90B130680121A0
:10558C00FFF7D5FEB16800F059F96E6D002030744C
:10559C007068FFF7D2FE002068653146AA68204685
:1055AC0046E170BD70474068002180F8A4100020CF
:1055BC00DFF83814087070472DE9F041804696B03A
:1055CC00D8F80450D8F808700C46FBF75BFC95F83B
:1055DC00A410A9BB012185F8A410FBF759FC1CB938
:1055EC000DA800F009FD0DAC0020686505F158060A
:1055FC002069286160696861207E2876207B287389
:10560C00207828706068686000203076606909280E
:10561C008041C043C00F30707879FBF77BFE404669
:10562C0000F02DF9F87C7070404600F04FF958B935
:10563C007879FBF703FEFBF725FC002185F8A41015
:10564C00FBF726FC002041E008233022002101A8B2
:10565C00FCF7F7FE0020CDF81880009001AB3979EB
:10566C00DFF8982305F11C00FCF7FAFE287888B9BE
:10567C0008232422002101A8FCF7E0FF01208DF86B
:10568C001C0001AA002105F13800FCF7F4FF0FF211
:10569C00B11000E0A068A86000F0E9F97061287B07
:1056AC00012808D130690FF2A11100F027FC3069F4
:1056BC0008B1C0F808800020009043460FF2613218
:1056CC00042105F19000FBF70FFE404616B0BDE833
:1056DC00F0812DE9F0410D46044628686668A768FC
:1056EC00002853D0FBF7CEFB716D21B1FBF7D0FB3B
:1056FC000320287447E0012129747565FBF7C8FB6A
:10570C0006F16800017A31B196F85910BC4A00686C
:10571C00114300F0DFFB3868DFF8D08250F8041F2B
:10572C0041F00201016020462946FFF782FE3868ED
:10573C0050F8141F41F0010101606D68FBF7A2FBEA
:10574C00074698F8000058B915F0704F04BF1020A8
:10575C00FBF734FE0420FBF731FE012088F8000033
:10576C003846FBF795FB307878B9716806F138004C
:10577C00FAF70CFE48B9204600F00AF8002106F1B1
:10578C003800FAF703FE002000E00120BDE8F081AC
:10579C0070B504466568A668FBF774FB696D002953
:1057AC0004BFBDE87040FBF773BBFBF771FB3068BF
:1057BC00FFF7B4FD30680321FFF7B9FD00F03BF8AB
:1057CC0030680121FFF7B0FD306801210162B0F1B2
:1057DC00804F89490CBF4FF4807040F2011009686A
:1057EC008847204600F04BF8686D4068FFF7A5FD30
:1057FC00696D087C04281CBF03200874B268F36828
:10580C0001201A439040EA6E52681268D0623068E8
:10581C00B0F1804F0CBF774875480A688068C0F3B8
:10582C000910101A401E0860002068652046AA68FE
:10583C00BDE870401047B068F1680143E86E68E558
:10584C0040683830FAF704BEF8B50546AC686068B5
:10585C0000F15406707900F057FB07467179284621
:10586C0000F038FB664800EA0701814206D1316836
:10587C00042008742046BDE8F24089E7F1BD30B53C
:10588C0085B0856844682868FFF748FD28680F21B3
:10589C00FFF74AFD29680320086202A8FAF7D2FB39
:1058AC006069019020690090217B0FF2801050F804
:1058BC0021300FF28010217E524C246850F82120A8
:1058CC00039928682468A04705B030BD70B586B030
:1058DC00446885684C492A7C04F10C063378012B0A
:1058EC0010D142F0004200926A7C11430191A97CD4
:1058FC0041F00041029194F8591041F0004141F4FB
:10590C00005119E00A430092404B6A7C42F000427D
:10591C0042F480420192327B002A18BF012A07BF51
:10592C00AA7C1143A97C19430291032194F85920B4
:10593C00FF2A03D043EA020103910421FF224DF810
:10594C002120694604F15C0000F009FA0028A066E9
:10595C0049D00FF2D802337852F823202968012A53
:10596C001ED1B1F1804F0CBF09222122297C00F0FD
:10597C00FEFA00F04DF80CBF0A22222200F04CF87F
:10598C0000F046F80CBF0C222422A97C00F045F84C
:10599C0000F03EF80CBF0B22232294F859101FE0A4
:1059AC00B1F1804F0CBF0A222222297C00F0DFFAD1
:1059BC0000F02EF80CBF0922212200F02DF800F087
:1059CC0027F80CBF0C222422A97C00F026F894F8AE
:1059DC005910FF2906D000F01BF80CBF0B22232214
:1059EC0000F01BF8012006B070BD00002239002029
:1059FC000005002030040020780000101155000034
:105A0C0000000680C4010010000480A00004C0A0A7
:105A1C002868B0F1804F7047697CA06E00F0A7BA7F
:105A2C0080B50846FFF72BFF002002BD00000000E8
:105A3C000100000000000000020000000100000056
:105A4C00030000001000000020000000018000C0D6
:105A5C00018000D50180000C0180005D018000CC2C
:105A6C00018000DD406800680121C1647047F0B519
:105A7C00234C8DB0656826686879FBF74BFCFBF707
:105A8C0001FA0746307898B908233022002101A882
:105A9C00FCF7D7FC00200694009001AB2979194A39
:105AAC00301DFCF7DDFC01203070204600F01EF8A4
:105ABC003846FBF7EDF920460DB0F0BD38B505685A
:105ACC004468287888B16079FBF76FFB012807D10F
