:10000000E84300209992000001CA011001CA0110C2
:1000100001CA011001CA011001CA011001CA011070
:1000200001CA011001CA011001CA011001CA011060
:0C00300001CA011001CA01103FCA0110F2
:100100003C0000000000000000000000340100007E
:1001100000000000000000000100000000000000DE
:1001200000000000000000000000000001000000CE
:0C013000000000000800000000000000BB
:10013C003400000000000000000000006801000016
:10014C0000000000000000000100000000000000A2
:10015C00010000000000000000000000080000008A
:04016C00000000008F
:1001700030000000000000000000000098010000B6
:10018000040000000000000001000000FFFFFFFF6E
:10019000FF00000001000000080000000000000057
:1001A0002C0000000000000000000000C40100005E
:1001B000040000000000000001000000FFFFFFFF3E
:0C01C000FFFFFFFF08000000000000002F
:1001CC0034050000E401000099A1011095A701106D
:1001DC00A5C2011009B2011045B8011000000000C1
:0801EC00000000002E000000DD
:1001F40028000000000000000000000014020000BD
:100204000000000000000000FFFFFFFF00000000EE
:080214000800000000000000DA
:10021C00300500003002000069C201106DC10110F0
:10022C001FC2011095BA0110000000000000000070
:04023C00300000008E
:10024000300500005402000075C20110A9B601106B
:100250009DBF011049B60110000000000000000021
:040260003100000069
:1002640024000000000000000000000080020000E4
:100274000000000000000000000000000800000072
:040284000000000076
:10028800240000000000000000000000A40200009C
:10029800000000000000000000000000080000004E
:0402A8000000000052
:1002AC00240000000000000000000000C802000054
:1002BC000000000001000000000000000800000029
:0402CC00000000002E
:1002D00000000000400B00200400000000000000AF
:1002E000000000002000000070010000300000004D
:1002F0001C020000480B0020040000000000000069
:10030000000000000C000000300400001800000095
:1003100040020000500B002004000000000000001C
:100320000000000024000000480400001800000045
:1003300000000000580B0020040000000000000036
:100340000000000010000000A00100002C000000D0
:10035000CC010000600B0020040000000000000041
:1003600000000000200000006402000024000000E3
:10037000FFFFFFFF680B00200400000000000000EA
:100380000000000028000000880200002400000097
:10039000FFFFFFFF700B00200400000000000000C2
:1003A00000000000580000003C0100003400000084
:1003B000FFFFFFFF780B002004000000000000009A
:1003C00000000000100000006004000018000000A1
:1003D000FFFFFFFF800B0020040000000000000072
:1003E000000000001C000000AC020000240000001F
:1003F000FFFFFFFF880B002004000000000000004A
:100400000000000038000000F40100002800000097
:10041000FFFFFFFF900B0020040000000000000021
:100420000000000054000000000100003C0000003B
:100430001800000000000000000000004004000060
:080440000800000000000000AC
:100448001800000000000000000000005804000030
:08045800080000000000000094
:100460001800000000000000000000007004000000
:0804700008000000000000007C
:080478000100000030930000B8
:040484000100000073
:0404880000000C0064
:04048C0000000D005F
:040490003200000036
:040494000200000062
:0404980048090020EF
:04049C00000200005A
:0404A0000000000058
:0404A40001CA011078
:0404A8000000000050
:0404AC00000000004C
:0404B0000800000040
:0404B4000000200024
:0404B8001009002007
:0404BC00010000003B
:0404C000A40A00206A
:0404C400080000002C
:0404C8000000000030
:0404CC00000000002C
:0404D0000000000028
:0404D4000000000024
:0404D8000000000020
:0404DC00010000001B
:0404E0007809002077
:0404E400060000000E
:0404E800010000000F
:0404EC00F4070020F1
:0404F0000000000008
:0404F4000000000004
:0404F80000020000FE
:0404FC0000000000FC
:020502002A00CD
:020504000100F4
:020506002500CE
:020508003000C1
:02050A003100BE
:02050C002E00BF
:02050E000100EA
:0105100001E9
:0805140004000000EC9200005D
:08051C000000000000000000D7
:0405240000000100D2
:0405280000000300CC
:04052C0087C401106F
:04053000380500008A
:040534003805000086
:0405380000000000BF
:04053C00800000003B
:040540008000000037
:0405440000000000B3
:04054800A40A0020E1
:04054C005334000024
:040550002000000087
:04055400B092000061
:0405580064900000AB
:04055C000DC30110BA
:04056000DD2B00008F
:04056400DF2B000089
:0405680099C801101D
:04056C009BC8011017
:040570000000000087
:04057400B2130000BE
:04057800F08E000001
:04057C00088F0000E4
:04058000D88E000011
:0205840008006D
:0205860009006A
:02058800010070
:02058A0000006F
:01058C00016D
:040590000000000067
:040594000000000063
:04059800000000005F
:04059C00000000005B
:0405A000792A0000B4
:0405A400D92A000050
:0405A80059290000CD
:0405AC00032B00001D
:0405B000C12900005D
:0405B40075290000A5
:0405B800012A000014
:0405BC00452B0000CB
:0405C000D133000033
:0405C400D735000027
:0405C800DB3500001F
:0405CC000800000023
:0405D0002400000003
:0405D400180000000B
:0405D80028000000F7
:0405DC0020000000FB
:0405E0003C000000DB
:0405E4000C00000007
:0405E80034000000DB
:1005EC002DE9F04FA1B08046002017461D46029120
:1005FC000B900DF1440A6FF000490AE017F8011B4B
:10060C000298C0470028029000F0A7820B98401C6B
:10061C000B90387808B90B98A1E22528EED1002070
:10062C00059006900790089009900A9001E040F020
:10063C00010017F8011F2029F9D023290DD02B29EF
:10064C0004D02D2906D030290AD00CE040F002004D
:10065C0080B2EEE740F00400FAE740F00800F7E75C
:10066C0040F01000F4E72A290ED12968296051F8CE
:10067C00042B2960002A0D9204D5514240F004004D
:10068C000D9180B27F1C11E000210D9109E00D99B4
:10069C00494505D001EB810302EB430130390D9143
:1006AC007F1C3A78A2F130010A29F0D339782E292F
:1006BC0003D04FF0FF310C911DE017F8011F2A29D0
:1006CC0007D1296829607F1C51F8042B29600C92F2
:1006DC0011E000210C9109E00C99494505D001EB82
:1006EC00810302EB430130390C917F1C3A78A2F163
:1006FC0030010A29F0D3ADF838000FF67040397884
:10070C0000F046FE08B117F8010B8DF83A009DF881
:10071C003A00682802BF39786829622005D06C2815
:10072C0004BF38786C2803D171208DF83A007F1CF7
:10073C0011A8049017F8014BB4F1250029D01C38EE
:10074C0000F0C280001F022840F2BE80133800F077
:10075C00E380093800F0B880801E00F04A81401E0A
:10076C0000F02381401E022840F2AE80001F00F0F2
:10077C001C81401F79D0401E00F0CE80401E24D03A
:10078C00C01E0BD0801E00F0C780C01E00F0C480BD
:10079C0039E125208DF8440001203DE128682860CE
:1007AC0050F8046B286003960C9C002C04D5304642
:1007BC0000F0FAFD044606E022460021304600F027
:1007CC000FFE00B1841B069427E1296829603C24A4
:1007DC0051F8040B29600021CDE9000111A8039008
:1007EC00DDE90001049E11B908B90C9AB2B10206F8
:1007FC00120FA0EB02123032D2B2631E3A2AA8BFFB
:10080C00273200099A5540EA0170090908BF0028EF
:10081C001C4603D0039AA3199A42E8D3A01903905B
:10082C00C4F13C010C980691814209DA401A0890F7
:10083C004FF6EF71BDF838000840ADF83800ECE029
:10084C00002840F1EA809DF8380000F014001028D0
:10085C0040F0E3800D98059A801A089A801A441A81
:10086C00012CC0F2DA800894D7E09DF83A00622897
:10087C001AD0682806D06A280CD06C281CD0712895
:10088C0008D019E02868286050F8041B28600B98E1
:10089C000880C2E02868286050F8042B28600B9868
:1008AC00C117C2E90001B8E02868286050F8041BA1
:1008BC0028600B980870B0E02868286050F8041B7A
:1008CC0028600B980860A8E02868C01D20F007027B
:1008DC002A60D2E9000108322A60CDE90001002922
:1008EC0002D505982D210AE0BDF83800810702D504
:1008FC0005982B2103E0C00705D50598202100F8A9
:10090C000A10401C059011A805990818039021465F
:10091C00684600F0E1F980E09DF83A006C280DD0B3
:10092C00712818BF6A2809D12868C01D20F0070259
:10093C002A60D2E9000108322A6005E029682960A2
:10094C0051F8040B29600021CDE900019DF83A0013
:10095C00682803D1DDE9000180B20BE0622803D1E5
:10096C00DDE90001C0B205E0742818BF7A2804D173
:10097C00DDE900010021CDE900019DF838000007F8
:10098C002ED5DDE90001002908BF002828D044F04D
:10099C002000782824D10598302100F80A10401C3A
:1009AC00411C059100F80A401AE09DF83A002946CE
:1009BC0000F0D8F8CDE90001002902DA05982D21C4
:1009CC000AE0BDF83800810702D505982B2103E019
:1009DC00C00705D50598202100F80A10401C059089
:1009EC0011A80599081803902146684600F0F1F803
:1009FC0013E0012005902868286050F8041B28603B
:100A0C008DF8441009E025208DF844000120059054
:100A1C001CB18AF80140022005900D980599401AE6
:100A2C000899401A0699401A0999401A0799401AD0
:100A3C000A99441A9DF83800400710D42020012C44
:100A4C008DF840000BDB2646012310AA6946404670
:100A5C0000F074FC002840F08080761EF4D1DDF8A4
:100A6C0014B0BBF1000F11AE0CD016F8011B02989C
:100A7C00C0470028029070D00B98401CBBF1010BB2
:100A8C000B90F2D130208DF84000089E012E09DB2E
:100A9C00012310AA6946404600F050FC00285CD1A6
:100AAC00761EF5D1DDF818B0039EBBF1000F0CD00B
:100ABC0016F8011B0298C047002802904DD00B98E5
:100ACC00401CBBF1010B0B90F2D130208DF8400093
:100ADC00099E012E09DB012310AA6946404600F04D
:100AEC002DFC002839D1761EF5D103980699DDF836
:100AFC001CB00E18BBF1000F0BD016F8011B02989E
:100B0C00C047029048B30B98401CBBF1010B0B90F3
:100B1C00F3D130208DF840000A9E012E08DB012312
:100B2C0010AA6946404600F009FCB0B9761EF6D111
:100B3C009DF8380040077FF56CAD2020012C8DF816
:100B4C004000FFF666AD012310AA6946404600F04E
:100B5C00F5FB10B9641EF6D15BE54FF0FF3021B008
:100B6C00BDE8F08F622826D068281DD06A2808D0EE
:100B7C006C2827D0712804D0742823D07A280CD064
:100B8C0020E00868C01D20F007000860D0E90023B1
:100B9C00083008601946104670470A680A6052F817
:100BAC00040B0A60002170470A680A6052F8040BB3
:100BBC000A6000B20BE00A680A6052F8040B0A6083
:100BCC0040B204E00A680A6052F8040B0A60C117CC
:100BDC0070472DE9FA4E05460A462F696F2A08BF61
:100BEC00082405D041F02000782814BF0A241024D2
:100BFC003C26D5E90001642A18BF692A81468A4639
:100C0C0005D1002903DAD9F100096AEB4A0ABAF1D5
:100C1C00000F08BFB9F1000F0CD1286B50B9082C8C
:100C2C0036D195F83800000732D530203B2687F8AE
:100C3C003B002DE0E31748465146224600F0FCFBF2
:100C4C00A4FB0023A9EB02023032D2B2A6F1010BB5
:100C5C003A2A5E4603DB9DF80030513B9A180BF89C
:100C6C00072081465FEA010A08BFB9F1000F03D0E3
:100C7C00E868F1198842DDD3082C09D195F83800C1
:100C8C00000705D5F05D302802D0761E3020F055D7
:100C9C00C6F13C00A861F119E960296B884208DAB9
:100CAC00081A28624FF6EF71288F08402887BDE894
:100CBC00F38E00290ED595F8381001F01401102987
:100CCC0008D1696B6A69891A2A6A891A0E1A012E67
:100CDC00A8BF2E62BDE8F38E2DE9F24F04468EB00C
:100CEC00D4E90001CDE9020104AF9DF8380040F0D1
:100CFC00200BBBF1610F0AD0206B002848BF0620E7
:100D0C0004D408BFBBF1670F01D1012020636168D7
:100D1C00C1F30A5040F2FF7290421CD1080304BF89
:100D2C002068002809D10320A0619DF838006138A3
:100D3C001A2836D30FF2486108E00320A0619DF811
:100D4C00380061381A2829D30FF22C61E06803228D
:100D5C0000F0EAFBBEE1012816DA204600F01FFC89
:100D6C00012811DB00250020BBF1610F20D1E168C7
:100D7C00302201F8012B4A1CE2609DF83820612AD0
:100D8C000CBF782258220FE0626840F2FE3161F30A
:100D9C001E52451A62604FF0FF30E5E70FF2D45156
:100DAC00D4E70FF2D851D1E70A706169891C6161EF
:100DBC0010B90026002584E1BBF1610F40F098804A
:100DCC00206B00284CBF2126461CD4E900ABDDE982
:100DDC0002010022002300F003FC36B23ABF8BF074
:100DEC000040CDE902A0CDE902AB06F101082D1FB0
:100DFC00B8F1010F8DF810200DF1110736DBDDE98C
:100E0C0002010022002300F003FC2FD21C2102A8B7
:100E1C0000F016FCDDE9020100F098FCA8F10708CF
:100E2C00B8F1010F814609DB00F0BCFC02460B4611
:100E3C00DDE9020100F0CEFCCDE90201F81D07212D
:100E4C0005E009F00F0200F8012D4FEA2919B9F15C
:100E5C00010F01DB491EF4D5491E5CBF002200F8CE
:100E6C00012DF9D5C71DB8F1010FC8DA0DF111002C
:100E7C00391AB142B8BF0E4636B230000DF1110727
:100E8C002FD4884206DA04A9411849780829A8BF4A
:100E9C000F2100DA002104AA821800E0761E12F855
:100EAC000139401E8B42F9D00F2904D104A94118F5
:100EBC004A78521C4A70002802D504AF761C2D1DAE
:100ECC0036B2701E0DD4C1190A783032D2B23A2A19
:100EDC0003DB9DF838303A3B9A18401E01F8012983
:100EEC00F2D5206B002840F1EC80701E2063E8E006
:100EFC00DDE902010022002300F072FB3CBF81F00F
:100F0C000041CDE902012DB247F2975068434B499D
:100F1C00DFF82C9190FBF1F52DB2C5F1070ABAF16F
:100F2C00010F90461CDBDDE902675FEACA7007D54A
:100F3C0042464B463046394600F00CFD06460F46FD
:100F4C004046494642464B464FEA6A0A00F002FDCB
:100F5C00BAF1000F80468946E7D1CDE9026724E05B
:100F6C00CAF1000A0026374F14E05FEACA7007D5B1
:100F7C0042464B463046394600F0ECFC06460F46DE
:100F8C004046494642464B4600F0E4FC4FEA6A0AAA
:100F9C0080468946BAF1000FE7D1DDE902013246FD
:100FAC003B4600F0A9FDCDE90201BBF1660F0CBF79
:100FBC0005F10A000620216BDFF88C904618142EE0
:100FCC00A8BF132630208DF810000DF11107012E4B
:100FDC003CDBDDE9020100F0CFFB07F10801042244
:100FEC000A23B0FBF3F303EB8307A0EB470030308D
:100FFC0001F8010C0A20B3FBF0F000EB8007A3EB27
:10100C0047033033521E01F8023DE9D1083E012E50
:10101C0001F10807DBDBDDE9020100F0ADFB00F0BC
:10102C00CBFB02460B46DDE9020100F0D3FB0022AC
:10103C004B4600F08FFCCDE90201CAE7A086010007
:10104C00000024400000F03F84D797410DF11100BF
:10105C00381A0DF1110702E0401E6D1E7F1C397805
:10106C003029F9D0BBF1660F02D12DB2691C04E016
:10107C00BBF1650F0CBF01210021226B8E1836B21B
:10108C00B042B8BF064636B231001AD4814204DAF7
:10109C00C85D3528A8BF392000DA3020CA19521E85
:1010AC0000E0761E12F80139491E8342F9D0392826
:1010BC0002D1C85D401CC855002902D57F1E761C84
:1010CC006D1C2DB29DF83810009533B23A4620466F
:1010DC0000F003F80FB0BDE8F08F2DE9F0430546A2
:1010EC0085B01E46D5F83080012E8946174602DAA7
:1010FC0001260FF2902749F02000BDF930406628F8
:10110C0008BF641C17D0672840F0828014F1040FCC
:10111C00C0F28480444580F2818095F83800641CCC
:10112C00000702D44645B8BFB04624B2B8EB040859
:10113C0048BF4FF0000824B2E868A969012C25DAF1
:10114C004A1C30230B54B8F1010F03DA95F8381010
:10115C00090702D52E211154521CAA6118EB040F59
:10116C00B8BFC8F1000424B26142A0446962B04522
:10117C00B8BF4646AB6936B2EE61324639461818EE
:10118C0000F0D2F9A8EB0600A862C0E00818A6424D
:10119C0018DA3246394600F0C7F9A9697118A01B54
:1011AC00B8F1010FA961686203DA95F838000007FD
:1011BC0005D5EA682E208854E869401CE861C5F81A
:1011CC002880A4E02246394600F0AEF9A869201820
:1011DC00361BB8F1010F03DA95F83810090703D55F
:1011EC00EA682E218154401C36B2A861B045B8BFC4
:1011FC004646E868AB6936B23246E119181800F079
:10120C0093F9A8693018A861A8EB060068627EE023
:10121C00B9F1610F16D14FF0700918E0464504DAA8
:10122C0095F83810090758BFB046B8F1010848BF07
:10123C004FF00008B9F1670F14BF4FF045094FF09C
:10124C00650904E0B9F1410F08BF4FF05009A969D5
:10125C00E8684A1CAA61B8F1010F17F8013B0B545E
:10126C0003DA95F83810090717D5531CAB612E21FA
:10127C001154B8F1010F10DB761E36B2B045B8BF71
:10128C00464636B232463946181800F04DF9A86970
:10129C003018A861A8EB06006862E868A96909180B
:1012AC00200081F8009003D42B2048708F1C03E0A1
:1012BC002D224A708F1C644200260DF1080808E0AC
:1012CC000A22684600F043FD019808F8010B761CD1
:1012DC00009C21B20129F3DA022E06DA49F0200033
:1012EC00652804BF302007F8010B4EB9302007F8F1
:1012FC00010B07E0761E02A8305C303007F8010BBA
:10130C00012EF7DAE868A9690818381AE86195F827
:10131C00380000F0140010280DD16869A96908186C
:10132C00696A0818E9690818A96A0818696B88427B
:10133C00BCBF081A286205B0BDE8F083F8B50446B6
:10134C000D4616461F46002077B116F8011BA868FB
:10135C00A047A86030B1E86A401CE86200207F1EFC
:10136C00F3D1F2BD4FF0FF30F2BD0000686A6C742F
:10137C007A4C00006E616E004E414E00696E660044
:10138C00494E460030000268531C036011707047D0
:10139C000278C9B28A421AB11CBF10F8012FF9E7C2
:1013AC0018BF00207047000000F10103810704D032
:1013BC0010F8011B89B18107FAD10268B2F1013131
:1013CC00914311F0803F04BF50F8042FF6E710F85A
:1013DC00011B11B110F8011BFBE7C01A704700008C
:1013EC00C9B2830706D0521E22D310F8013B994292
:1013FC00F7D11FE0083A13D302F1040241EA0121AC
:10140C0041EA014150F8043B121F21BF4B40A3F1AC
:10141C00013C2CEA030C1CF0803FF3D0C9B2001F36
:10142C00083210F8013B521E28BF91EA030FF8D87E
:10143C0018BF0120401E70471B4213D1094236D100
:10144C002AB18446B0FBF2F002FB10C2704700F0E8
:10145C0085BCFCD30022002370470B000200002146
:10146C0000207047904271EB030CF6D370B5B1FAC3
:10147C0081F4B3FA83F52C1BA340C4F1200532FA96
:10148C0005F63343A2405FF00046E64002E05B08FD
:10149C005FEA3202841A71EB030524BF2046294609
:1014AC007641F4D302000B003000002170BD012AFC
:1014BC00CFD970B5140C20D0B1FA81F4B2FA82F500
:1014CC00C4F120046419B4F12006D6D3B2405FF005
:1014DC000044F440002502E052085FEA3303C61AC8
:1014EC0071EB020E24BF3046714664416D41F3D35B
:1014FC0002000B002000290070BD0C46B1FBF2F17C
:10150C0002FB11452D0445EA1045B5FBF2F402FB34
:10151C00145580B240EA0545B5FBF2F002FB1052BF
:10152C0040EA044070BD000062B38B0708D0521E25
:10153C0011F8013B00F8013B00F024808B07F6D139
:10154C00830740F0208000BF103A07D330B4B1E8D5
:10155C003810103AA0E83810F9D230BC530724BF29
:10156C00B1E80810A0E8081044BF51F8043B40F85B
:10157C00043BD20724BF31F8022B20F8022B44BFC6
:10158C000B7803707047083A07D3B1E80810083A93
:10159C0040F8043B40F804CBF7D25307E4E730B4EF
:1015AC00436803F0004201211B031B0B436004BF83
:1015BC000368002B08D10DE00368DD0F45EA4404F5
:1015CC0044605B000360491E4468E302F4D52303C6
:1015DC001B0B436043681A434260084630BC70479B
:1015EC004FF4001C1CEB410F94BF1CEB430F09E0A4
:1015FC0041EA030C50EA4C0C52EA0C0C03D299420F
:10160C0008BF9042704714BF8B4282427047000063
:10161C004FF4001C1CEB410F94BF1CEB430F09E073
:10162C0041EA030C50EA4C0C52EA0C0C03D28B42EC
:10163C0008BF8242704714BF994290427047000025
:10164C0070B504460D466068C0F30A5040F2FF7155
:10165C00884207D16068000304BF2068002817D0B7
:10166C00022070BD20B92046FFF799FF012866DAE9
:10167C00012D0FDB40F2FF71091A8D420AD360680D
:10168C00002847BF00202F4900202F49C4E9000142
:10169C00012070BD4142A942616806DA6FF31E5108
:1016AC00401941EA0050606040E0401E63684519F3
:1016BC00012205F1350062F31F53352801F000417A
:1016CC00636003D361600020206070BD002015F1C1
:1016DC001F0F04DA206823600022203562606A4202
:1016EC0012D0401E25688041C2F12003C0439D40AA
:1016FC0045EAD07025686668D54006FA03F32B439B
:10170C0023606368D340636062680A43B0F1004FA2
:10171C00626003D80DD12078C0070AD52068401C20
:10172C002060206828B96068401C60604FF0FF3072
:10173C0070BD6068884204BF20680028F6D1002084
:10174C0070BD00BF0000F0FF0000F07FF446400DBC
:10175C0040EAC120490006D200F014F8004248BF0C
:10176C006FF00040604700F00DF84FF000418842E8
:10177C008CBF084640426047400D40EAC1204900FA
:10178C0080F00D8040F00040490DA1F58061491CAE
:10179C0005D4D1F11F0154BFC840C01770474FF09A
:1017AC0000007047010040F10980F446404200F00F
:1017BC0005F851F000416047010000BF09D0B0FAB4
:1017CC0080F18840C91CC1F58461090501EBD02169
:1017DC0040057047F0B44FF0004591EA030F44BF49
:1017EC006B4000F0BDBA00BF841A71EB030604D243
:1017FC006E40001BB141121973414FF4001C1CEBDD
:10180C00410F34BF7CEB430684E00C0DA4EB135664
:10181C00362E7DDC012E43DC45EAC32343EA5253CA
:10182C0012BFD20292025B08240545EAC12141EAAB
:10183C005051D2EBC020994125D407D1B0FA80F693
:10184C0010FA06F164D00020203608E0B1FA81F6D7
:10185C00B140C6F1200220FA02F21143B0404FEA27
:10186C00F474B4EB465434F001064FEA74040AD80D
:10187C00D6F50016760D04F00044F04061FA06F23D
:10188C005040F1404840C00A40EA415021F000412C
:10189C0028BF5FEA500550F1000044EBD12137E03E
:1018AC0045EAC323DB0A45EAC121C90AB6F1200582
:1018BC000EDD42EA0242120CC5F1200603FA06F6CE
:1018CC00EB4042EA06056D42984161F100010DE0E2
:1018DC0062FA06F5F240554063FA06FC82EA0C0205
:1018EC00F3405A406D42904161EB030111F4801FAB
:1018FC0005D1641E620502D06D004041494121F4BE
:10190C008011430875F1004350F1000041EB045184
:10191C00F0BC70471CEB410F15D223F0004352EA88
:10192C0043060BD04FEA4C0CBCEB410F04D80C0D0A
:10193C00661E342EB7DDEBE7801A994150EA41065A
:10194C0008BF0021E4E708BF1CEB430F28BF6FF072
:10195C000001DDE7B0B581EA030C0CF0004C40F25D
:10196C00FF7515EA11541DBF15EA1357AC42AF426F
:10197C0039E0E41923EA455343F48013C90241F0DA
:10198C00004141EA505EC7021100A7FB0202002889
:10199C004FF00000EEFB01204FF00001E3FB0721AC
:1019AC0018BF42F00102401800214941E3FB0E012F
:1019BC00A4F580640F0302D252004041494154F116
:1019CC0001046CDD470872F1004250F1000051EB4C
:1019DC000451A1F580115CBF41EA0C01B0BD4CEA89
:1019EC0005510020B0BD05EA1357AC4214BFAF42FD
:1019FC0041E050EA410E1CBF52EA430E02E0614640
:101A0C000020B0BD24423C441BD15FEA070EF6D047
:101A1C00090302BF01460020AEF1140EB1FA81F7A2
:101A2C00AEEB070401FA07FE0C37C7F1200100FAF0
:101A3C0007F7C8404EEA000E23EA455343F48013DF
:101A4C00A2E733F00043B3FA83F704BFB2FA82FE85
:101A5C0077440B3FE41BB7F1200E2FBF02FA0EF3B5
:101A6C00BB40C7F1200E22FA0EFE38BF43EA0E032C
:101A7C00BA40641C82E750EA410E14BF52EA430E8E
:101A8C006FF000014FF4001717EB430F8ABF194694
:101A9C0017EB410FB5E74CEA05510020B0BDD4F16E
:101AAC000104B4F120070FDAC4F12007520828BF53
:101ABC0042F0010210FA07F501FA07F7E1BF2A43D9
:101ACC00E0403843E1400FE0352C98DCC7F12004AE
:101ADC0052EA400220FA07F218BF42F0010231FA32
:101AEC0007F0A1400A43002172F1004250F10000BE
:101AFC0051EB0C01B0BD00002DE9F04140F2FF7537
:101B0C0081EA030C0CF0004C15EA11541DBF15EAC8
:101B1C001357AC42AF42E9E0BC41C1F31301C3F32C
:101B2C001303801A994143F4801304D2641E4000BD
:101B3C00494180185941C90241EA5051B1FBF3F6B1
:101B4C0003FB1611A2FB0675D7EBC020A94102D2EC
:101B5C00761E80185941C90241EA5051B1FBF3FE7F
:101B6C0003FB1E11A2FB0E75D7EBC020A94103D2BB
:101B7C00AEF1010E80185941890241EA9051760567
:101B8C0046EA8E2EB1FBF3F603FB1611A2FB06758B
:101B9C00D7EB8020A94102D2761E80185941C90288
:101BAC0041EA50514EEA060EB1FBF3F603FB161157
:101BBC00A2FB0675D7EBC020A94102D2761E801875
:101BCC005941C90241EA5051B1FBF3F703FB17111C
:101BDC00A2FB0735D3EBC020A94167F100070CBF6E
:101BEC00004247F0010766F3D5274FEA1E31B808CB
:101BFC0014F5806414DDBD0775F1004250EB0E50F6
:101C0C0051EB045111F5801F5CBF41EA0C01BDE89A
:101C1C00F0814CF07F6141F0E0410020BDE8F081A3
:101C2C00BD076D0840EA0E5041F48011D4F1010457
:101C3C00B4F120060ADAC4F120060200E04001FAF1
:101C4C0006F3E1401843B24015430EE0342C14DC8B
:101C5C00C6F1200445EA40056D0820FA06F215434A
:101C6C0021FA06F0A1400D43002175F1004250F11C
:101C7C00000051EB0C01BDE8F08100205FEA0C0183
:101C8C00BDE8F081CFB992185B41B3FA83F704BF7A
:101C9C00B2FA82F6BF190B3FB7F120062FBF02FA3A
:101CAC0006F3BB40C7F1200622FA06F638BF3343D1
:101CBC00BA401CB1E419641E2FE77F4231F0004199
:101CCC00B1FA81F404BFB0FA80F6A4190B3CB4F15C
:101CDC0020062FBF00FA06F1A140C4F1200620FA1D
:101CEC0006F638BF3143A0403C1B16E7AC421ABF86
:101CFC0005EA1357AF4214E050EA41061CBF52EA02
:101D0C004306BFE750EA4107304661461CBF41EA33
:101D1C000551BDE8F08152EA430C08BFC143BDE850
:101D2C00F08100204FF4001616EB410F98BF16EB14
:101D3C00430F08BF16EB410F24BFC14305E016EB60
:101D4C00430F0CBF61464CEA0551BDE8F08191FB95
:101D5C00F2F303FB1211C0E9003170477047000029
:101D6C00841A71EB030603D2001BB14112197341A3
:101D7C004FF4001C1CEB410F34BF7CEB430443E0DD
:101D8C000C0DA4EB1356352E50DC45EAC323DB0AAD
:101D9C0045EAC121C912B6F120050DDD63FA05F63D
:101DAC00EB4086EA0305124218BF45F00105C01846
:101DBC0051F100010CD213E062FA06F5F2405540E5
:101DCC00F3415A40B340F3405A408018594107D36D
:101DDC0049085FEA30005FEA350528BF45F0010588
:101DEC0001F58011420875F1004250F1000041EB01
:101DFC000451F0BC4FF4001C1CEB410F38BF704772
:101E0C000020090D090570471CEB410F10D252EA56
:101E1C0043060BD0BCEB410F05D80C0DAB43661E33
:101E2C00342EB5DD02E0AB4380185941F0BC70474D
:101E3C00F0BC7047DFF800F0E3BF0110DFF800F0F2
:101E4C0025C20110DFF800F0F5C00110DFF800F03A
:101E5C0049BA0110DFF800F0C1C20110DFF800F040
:101E6C0013C10110DFF800F0D5C00110DFF800F04D
:101E7C0095C00110DFF800F00DA80110DFF800F09C
:101E8C00BDBE0110DFF800F02DBF0110DFF800F02F
:101E9C00E1B50110DFF800F021C10110DFF800F00E
:101EAC00D5C20110DFF800F0D9C20110DFF800F044
:101EBC00F1C50110DFF8D400007D704738B5DFF8AC
:101ECC00D400DFF8CC500068EFF3118480F3118854
:101EDC00A8680021FFF7CAFF6969081AA96981423D
:101EEC0038BF002084F3118832BD00002DE9F04189
:101EFC00DFF8A000DFF898400768EFF3118887F34C
:101F0C001188A0680121FFF7B1FF0121A1830021F5
:101F1C00E183656921682268461B801A691A884228
:101F2C0004D20020A08388F311882AE088F311885A
:101F3C00002005E04519361A29460120FFF79AFFC3
:101F4C008642F7D2EFF3118887F31188E18B0129D0
:101F5C0003D129460020FFF78DFFA16910F1010F75
:101F6C0008BF084603D0801B814238BF0846411980
:101F7C00FFF784FF012020840020A083256088F3D4
:101F8C001188BDE8F081808A70470000A401002010
:101F9C007801002028930000DFF8041009687047CE
:101FAC002893000000F016BE80B5002301223421D6
:101FBC00DFF8E80901F0CCF800B10120C0B202BD95
:101FCC00DFF8BC1A0A68002812BF42F00100500862
:101FDC0040000860704700007047FEE710B582B003
:101FEC00042001F0E9F8022818BF03280DD10320C2
:101FFC0000901C234FF040520021DFF8A00901F0A3
:10200C0084F8BDE81640042066E0DFF89419DFF888
:10201C00940A09680C18DFF88C19DFF88C0A096827
:10202C00B0FBF1F12046FFF715FF2046BDE8164046
:10203C00FFF700BF80B5DFF870090078DFF86C0996
:10204C0001688908890041F00101016001F0C1F8C3
:10205C0001F04BF9DFF85819002008600220DFF876
:10206C008C190968C9688847DFF8540A016849085F
:10207C004900016000F017FA042000F00FF900F09D
:10208C00B2BC00000022012904D1012807D1DFF8DD
:10209C00600903E0012802D1DFF82C0A026810461F
:1020AC007047DFF8000A00797047000001F0A6B80D
:1020BC0010B5DFF83C160968EFF3118481F3118831
:1020CC00DFF8E019C9880120012908BFFFF76CFF70
:1020DC0084F3118810BD000030B5DFF81416DFF85A
:1020EC0088390A68EFF3118182F31188B0FA80F213
:1020FC00C2F11F02D25CB0FA80F4C4F11F04551E69
:10210C00E55405D1DFF89C29136823EA0000106020
:10211C0081F3118830BD00002DE9F041FFF73CFF41
:10212C00EFF3118481F31188DFF88019425C531EA0
:10213C00435444D1DFF87819DFF8788901EB800536
:10214C002E786F88300618D5D8F80010096A3846F2
:10215C008847D8F80010896A38468847D8F80010A4
:10216C00096B38468847DFF8501901200860DFF802
:10217C004C0900688007FAD514E0700606D5DFF824
:10218C00B01951F82710002088470BE0D8F8001040
:10219C00896938468847D8F80010496B3846884713
:1021AC000228F8D106F03F003F2818BFFFF7B4FF14
:1021BC00687800F03F003F2818BFFFF7ADFF84F3AD
:1021CC001188BDE8F08110B508B1140001D10320CD
:1021DC0010BD8160C26003610146DFF8E828DFF8BA
:1021EC004C0912681018FFF74DFE002010BD0000BE
:1021FC00F8B50446DFF8F804DFF8B0180068EFF320
:10220C00118580F31188625C531C6354002A3ED103
:10221C00DFF89C1801EB8407387800F03F003F286A
:10222C0018BFFFF7E5FF787800F03F003F2818BF94
:10223C00FFF7DEFF7E883878DFF87878010613D553
:10224C003968C969304688473968496A30468847D1
:10225C003968C96A3046884700F038F8DFF85C08FE
:10226C0000688007FAD512E0400606D5DFF8C018E2
:10227C0051F826100120884709E039684969304631
:10228C0088473968496B304688470128F9D185F36E
:10229C0011882046BDE8F24001F084B9DFF85014F3
:1022AC000A68EFF3118182F31188DFF8F8271368BD
:1022BC0003431360B0FA80F0C0F11F00DFF8A827C9
:1022CC00835C5B1C835481F311887047DFF8E8173B
:1022DC0001200860704700002DE9F04F83B04FF0EB
:1022EC00000800210128C1468A4618BF022412D1D9
:1022FC00DFF8FC03DFF834780268EFF3118082F327
:10230C0011883A79012A06BF02223A71012180F321
:10231C00118809B10624BDE0FFF794FD009001205F
:10232C0000F0E6F8040002D001203871AFE0FFF7AE
:10233C0099FDDFF828180190C1F80090012000F0F9
:10234C003BFF012804D1002001F00CF94FF00108EB
:10235C00DFF8E047DFF85457216889680020884788
:10236C0000F0A1F8687C08B14FF00109287C08B195
:10237C0049F00209E87B08B149F00409E87ADFF872
:10238C00306718B1A16AF08D096B8847A87A18B12B
:10239C00A16A708D096B8847FFF798FF49F0200000
:1023AC00A16A896988470120FFF70AFE3878C007BF
:1023BC0048BF4FF0010A12D4DFF8980701F01EF95C
:1023CC008346BBF1040FF7D000F067F8800880005B
:1023DC0008600321A26CDFF87C075268904700204C
:1023EC0001F014F900F05FF8A06A806B8047BAF135
:1023FC00000F0AD1A26CDFF85C075268594690476F
:10240C0000F04BF840F00300086001202168896857
:10241C008847DFF8440700688006FAD5B8F1000F4A
:10242C001CBF012001F09EF8A16A49694846884703
:10243C00A16A496B484688470128F9D1E87A18B156
:10244C00A16AF08DC96A8847A87A18B1A16A708D03
:10245C00C96A8847FFF73AFF0020FFF7B1FD032058
:10246C003871042000F044F8DFF8F0160120086001
:10247C0000F019F801F0D8F9082000F039F80446FA
:10248C00012038710198FFF701FD01F058F900980F
:10249C00FFF7DCFC2046BDE8FE8FDFF8D006DFF846
:1024AC00CC1600687047DFF8A8060068704700007B
:1024BC0038B58F48DFF874560068EFF3118480F359
:1024CC001188E888012803D100F0ECFE0020E88098
:1024DC0084F3118831BD000010B5FFF75DFDEFF3FB
:1024EC00118481F31188FFF7D5FC84F3118810BD9A
:1024FC0038B500F02AF80818FFF7B0FC002540B9F1
:10250C00204600F008F820B1DFF868060068804724
:10251C000225284632BD70B500F017F80D18284674
:10252C00FFF7BCFC0646B068204206D03169F26861
:10253C0020469047C0B2012806D03046FFF7B2FCC7
:10254C000646AE42EFD1002070BDDFF87815096861
:10255C000446DFF8D805704730BF704770B501F0FE
:10256C005FF9DFF840552E6806F00C000C284BD0B4
:10257C00700727D4FFF7A2FC044600210120FFF7C7
:10258C0081FDA0421ED2DFF8C00300684519DFF8B8
:10259C0014040668DFF8D8050068B0FBF6F0211AC1
:1025AC002846FFF757FC2846FFF744FC4FF47A7097
:1025BC00B0FBF6F200210120FFF78EFE2846FFF754
:1025CC003DFC23E030071FD4DFF8F404DFF8E444CB
:1025DC00DFF87C55F10601685ABF4908490041F003
:1025EC0001010160DFF88405016841F0030101601D
:1025FC00202021688969884728682068806B80477B
:10260C0001202860286801E0FFF7A6FF01F00CF913
:10261C00BDE8704001F0BEB810B50C1801F000F91F
:10262C00401E8041C00FDFF860150A68002AFCD0FC
:10263C00246801220A6008B101F0F6F8204610BDAA
:10264C0080B50420FFF72AFE0820FFF727FE0E2096
:10265C00FFF7CEFDDFF82005DFF820150068C0F38A
:10266C00815003280CBF012000200880DFF81005E2
:10267C0002680AB1012002BDDFF8103540221A6051
:10268C000122C2610020486002BD10B5DFF85C1366
:10269C00DFF8F04482B009680968202088470F20D1
:1026AC002060072341F61D5060604FF4C072022079
:1026BC00009000F0C9F8DFF8D8040121016001682E
:1026CC008907FCD501212161DFF8B044218801295B
:1026DC0007D1002101610220202100F091F8012096
:1026EC0004E00121002000F08BF80220606013BD93
:1026FC00289300002DE9F041DFF89804DFF87C44C2
:10270C0082B0016842688A434260016160680028B7
:10271C0004BFBDE8F341FFF7B8BF0128DFF8781418
:10272C001AD10220606008684BF2F5214843618899
:10273C00000A11B10021618006E0DFF8601409681D
:10274C00090210EB11204008DFF854140860000C4B
:10275C004860012088600CE002280FD10868B0F5B1
:10276C00C06F02D10020606045E00321616000F081
:10277C006FF80121BDE8FC41002041E003283DD168
:10278C00002060600868A0F5C065A06800F0B2F891
:10279C000646284600F0AEF886422CDAA669284692
:1027AC0000F0ACF88019A061E56860697B4E854249
:1027BC000ED0A769A7F1100000F09CF880462069A4
:1027CC00103800F097F8804502DABFB200970BE0A2
:1027DC00ADB2009508234FF47F423021304600F013
:1027EC0094FC206980B2009012234FF4F80204216B
:1027FC00304600F08AFCBDE8F3418AE0BDE8F38185
:10280C0070B50D46DFF89C4382B003212160002196
:10281C00DFF89463316031688907FCD480B2009092
:10282C000523602200F010F801203060306880072A
:10283C00FCD5A561002020600821DFF85003C160A1
:10284C0001600120206073BD0021544800F05DBC84
:10285C0070B50646514C82B030212046FFF7DCFEA5
:10286C00DFF81853C0F30720E86004212046FFF777
:10287C00D3FEC0F384402861A6F5C060A8602E6921
:10288C0000F03CF88019A861A969E868022909DA06
:10289C00401E6FF03F039842B8BF184610310BD55D
:1028AC00002109E01E2908DB401C4028A8BF3F205E
:1028BC0010392029A8BF1F21A9616861082380B2A3
:1028CC0000904FF47F42302100F011F8012000906D
:1028DC0011234FF4003200F009F8A86980B200907F
:1028EC0012234FF4F80200F001F873BD04212046C6
:1028FC0000F00BBC002848BF4042704700284CBF7A
:10290C006FF00101022101EB4000032190FBF1F07B
:10291C00704780B5DFF878020021016001688907F3
:10292C00FCD40021016041600120DFF854120860E2
:10293C000E20FFF7F1FB0820FFF7CEFBBDE80240AD
:10294C000420FFF7C9BB00000C93000010B504462F
:10295C000020D4E90A2347F69061FEF76DFD0129AA
:10296C0028BF4FF0FF3010BD10B50C4600F064FFCF
:10297C00011D201AB0F1004F05D8081BB0F1004F13
:10298C0038BF8C4200D20C46DFF820221268526A03
:10299C002146BDE8104001201047000000A00C406B
:1029AC00109300002C930000ED27002004400340FE
:1029BC00401009402DE9F04180460A46D8E90A0149
:1029CC00D8E90C45A0FB026701FB0277A6196F4101
:1029DC00340C002244EA07414046FFF7C5FFC8E922
:1029EC000E67BDE8F0814FF0FF3002BDA001001072
:1029FC001C930000F8B50546DFF8B801DFF8B861A4
:102A0C000068DFF8B871EFF3118480F31188306837
:102A1C0040F0800030600120B96849688847F96A45
:102A2C00096A142088472869B0F5802F34BF042127
:102A3C00010CBA68526A012090473A681268232147
:102A4C0000209047B968C96901208847306820F494
:102A5C00E02040F480303060306840F0010030609D
:102A6C0084F31188F1BD0000C8270020DFF8540161
:102A7C00036840680022002110185941704700007B
:102A8C000C200840DFF82411DFF8240110B5096888
:102A9C0044684968012088476069A169BDE8104015
:102AAC0008470000C4060020A086010074270020FF
:102ABC00208F0000B8010010282008602820084052
:102ACC008C2108401493000020930000F8B50446B4
:102ADC000D46FFF7CBFFD4E90A6732463B46FEF7BB
:102AEC00ABFC3DB1A6FB002306FB013307FB003317
:102AFC00C4E90C23F2BD38B5DFF8BC40DFF8C05098
:102B0C002068400840002060206840F08000206071
:102B1C000120E062E06A2968496801208847696AF7
:102B2C00096A14208847E06A31BD0000C406002001
:102B3C002C0B00209001001080B500F004F8000C64
:102B4C0040EA014002BDDFF8800000688EE700001B
:102B5C002C20094000400340141009400C4009404F
:102B6C0009B9DFF86810FFF7A1B90000242208406A
:102B7C002493000018930000B43F0050880A0020F2
:102B8C0004800C400C400C4000800C402C500C403D
:102B9C0034600C4028500C4008400C401020094078
:102BAC003C600C4000400C4038600C408C01001024
:102BBC00E40100202893000000200940840100104B
:102BCC008C01001008200940EC010020A00100003D
:102BDC00FEE7704710B5DFF86404046814F1010FC8
:102BEC0008BF002400F09CFEDFF85414002008609D
:102BFC000120DFF850140860DFF84C140860DFF88F
:102C0C004C04006828B1DFF848040068204600F046
:102C1C0023F8DFF84004DFF84024016889088900B4
:102C2C0041F0005141F005010160DFF8300401680A
:102C3C006FF31B4111430160DFF824040168C1F3F9
:102C4C000131012907D10168DFF81824114041F442
:102C5C0000320260016010BD2DE9F84F0446DFF828
:102C6C00081401200860DFF8040401680029FCD076
:102C7C00DFF8FC53DFF8FC83C0202860D8F80CA0E8
:102C8C00D8F80810DFF8F00389075DBFD8F80410F6
:102C9C00090C41F0F00172210170DFF8E0130968B2
:102CAC00D8F80C20C1F304611629A8BF203901EB18
:102CBC002271491C6FF009029142B8BF114601F014
:102CCC001F0141F4F8510183CAF3C061DFF8B0036E
:102CDC0081F001010160CAF3806181F00101816022
:102CEC0014B9DFF8A0732DE0DFF89C030068C0F383
:102CFC0083615FEA8A32C0F38F2021D44FEA0A4203
:102D0C0012160AD54FF6FF73400804D1184649082D
:102D1C0004BF01210120521CF6D4012A10DB400013
:102D2C0040F00100B0F5803F21BF0120490041F087
:102D3C000101102924BF0F214FF6FF70521EECE742
:102D4C0040EA014700F06CFD401E8041C00FCF4EA1
:102D5C0031680029FCD0DFF83893C9F810700121D4
:102D6C00316008B100F060FD0CB9D82008E0C64A0B
:102D7C0010681168C0F3870001F0030140EA0120DC
:102D8C00009040F2FF3700233A462C21C14800F056
:102D9C00BCF91CB1BC48C06A8704BF0C00F040FDF4
:102DAC00401E8041C00F31680029FCD0C9F8147056
:102DBC000121316008B100F037FD002C0FBFB64F78
:102DCC00B148406A20F0033700F02AFD401E8041D4
:102DDC00C00F31680029FCD0C9F80C70012131609A
:102DEC0008B100F021FD0CB9AC4F04E0A648AC4989
:102DFC00006A01EA000700F013FD401E8041C00F7D
:102E0C0031680029FCD0C9F808700121316008B183
:102E1C0000F00AFD0CB9A34F20E09B48806AD8F85B
:102E2C000830DB07C0F30352C0F303410BD4D8F8CE
:102E3C0004301F0502EB27721B0482F3040201EB22
:102E4C00237181F30401090441EA025182B242EA7E
:102E5C000107222C24BF00F08040074300F0E0FC67
:102E6C00401E8041C00F31680029FCD0C9F80470A5
:102E7C000121316008B100F0D7FC2220222C824FB6
:102E8C0006D3F86B000F00F00100400040F020006A
:102E9C00854908721120222C05D3F86B400F00F0E5
:102EAC00010040F01000202C08724FF0000B07D3EB
:102EBC00B86CC10C01F44071C0F3845040EA010BB2
:102ECC0000F0AEFC401E8041C00F31680029FCD0E0
:102EDC00C9F820B00121316008B100F0A5FC6020D8
:102EEC00202C06D3B86C000D00F00300400040F01D
:102EFC0060006D49C8728020222C06D3F86BC00E7E
:102F0C0000F00100C00040F080000870222C4FF44B
:102F1C007C4006D3F86B400D00F03F00800040F47D
:102F2C007C406249DFF888B10880202C0AD3B86C49
:102F3C000203810A02F47C1242EA815100F00F0074
:102F4C0041EA003B00F06CFC401E8041C00F316830
:102F5C000029FCD0C9F800B00121316008B100F0A3
:102F6C0063FC544844210170882181700CB93021D4
:102F7C0005E0F96BC90C01F0030141F03001C1709F
:102F8C004FEA9A5010F0030003D002283CD012D321
:102F9C003CE00121042000F0EDF843F2BD70E86341
:102FAC008620286401206864434801680029FCD00D
:102FBC00002068642EE0012000F0FEF80446214653
:102FCC00042000F0D7F8042000F0F6F8A042FAD163
:102FDC00D8F800301802000A81B2E963000C2864AA
:102FEC0001206864344801680029FCD00020686422
:102FFC004FF06022180E314B1B681B680721984755
:10300C004FF48060C9F83800032100E0022104204D
:10301C0000F0B0F8F8692A4900F03F00087047F654
:10302C0018002849088010492748006800202860AB
:10303C000860012025490860BDE8F18F1C13005081
:10304C00840460425C600C400822044380012843E5
:10305C000001204304400340000039014820034094
:10306C0004000940FFFFFCFC1010094094022243AD
:10307C0000600C40A83F005056620840B812005047
:10308C0000002043FF0F0F005013005000800C4035
:10309C0008A00C4000A00C40000088688A766800EC
:1030AC00FFFFFC00273F710041A10C40DCA10C404C
:1030BC0000803F4005A10C4084088C43B4010010F3
:1030CC000BB00C4070B00C402C20094094046042B2
:1030DC0038B504460D4600F0A3FB401E8041C00FDE
:1030EC001A490A68002AFCD0012D02D0022D02D008
:1030FC0003E0247802E0248800E0246801220A60BE
:10310C0008B100F091FB204632BD38B500EB410010
:10311C00102B00F5007402D3103B241D120C0498E4
:10312C00984040EA024500F07BFB401E8041C00FF6
:10313C0006490A68002AFCD0256001220A60002892
:10314C001CBFBDE8314000F06FBB31BD00800C40AE
:10315C0038B51D460818102D144602D3103D801C9E
:10316C00240C0221FFF7B4FF04EA000188B2E84006
:10317C0032BD000038B50446E0070D4607D5A8B2AD
:10318C0000900023012200216B48FFF7BEFFA0072F
:10319C0007D5A8B200900123022200216648FFF750
:1031AC00B4FF600707D5ADB2009502230C220021B5
:1031BC006148FFF7AAFF31BD0146042907BF1D2353
:1031CC004FF0C0421C234FF080525B483421FFF774
:1031DC00BFBF10B5594C21688968012088475848F1
:1031EC0001688906FCD52169096840208847216956
:1031FC008968402088471128F9D110BD70B5054663
:10320C0000F01AFB4F4C6168401A4FF47A71484336
:10321C00060C00F08FFB2169401A48BF404271191F
:10322C0040F6B932914207D2062805DAA068E16867
:10323C00814201D3226852B943494A68D2074FF4FC
:10324C00FA6016D40868C0B27D21484308E0081A19
:10325C003E494843000C00EB9000904238BF1046AA
:10326C00C82801D2C82070BDB0F57A6F88BF4FF462
:10327C007A6070BD10B582B00120009000232E4CF6
:10328C00012219462046FFF740FF0120009003461B
:10329C00022200212046FFF738FF00F0CDFA294921
:1032AC00886013BD80B50120FFF786FF01281AD076
:1032BC000023012234212048FFF74AFFA0B1244803
:1032CC000068804700F0B8FA1E498B680A68C8602D
:1032DC00A2EB9202C01A1D4B5843000C086090429E
:1032EC0038BF10460860012002BD10B582B0002026
:1032FC0000900146104C002301222046FFF705FFE9
:10330C00002000900146012302222046FFF7FDFE1B
:10331C001C234FF0805234212046FFF719FF10B1C7
:10332C000B4800688047074C00F086FA606000F09C
:10333C0001FB206113BD000000A00C4090010010A7
:10334C001410094088270020AC3F005040420F0069
:10335C0080000010DFF800F049C10110DFF800F028
:10336C0019C20110DFF800F00DC30110DFF800F0F6
:10337C0081C60110DFF800F095B70110DFF800F0FE
:10338C008DC20110DFF800F03DC20110DFF800F033
:10339C0009C30110DFF800F045C00110DFF800F0A0
:1033AC00D1C70110DFF800F067BE0110DFF800F0A4
:1033BC0021B30110DFF800F011C80110DFF800F0A4
:1033CC0021C801100C2811D0192814D01D2817D091
:1033DC0020281AD021281DD0252820D02A2823D0F7
:1033EC002B2826D02C2829D000207047DFF8E401A8
:1033FC00006800687047DFF8DC01006840687047BF
:10340C00DFF8D001006880687047DFF8C8010068F9
:10341C00C0687047DFF8BC01006800697047DFF8CE
:10342C00B401006840697047DFF8A8010068C06902
:10343C007047DFF8A0010068006A7047DFF894015C
:10344C000068406A704700B58BB00A216846FFF7E8
:10345C0089FF0BB000BD00B581B0FEF7A3FDDFF80E
:10346C007801DFF878110068884218BF00F034F852
:10347C00DFF86C01B0F5B26F03D001B05DF804EB6E
:10348C002BE001B000BD00B581B00FF22100FFF7B9
:10349C006DFFFFF76FFFFFF771FFFFF773FF01B0D1
:1034AC005DF804EBFFF772BF0000000000B581B0BF
:1034BC00FEF7D8FCFEF7C6FC01B05DF804EB032068
:1034CC00FFF768BF10B504460320FFF763FF2046E3
:1034DC00BDE81040FFF762BFFEE7FEE700B581B024
:1034EC00FFF760FFDFF8FC00C06801B05DF804EB8B
:1034FC00FFF75CBFDFF8F010DFF8F0008861704771
:10350C00DFF8EC1001280CBF40F2FF7000200860BF
:10351C000020704730B581B0FFF71CFFDFF8D450A6
:10352C000446E88820B1FFF7BDFE60B10020E880BA
:10353C00FFF786F805461020FEF7DAFF012D0BD1B8
:10354C00FFF7A3F808E0052105F13000FEF782FC37
:10355C0005F13000FEF76EFC204601B0BDE83040AE
:10356C00FFF7FCBE10B5012818D1FFF725FE012886
:10357C0016D0FFF77FFEDFF87C400120E08004F1DD
:10358C003000FEF75BFC052104F13000FEF762FC15
:10359C0004F13000FEF74EFC002010BDFFF7A5FE35
:1035AC00002010BD10B501240E2805D10120FFF715
:1035BC0003FE012805D003E0DFF83C10405C00B9A5
:1035CC000024204610BD00207047FFF7F3BEFFF724
:1035DC00F5BE0000F001002098CA011070472820A9
:1035EC009005000078010020440100200004000038
:1035FC0000000460C4060020742700200068010746
:10360C0001D50420704700F003007047F8B505465B
:10361C007748784C0068800705D50820A07176495A
:10362C0076480860F1BD00F085F9754A12680021F2
:10363C0012F0030F18BF0121520748BF41F00201DD
:10364C000DB141F0040194F90720821A052A02DA1F
:10365C00A279914259D0A0F10F0200250023002A33
:10366C001FD402EB02121312082B28BF07231D468E
:10367C00072D28BF0625634E06EB850756F8255007
:10368C007F687E1BF5B24F0744BFC6F307277D1931
:10369C008F0744BFC6F307477D19CF0748BF05EB1B
:1036AC001665584E56F82370FEB25FEA417C44BF53
:1036BC00C7F3072C66445FEA817C44BFC7F3074C11
:1036CC0066445FEAC17C48BF06EB1766A2EB032297
:1036DC006A434D4B1D681B68A1718032092A9241C7
:1036EC002D17C5F108053427D243DBB27D436B435C
:1036FC0006EBD272B3FBF2F2B2F5803F28BF4FF665
:10370C00FF7200F30700A280E07140480068A188B6
:10371C00206000201F2904D21F21A18004E0490849
:10372C00401CB1F5007FFAD20F39090940EAC100FB
:10373C00314A37490843106000205060F1BD10B584
:10374C003448006884B224B300F0F4F8294991F9A4
:10375C000720904205DA6FF07F029042B8BF104606
:10376C00C8718888844201D28C8010BD274A1268A7
:10377C000B68D21A921C202A28BF1F22231A520827
:10378C0023FA02F42018B0F5803F28BF4FF6FF70E3
:10379C00888010BD2048006800B9704710B41F49DC
:1037AC008A6802F04063B3F1406F1ED04B689B07F0
:1037BC001BD40F4B1C680968C1F303511C31090160
:1037CC0014F0050F06D088420FD224F005001860C3
:1037DC0010BC7047814208D2100158BF44F001045C
:1037EC00500158BF44F004041C6010BC704700002A
:1037FC0000000940D027002030100940FDFDA40036
:10380C00242208409C130050B43F0050082009406B
:10381C0000FFA4803410094028500940AC3F0050F0
:10382C00EFF3108072B67047EFF3108062B67047FA
:10383C000138FDD17047704738B5FFF7F1FF0649E5
:10384C000C684D68401E8041C00F18BFFFF7ECFF9D
:10385C00280C40EA044032BD082009402D4800687D
:10386C00000C00F00700032828BF4FF0FF30704712
:10387C0029490968C1F30F314BF69A1291424FF066
:10388C00FF3001D1002070474BF6BE12914201D19E
:10389C00012070474BF62032914208BF022070473E
:1038AC0010B41D491D4B0A681B680968120FDBB266
:1038BC00802B28BF0023C1F30F314BF69A14A14281
:1038CC004FF0FF300CD1012A08D0032A1DD0072A53
:1038DC001DD0082A08BF03F1160013E00A2011E0DE
:1038EC004BF6BE14A14206D1002AF7D0022A09D108
:1038FC0003F1140006E04BF62034A14204BF002A69
:10390C0003F10A0010BC40B270471420FAE71520EE
:10391C00F8E700009412005018130050A01000504B
:10392C0080B5FFF7A5FF18B9FFF7BAFF162800DA24
:10393C00FEE701BD0748084A816812780068C90390
:10394C0052B2A0F54070C9135043A1EB2010803047
:10395C0000127047285009400C130050DFF800F09B
:10396C0041AC0110DFF800F0C1C10110DFF800F02C
:10397C00CDA00110DFF800F085C10110DFF800F0D8
:10398C00D9C10110DFF800F0ADB50110DFF800F07F
:10399C0019AE0110DFF800F0E5C10110DFF800F0FE
:1039AC0085C20110DFF800F081C20110DFF800F0D1
:1039BC0055C10110DFF800F043C20110DFF800F030
:1039CC0079AB0110DFF800F0D9B60110DFF800F088
:1039DC00EDB3011020B108232C220021FFF7C0B851
:1039EC00704720B108233C220021FFF7C7BF704766
:1039FC0080B5FEF727FAADF80000FFF7ABFCADF889
:103A0C000200009802BD01B5BDF80200FFF7A6FC4C
:103A1C00BDF80000BDE80240FEF718BA38B5DFF873
:103A2C006448DFF864580020A4F86C0AE820208071
:103A3C0040F68410A4F8E80004F1E8006860002067
:103A4C0000F003F8A8606C6031BDF8B500240025C7
:103A5C00061D16F003001CBF311D0E1AFFF7C8FF20
:103A6C00DFF82418B6B20860112EB4BF4F688F6807
:103A7C0039880B0403D581F40041002519E0A5B168
:103A8C0023883A88134423809BB2B34211D3274630
:103A9C001946B7B1891B89B20429A7BFF15346F463
:103AAC000041398841F4004109E0B142F1DA0125C5
:103ABC003C46CF1939880029DBD1002701E027F8D3
:103ACC00041BFFF7A0FF3846F2BD10B50446FFF704
:103ADC008FFFDFF8B417221F086013885B045B0CA0
:103AEC0013804B689A4238BF4A60BDE810408AE7A1
:103AFC0038B50446FFF77CFF00210C23DFF88C2738
:103B0C0003FB0125AA6C4AB1944204D1FFF77BFF59
:103B1C0005F1480032BD491C0329EFD3FFF773FFB1
:103B2C00002032BD70B50546FFF762FF0446002049
:103B3C000C22DFF8581702FB001101F1480631681E
:103B4C0049B90020B06035600022FFF71BFF7060A0
:103B5C0018B900F069FC8D4204D12046FFF753FFE1
:103B6C00304670BD401C0328E3D32046FFF74BFFC3
:103B7C00002070BD38B50446FFF73AFF0025DFF88A
:103B8C000C170C2202FB0512128842B1944203D18D
:103B9C00FFF739FFA8B232BD6D1C062DF1D3FFF72C
:103BAC0032FFFF2032BD10B504462088FFF7E2FF3C
:103BBC00FF2800D16AE1DFF8D4160C2202FB0010BA
:103BCC008168080002D16FF0010010BD2046BDE8ED
:103BDC001040084702460FF2A070104710B50020A5
:103BEC000C21DFF8A826002401FB0023401C03282D
:103BFC009C641C65F8D30020002301FB0024401CAE
:103C0C0006282380F9D3082010800FF2557090609D
:103C1C00BDE8104002E770B590B0FEF713F904460A
:103C2C006846FFF7DEFE0520069000224FF4487030
:103C3C00089069464FF201000490DFF85406059095
:103C4C00DFF85006FFF7A2FE050006D0FFF7D0FE06
:103C5C0006462846FFF766FF08B900F0E5FB30463C
:103C6C00FFF7D1FE2046FEF7F1F810B070BD70B52D
:103C7C0000F0E5F8FFF756FF0546FFF7B9FEA288FE
:103C8C000021DFF808360C2606FB01331E883EB9EE
:103C9C001A805D60A2689A60A1816968216165E7FC
:103CAC00B24204D1FFF7AFFE6FF0020070BD491CA9
:103CBC000629E6D300F0B8FB00BF38B500F0BFF81A
:103CCC00FFF730FF050016D0FFF792FE0021DFF85A
:103CDC00BC250C2303FB012213884BB94FF6F87358
:103CEC001380556000239360A1806968A16015E77B
:103CFC00491C0629EBD300F097FB00BF10B5044616
:103D0C0060680C3080B2FFF7A0FE10B96FF00300B2
:103D1C0010BD6168018100210160FF2181720C30AE
:103D2C00A060002010BD80B540680C3810E080B257
:103D3C008BE610B50446606880B2FFF786FEA06083
:103D4C0000280CBF6FF00300002010BD80B5406848
:103D5C00FFF7BBFE002002BD38B504460D46FFF749
:103D6C0047FE002145F80C1C216811B9256006E0BE
:103D7C00114651F80C2C002AFAD141F80C5CBDE824
:103D8C00324040E62DE9F04104466FF00206E0684F
:103D9C00A0F10C05E0880628BCBFA08806280BDA29
:103DAC00FFF726FEE188DFF8E4840C2707FB01818E
:103DBC00496819B9FFF727FE304617E0FFF723FED5
:103DCC00A0882871E0886871207AA871E088E16881
:103DDC0007FB008040680830FFF7BEFFE08807FB58
:103DEC00008040684068FFF7B9FD0020BDE8F08115
:103DFC0070B500F024F8FFF77BFE10B96FF00400EB
:103E0C0070BD00F10806FFF7F3FD3168002541B1E4
:103E1C000D46A5F10C010A68326000220A60FF22EF
:103E2C008A72FFF7F0FDA560A5F10C010DB9022017
:103E3C0070BD0879A0804879E080002070BD0446F0
:103E4C00FFF7A8BD06280BDADFF840240C2303FB90
:103E5C000020008800281CBF4FF6F872904202D157
:103E6C004FF0FF307047088000207047811D80881C
:103E7C00E8E710B50446E088FFF77CFEFF2800D188
:103E8C0004E0E0802046BDE810407BE74FF0FF30B7
:103E9C0010BD3EB50446FFF7ABFF050017D1A08857
:103EAC006946FFF7CFFF78B1A06802900821ADF802
:103EBC00041001A80321ADF80610DFF8DC138968A3
:103ECC0088476FF005003EBDBDF80000A080284675
:103EDC003EBD10B5DFF8C42312680C464FF47A715E
:103EEC00A1FB00010023FDF7A7FA002902D8B0F1CD
:103EFC00004F02D36FF0020010BD2060002010BDF7
:103F0C0038B5FFF79CFFFFF7F3FD0546FDF7D2FF31
:103F1C00002818BF012800D015B96FF0040032BD7D
:103F2C00606840B9009000996868FFF71FFD401E5B
:103F3C008041C00F32BD10F1010F08BF4FF0FF30B0
:103F4C00F0D000F050F90028EDD032BD80B54068BB
:103F5C00FFF704FD002002BD00F066FA00BF80B53B
:103F6C004068FFF71BFD002002BD80B54068FFF7DD
:103F7C0019FD002002BD80B5FFF718FDFFF71AFDF3
:103F8C00002002BD80B5FDF75DFFFFF7E3F90020CF
:103F9C0002BD10B58CB004466846FFF71BFDE0204F
:103FAC0000F013F808B900F03FFA0BE010B58CB034
:103FBC0004466846FFF70EFDE06800F006F808B905
:103FCC0000F032FA00200CB010BD08900023A1685C
:103FDC0060686A46FFF7F2BC10B50446FFF7F2FCC6
:103FEC006060002010BD0146886849680847F0B53C
:103FFC0007468BB0BC68A84D6CBB0C20FFF725FDA9
:10400C0004006FF003061ED008232422002101A80F
:10401C00FFF7B0FC0020ADF81400069007940023C5
:10402C0079689F4801AAFFF7D1FC206068B9082085
:10403C00ADF800000C20ADF802006846A96888476E
:10404C002046FFF742FD304618E0F868606038699A
:10405C00A060BC600AE02868804706462068FDF72F
:10406C00EDFE3869A0603046696888477968206839
:10407C00FDF7F0FE2068FDF7DDFE00200BB0F0BD73
:10408C0010B5044682B0606800F0ADF820B9009815
:10409C0060602046FFF7ABFF16BD80B5406810B9D5
:1040AC006FF0020002BD0068FDF7C8FE002002BDE3
:1040BC007A49096841600020704750B5044677483A
:1040CC0002686FF00046A6FB020100234FF47A72DF
:1040DC00FDF7B2F9002902D8B0F1004F00D33046F9
:1040EC006060002050BD2DE9F04186B00646FFF718
:1040FC0051FCFFF7FDFC0446002002900025FDF763
:10410C00D9FE002818BF012800D014B96FF00400A4
:10411C0066E0706820B110F1010F03D14FF0FF3051
:10412C00009004E000F05FF85FEA000857D1FFF759
:10413C0049FC00994FF001080F1800E0009000991D
:10414C006068FFF713FC80B303A8FFF751FE5FEA2A
:10415C0000081AD1BDF8100001A9FFF773FE80B951
:10416C00059ABDF81210BDF80400B368984740B129
:10417C00BDF80400B081BDF81200F08105983061E3
:10418C0013E0059902A8FFF7E7FD00986D1C10F1EC
:10419C00010F18BF00284FF00108D0D0FFF712FC18
:1041AC00381A02D000998142C8D2029EFFF720FC37
:1041BC0004F1080756B1314600E0114651F80C2CB9
:1041CC00002AFAD13A6841F80C2C3E60FFF71BFC30
:1041DC00002D03E06068FFF7C1FB6D1EFAD140466D
:1041EC0006B0BDE8F081694673E6F8B5FFF727FE27
:1041FC000546FDF75FFE002818BF01286FF0040686
:10420C0013D0FFF7F5FB0021204A0C234B439F5A98
:10421C004FB19B185B681B68AB4201D1A18041E098
:10422C00491C0629F1D3FFF7EEFB3046F2BDF8B579
:10423C000446FDF73FFE002818BF012802D16FF09D
:10424C000400F2BDFFF7A6FB0546FFF7D1FBA788DC
:10425C000E4A00210C234B439E5A6EB1BE4208D12C
:10426C00991849680968A9420CBF01210021A16075
:10427C0018E0491C0629EDD3FFF7C5FB4FF0FF30C2
:10428C00F2BD0000B00B0020BC2700207C210020D8
:10429C006C0A0020E13B0000200B00202C93000056
:1042AC00F33F0000FFF7AFFB0020F2BD70B50446F2
:1042BC003C20FFF7CAFB05006FF0030611D0FFF797
:1042CC0090FB207AA8610022608928622946E06868
:1042DC0028616068FFF75AFB04462846FFF7F5FB98
:1042EC000CB9304670BD002070BD70B5044624205A
:1042FC00FFF7ABFB05006FF0030613D00823242255
:10430C000021FFF72FFB2079012808BF2876A06831
:10431C0000222946FFF736FBE0602846FFF7D5FB65
:10432C00E06808B9304670BD002070BD10B5044679
:10433C0082B0A06840B9009000996068FFF716FB46
:10434C00401E8041C00F16BD10F1010F08BF4FF089
:10435C00FF30F0D0FFF747FF0028EDD016BD00006E
:10436C004188292902D36FF0010070470FF2140223
:10437C0052F8211008470000B33B0000FD39000043
:10438C00133A00007B3C0000C73C0000093D0000D4
:10439C00333D00003F3D0000593D0000913D0000C1
:1043AC00FD3D00007F3E00009F3E00000D3F0000E1
:1043BC00593F0000653F00006B3F0000773F000055
:1043CC00833F0000913F00009F3F0000E53F00004D
:1043DC008D400000BD400000C7400000793E000049
:1043EC00D98B0000A18C0000F3400000F7410000C5
:1043FC00FB3F0000A74000003B8C0000738C0000CA
:10440C00878C00003B420000D98C0000F58C00002A
:10441C00B9420000F742000039430000EB8C000069
:10442C00038D0000B93F0000012000F001B800002E
:10443C002021090326311820ABBEF9E70B02FA0044
:10444C000B02F401B801FA008801F401B801F4017F
:10445C000B02F4010B02FA004B02FA009302E80380
:10446C004B02FA004B02F4010B02FA004B02F4016E
:10447C004B02FA001003FA001003FA009302FA0040
:10448C009302FA004B02FA009302E8030B02FA00C3
:10449C000B02F401B801FA008801F4011003F401D5
:1044AC009302FA004B02FA009302FA004B02FA0054
:1044BC000B02E8034B02FA004B02F4010B02FA0068
:1044CC004B02FA004B02F4019302FA004B02FA0081
:1044DC000B02FA00B801FA004B02FA000B02E803D7
:1044EC000B02FA000B02F401B801FA008801F40186
:1044FC00B801F4010B02FA000B02F4014B02FA00B2
:10450C009302E8034B02FA004B02F4010B02FA008F
:10451C004B02F4014B02FA001003FA001003FA00EC
:10452C009302FA009302FA004B02FA009302E8039A
:10453C000B02FA000B02FA000B02FA00B801FA00A7
:10454C008801F4011003F4019302FA004B02FA0003
:10455C009302FA004B02FA000B02E8034B02FA003A
:10456C004B02F4010B02FA004B02FA004B02F4016D
:10457C009302FA004B02FA000B02FA00B801FA009F
:10458C004B02FA000B02E8039302FA001003F40149
:10459C001003FA001003F4011003F4017003FA0085
:1045AC001003FA009302FA004B02FA000B02E80324
:1045BC007003FA001704FA007003FA001003FA00F3
:1045CC009302FA004B02FA000B02FA00B801FA004F
:1045DC004B02F4014B02FA009302FA009302FA0028
:1045EC004B02EE029302FA001003F4011003FA00DE
:1045FC001003F4011003F4017003FA001003FA0025
:10460C009302FA004B02FA000B02E803B801FA001D
:10461C000B02FA00B801FA008801FA004B02F4010F
:10462C009302F4010B02DC050B02EE021003FA00FC
:10463C000B02FA001003FA000B02FA004B02FA000C
:10464C009302D0070B02EE021003FA000B02FA00E1
:10465C001003FA000B02FA004B02FA004B02D007CF
:10466C000B02EE021003FA000B02FA001003FA0020
:10467C004B02FA000B02FA00B801E803B801FA0089
:10468C008801FA000B02FA004B02FA000B02EE0250
:10469C001003FA000B02FA001003FA000B02FA00E6
:1046AC00B801FA000B02D0070B02FA000B02F4015E
:1046BC00B801FA008801F401B801F4010B02FA0008
:1046CC000B02F4014B02FA009302E8034B02FA00CE
:1046DC004B02F4010B02FA004B02F4014B02FA00FC
:1046EC001003FA001003FA009302FA009302FA0086
:1046FC004B02FA009302E8030B02FA000B02FA00D9
:10470C000B02FA00B801FA008801F4011003F4015D
:10471C009302FA004B02FA009302FA004B02FA00E1
:10472C000B02E8034B02FA004B02F4010B02FA00F5
:10473C004B02FA004B02F4019302FA004B02FA000E
:10474C000B02FA00B801FA004B02FA000B02E80364
:10475C009302FA001003F4011003FA001003F401A1
:10476C001003F4017003FA001003FA009302FA002C
:10477C004B02FA000B02E8037003FA001704FA006C
:10478C007003FA001003FA009302FA004B02FA00CD
:10479C000B02FA00B801FA004B02F4014B02FA00CA
:1047AC009302FA009302FA004B02EE029302FA0013
:1047BC001003F4011003FA001003F4011003F401C8
:1047CC007003FA001003FA009302FA004B02FA008D
:1047DC000B02E803B801FA000B02FA00B801FA0068
:1047EC008801FA004B02F4019302F4010B02DC0580
:1047FC000B02EE021003FA000B02FA001003FA008F
:10480C000B02FA004B02FA009302D0070B02EE02E5
:10481C001003FA000B02FA001003FA000B02FA0064
:10482C004B02FA004B02D0070B02EE021003FA0007
:10483C000B02FA001003FA004B02FA000B02FA000A
:10484C00B801E803B801FA008801FA000B02FA007B
:10485C004B02FA000B02EE021003FA000B02FA00F4
:10486C001003FA000B02FA00B801FA000B02D00791
:10487C00000000004A01FA007003F4011003F40177
:10488C007003F4011003FA009302FA009302F4018E
:10489C004A01FA007003F4011003F4017003F401EF
:1048AC001003FA007003FA007003E8039302FA0095
:1048BC004B02770193027D004B02FA000B02FA00C7
:1048CC00B801F4019302FA004B02770193027D00C8
:1048DC004B02FA000B02FA004B02F4014B02770177
:1048EC000B02FA000B02F4014B02F4019302F401E7
:1048FC001003F4017003D0077003770110037D00DF
:10490C009302FA001003FA007003F4014A01FA0052
:10491C00B801F401B801FA008801FA00B801FA00F4
:10492C004A01FA004A01FA008801FA00B801FA00BB
:10493C000B02FA00B801FA008801FA00B801F40180
:10494C004A01FA008801FA000B02F4010B02FA008A
:10495C000B02FA004B02FA004B02FA000B02FA00AF
:10496C004B02FA009302E8034A01FA004B02F401ED
:10497C004B02FA000B02FA004B02FA00B801FA00E3
:10498C00B801FA000B02FA004B02FA009302FA008B
:10499C004B02FA000B02FA004B02FA000B02FA006F
:1049AC00B801FA000B02FA009302FA009302FA0023
:1049BC004B02FA000B02FA009302F4018801F40195
:1049CC00B801E8034A01FA00B801F401B801FA0091
:1049DC008801FA00B801FA004A01FA004A01FA000B
:1049EC008801FA00B801FA000B02FA00B801FA00CB
:1049FC008801FA00B801F4014A01FA008801FA00B2
:104A0C000B02F4010B02FA000B02FA004B02FA0043
:104A1C004B02FA000B02FA004B02FA009302E80375
:104A2C004A01FA004B02F4014B02FA000B02FA00A5
:104A3C004B02FA00B801FA00B801FA000B02FA00B6
:104A4C004B02FA009302FA004B02FA000B02FA0036
:104A5C004B02FA000B02FA00B801FA000B02FA0042
:104A6C009302FA009302FA004B02FA000B02FA00CE
:104A7C009302F4018801F401B801E8038801F40100
:104A8C000B02DC050B02FA004B02FA009302DC0568
:104A9C009302FA001003FA001003EE029302FA00DC
:104AAC004B02F4010B02F4014B02E8034B02EE0241
:104ABC00B801FA004B02F4019302F401BA02770137
:104ACC0010037D00BA02FA009302FA004B02E803CD
:104ADC001003FA001003FA009302FA004B02FA00DA
:104AEC000B02F4018801FA00B801E8034A01FA004C
:104AFC007003F4011003F4017003F4011003FA00C5
:104B0C009302FA009302F4014A01FA007003F401D3
:104B1C001003F4017003F4011003FA007003FA009F
:104B2C007003E8039302FA004B02770193027D00B5
:104B3C004B02FA000B02FA00B801F4019302FA00DE
:104B4C004B02770193027D004B02FA000B02FA0034
:104B5C004B02F4014B0277010B02FA000B02F40139
:104B6C004B02F4019302F4011003F4017003D0071B
:104B7C007003770110037D009302FA001003FA0012
:104B8C007003F4014A01FA00B801F401B801FA000B
:104B9C008801FA00B801FA004A01FA004A01FA0049
:104BAC008801FA00B801FA000B02FA00B801FA0009
:104BBC008801FA00B801F4014A01FA008801FA00F0
:104BCC000B02F4010B02FA000B02FA004B02FA0082
:104BDC004B02FA000B02FA004B02FA009302E803B4
:104BEC004A01FA004B02F4014B02FA000B02FA00E4
:104BFC004B02FA00B801FA00B801FA000B02FA00F5
:104C0C004B02FA009302FA004B02FA000B02FA0074
:104C1C004B02FA000B02FA00B801FA000B02FA0080
:104C2C009302FA009302FA004B02FA000B02FA000C
:104C3C009302F4018801F401B801E8038801F4013E
:104C4C000B02DC050B02FA004B02FA009302DC05A6
:104C5C009302FA001003FA001003EE029302FA001A
:104C6C004B02F4010B02F4014B02E8034B02EE027F
:104C7C00B801FA004B02F4019302F401BA02770175
:104C8C0010037D00BA02FA009302FA004B02E8030B
:104C9C001003FA001003FA009302FA004B02FA0018
:104CAC000B02F4018801FA00B801E8034A01FA008A
:104CBC007003F4011003F4017003F4011003FA0003
:104CCC009302FA009302F4014A01FA007003F40112
:104CDC001003F4017003F4011003FA007003FA00DE
:104CEC007003E8039302FA004B02770193027D00F4
:104CFC004B02FA000B02FA00B801F4019302FA001D
:104D0C004B02770193027D004B02FA000B02FA0072
:104D1C004B02F4014B0277010B02FA000B02F40177
:104D2C004B02F4019302F4011003F4017003D00759
:104D3C007003770110037D009302FA001003FA0050
:104D4C007003F4014A01FA007003F4011003F4013A
:104D5C007003F4011003FA009302FA009302F401B9
:104D6C004A01FA007003F4011003F4017003F4011A
:104D7C001003FA007003FA007003E8039302FA00C0
:104D8C004B02770193027D004B02FA000B02FA00F2
:104D9C00B801F4019302FA004B02770193027D00F3
:104DAC004B02FA000B02FA004B02F4014B027701A2
:104DBC000B02FA000B02F4014B02F4019302F40112
:104DCC001003F4017003D0077003770110037D000A
:104DDC009302FA001003FA007003F40100000000C3
:104DEC00DFF800F025B101102DE9F84CDFF83C7923
:104DFC000C46002640F2013B92467B78398A97F8A4
:104E0C0004C097F803E0B0EB0B0540F67B4232D0C0
:104E1C006D1E37D06D1E3DD0AD1E41D06D1E00F005
:104E2C007D806D1E00F080806D1E00F08D806D1EEB
:104E3C0000F09D806D1E00F0A2806D1E00F0A7801A
:104E4C006D1E00F0AD806D1E00F0B280ED1E00F006
:104E5C00B7806D1E00F0BC806D1E00F0C1806D1E11
:104E6C0000F0C6806D1E00F0CB806D1F00F0D3806B
:104E7C00AD1E2ED0E7E0102C05D11022514607F1C3
:104E8C00A4008AE0102C40F0DC801022514607F17F
:104E9C00B40082E0042C6BD1DAF80000F862DDE09B
:104EAC00012C65D1BCF1010F36D09AF80000F870D6
:104EBC00BEF1000F06D00028F1D1022B1BD0052B20
:104ECC00EDD118E00028EAD0012B21D0042B1DD104
:104EDC001EE0012C4CD1BEF1010F1DD09AF8000040
:104EEC003871BCF1000F0AD0002807D1032B1CBF6E
:104EFC00072B052B02D1C8B200F089FEAEE00028CA
:104F0C00FCD0012B1CBF042B062B01D0052B02D18E
:104F1C00012000F004FCA1E012269FE0022C27D116
:104F2C00BAF80000B88299E0202C0EDA07F1CC0612
:104F3C001F21304601F07AF800F097F8388A7C711E
:104F4C003346224601210EE0202C7ADA07F1EC06DA
:104F5C001F21304601F06AF800F087F8388ABC71DE
:104F6C00334622460021C0B200F034FE73E0012C1F
:104F7C0067D19AF80000052863DAF8716EE0012C0D
:104F8C005FD19AF8000004285BDA387266E0062CD0
:104F9C0057D10622514607F58670FCF7C5FA5DE03D
:104FAC00012C4ED19AF8000008284ADA787255E0A4
:104FBC00012C46D19AF80000042842DAB8724DE070
:104FCC00012C3ED19AF8000002283ADAF87245E03A
:104FDC0000F047F835D1811F914232D238833DE041
:104FEC0000F03FF82DD1811F91422AD2788335E011
:104FFC0000F037F825D1B0F5FA7F22DAB8832DE02E
:10500C0000F02FF81DD1A0F10A0140F67742914231
:10501C0017D2F88322E0012C04BF9AF80000012873
:10502C000FD107F1800001F05EF840B900F01CFBD5
:10503C00060013D107F15C0001F05CF80EE01626B7
:10504C000CE018260AE0272807DA022C05D1BAF85A
:10505C00001000F0EFFD064600E002263046BDE8E9
:10506C00F28CBAF80000022C7047224651463046AA
:10507C00FCF75ABA38B500244FF440730D46C21AE7
:10508C00DFF8A81636D0521E36D0521E37D0521E1C
:10509C0038D0521E39D0521E3AD0521E3CD0521E1D
:1050AC003CD0521E3DD0521E3ED0521E3ED0521EFF
:1050BC003ED0521E40D0521E40D0521E40D0921EA6
:1050CC0040D0521E40D0521E40D0521E40D0521ED4
:1050DC0040D0521E40D0521E45D0521E45D0521EBA
:1050EC0045D0921E47D0521E14D0521E41D0521E93
:1050FC0043D045E0887841E01022A4312FE0102203
:10510C00B4312CE0C86A286041E00622C43126E0A4
:10511C00C87833E0087931E0888A35E04A79CC31B7
:10512C001DE08A79EC311AE0C87927E0087A25E08D
:10513C00062201F5867112E0487A1FE0887A1DE09C
:10514C00C88A21E0C87A1FE0088B1DE0488B1BE061
:10515C00888B19E0C88B17E0062201F58A71284666
:10516C00FCF7E2F913E0088C0EE0488C0CE0888C1C
:10517C000AE0087B02E0487800E0487B287006E0F3
:10518C00272803DA00F072FD288000E00224204674
:10519C0032BD1CB5DFF89445617889B900B1206344
:1051AC0004F12C00019004F1B400009004F1A4036C
:1051BC00208AA1780022C0B200F0C7FC002016BDE6
:1051CC00112016BDDFF864054178062918BF0729A0
:1051DC0005D1C18A008A1322C0B200F0DCBC1220B7
:1051EC00704700B58FB008233C2200216846FEF7BB
:1051FC00C5FBDFF83C0500F15001079100234FF48B
:10520C00DC7108916A46032106910FF2D101FFF778
:10521C00E7FD0FB000BD70B584B000F016F90120A9
:10522C00DFF81015DFF8044509680FF20D55ADF8DD
:10523C000200002668468847BDF8040020820298C8
:10524C00A062002060704FF6FF70E08200F02CFD31
:10525C00207000230120019000220020009029469C
:10526C0004F1380000F004FF022000F02FF804F1E4
:10527C005C0000F0FDFE042000F028F804F1800032
:10528C0000F0F6FE0420A07004F1A402002000211E
:10529C00002300252BC204F1B405103A4BC5E06283
:1052AC00E0712072A172072060721021022000F0C0
:1052BC0073FE103D2A461021032000F06DFE04F110
:1052CC002C020421042000F067FE7FBD0190002316
:1052DC00002000900022294670470000FEB5FFF721
:1052EC009AFFDFF84854DFF84C4405F1800700F0D2
:1052FC00ACF80A20ADF802004FF0FF300190684680
:10530C002168884700284BD100F09FF80920ADF8A0
:10531C000200684621688847BDF80610029E0028E6
:10532C003ED1BDF80400102804BF288A81422DD13B
:10533C0030884FF6FF71884209D17088400425D51A
:10534C0005F12C020421042000F03BFE1EE0307815
:10535C00A22805D0D02804BF304600F07AF815E01A
:10536C007079132812D13089012804BFA87B022838
:10537C0005D1384600F0BEFEFFF724FF06E00520FD
:10538C0000F074FC0146384600F098FE46B100F07F
:10539C005CF80320ADF80200019668462168884746
:1053AC00688AC10730D54FF6FE7108406882E978EB
:1053BC002879014328D018B103208DF800000CE0A7
:1053CC00E8798DF800000622287A8DF8010005F5A1
:1053DC0086710DF10200FCF7A7F8687A8DF80800C9
:1053EC006946A87A8DF80900288AC0B200F0EEFB55
:1053FC0000281FBF08206870286B002804D00168A3
:10540C0008001CBF08208847688A810706D54FF61C
:10541C00FD7108406882002000F026F9688A410777
:10542C000AD54FF6FB7108406882A87B012804D08E
:10543C00022808BFFFF7C6FE59E70090EB8BAA8B3A
:10544C00698B288B00F044F951E70820ADF8000077
:10545C007047F8B50546B54CA878010004F58A7775
:10546C0004F1800612D002283BD0032818BF042870
:10547C005BD0052800F08180062800F0AB8007285F
:10548C0000F0CD800F2800F0E980F1BD6878D8B924
:10549C0004F1A4021021022000F093FD04F1B402E7
:1054AC001021032000F08DFD0622E91C04F1C4003C
:1054BC00FCF73AF80120607004F1CC03208A627981
:1054CC000121C0B200F086FB08B108206070206B8F
:1054DC0030B10168080003D06078BDE8F44008479B
:1054EC00F1BD6878E8B9E87848B1208AA27904F16E
:1054FC00EC030021C0B200F06DFB687011E0607825
:10550C00022818BF07280CD0062802D120790128C0
:10551C0007D104F1380000F0E6FD10B9012000F0CD
:10552C00FEF868780028DBD0CFE7697821BB032828
:10553C000AD16078062808BF0720C7D0E078002879
:10554C000CBF03200220C1E7A18AE078002907D014
:10555C00227910430AD004F1380000F0AFFD05E0C9
:10556C00012807BF0020E070002020716078072818
:10557C0014BF04200620A9E7A7E7687820BB062201
:10558C00291D3846FBF7D0FF6889E0820620607041
:10559C00E8892084288A6084688AA084E87820734B
:1055AC00E07A012809D11F2000F060FB4FF47A71DA
:1055BC00414304F15C0000F081FD6A89E878042322
:1055CC00291D00F0D5F982E73128D5D10020E070F3
:1055DC0004207BE7A88800F0E2F90621384600F0A9
:1055EC0025FD002020846084A084A879607304F1D8
:1055FC005C0000F07FFD304600F07CFD4FF6FF7044
:10560C00E082207908B1032060E7A87908280CBF54
:10561C00052004206070012000F081F857E7304627
:10562C0000F068FD687800280AD1E8882084288971
:10563C0060846889A08404F15C0000F054FD0028AB
:10564C007FF44EAF636B002B3FF44AAFA28C618C9E
:10565C00208C1B6801B0BDE8F0401847A888BDE855
:10566C00F440052100F0D8BAFEB5304D298B044624
:10567C00288C884224BF698B814207D3688CA98B04
:10568C00884202BFA88CE98B88421ED0052000F00E
:10569C00EDFA0646E88AADF80000288BADF802005A
:1056AC00688BADF80400A88BADF80600E88BADF85C
:1056BC000800684600F06AFA070007D1AC7331465F
:1056CC0005F1800000F0FAFC00E018273846FEBD1A
:1056DC0070B5164C6578062D01D0142070BD40F6BF
:1056EC007A45861FAE423CBF8E1FAE4215D2B2F534
:1056FC00FA7F12DAA3F10A0540F67646B5420CD2CF
:10570C0020836183A283E3830498FFF7ADFF04F148
:10571C005C0000F0EFFC002070BD182070BD034948
:10572C004A8A10434882886AFEF718B95C04002044
:10573C00741F0020280B0020F1E70000E0B50821C1
:10574C00ADF800100190022100F00FF8002814BFF2
:10575C00002002980EBD00B583B00821ADF80010F2
:10576C000190032100F001F807BDADF80210684666
:10577C00DFF80816096808471FB5ADF80610ADF834
:10578C0004000824DFF8F4158DF808200393ADF815
:10579C000040ADF8024068460968884704B010BD67
:1057AC0030B585B0144608220291ADF800201922BC
:1057BC00DFF8C81509680190ADF802201D4668464F
:1057CC00884714B1BDF80C10218015B1BDF80E102E
:1057DC002980089A0499116005B030BD00B583B0DA
:1057EC000820ADF800001A2000F014F800280CBFB7
:1057FC00BDF80400FF200EBDE0B5ADF80000ADF81B
:10580C000610002000F006F800280CBF9DF80800D8
:10581C00FF200EBDDFF864150968ADF8020068467C
:10582C00084750B110F1040F01D10420704710F15A
:10583C00030F01D1022070470120704781230370B0
:10584C0042EAC111002341F47C41C370818070474E
:10585C008223037081800023C370827170473EB530
:10586C0004460820ADF800000D462020ADF80200DB
:10587C001020DFF808150968ADF804006846884761
:10588C0020B9029810B16FF004003EBD00950023C2
:10589C00002221464FF0FF30FFF782FF3EBD10B5CE
:1058AC0082B01446CA78012A03D18A88DFF8E4341E
:1058BC001A8000F010F858B9009069462046FFF79E
:1058CC00CEFF28B900984478FFF745FF204616BD57
:1058DC00FFF7A7FF16BD0B46022210214CE738B587
:1058EC001C461546FFF7F7FFB8B9009069462846E5
:1058FC00FFF7B5FF88B900984578002D04BFC07933
:10590C00A04205D10098816804982246FBF70CFE52
:10591C000098FFF720FF284632BDFFF782FF32BD0B
:10592C00F8B500F056FA00F0BCF907000DD032467D
:10593C002946FFF78DFF00F045F93872FFF74EFF4F
:10594C003B4601B0BDE8F0403AE0F1BD1022012128
:10595C00E6E738B500F0DEF9050004D0042200F0CB
:10596C0032F8AC6026E031BD3C81BD72FE6035E79B
:10597C002DE9F04100F057F907000FD0142200F088
:10598C0022F83C72FD603E8287F81280FFF726FFFA
:10599C003946BDE8F041DFF8002480E72FE038B548
:1059AC0000F033F8050001D0152200E031BD00F005
:1059BC000AF82C81FFF712FF2B4601B0BDE83040EE
:1059CC0002221021D8E6012142E70022042176E0D0
:1059DC002DE9F04100F027F9070010D00222042134
:1059EC00FFF736FFBC60BD81BE73C7F81080FFF7B0
:1059FC00F5FE3946BDE8F041DFF8A0234FE704205F
:105A0C00BDE8F081102202218AE704460A2095E6BF
:105A1C0002211DE7F8B500F077F907000AD015222E
:105A2C00FFF7F6FFFFF7A0FF3946BDE8F840DFF8B7
:105A3C00702334E70420F2BD002203213FE000B5BF
:105A4C0083B00FF24903019306230093032300F064
