:10000000E8430020015C000001CA011001CA011090
:1000100001CA011001CA011001CA011001CA011070
:1000200001CA011001CA011001CA011001CA011060
:0C00300001CA011001CA01103FCA0110F2
:100100003C0000000000000000000000340100007E
:1001100000000000000000000100000000000000DE
:1001200000000000000000000000000001000000CE
:0C013000000000000800000000000000BB
:10013C003400000000000000000000006801000016
:10014C0000000000000000000100000000000000A2
:10015C00010000000000000000000000080000008A
:04016C00000000008F
:1001700030000000000000000000000098010000B6
:10018000040000000000000001000000FFFFFFFF6E
:10019000FF00000001000000080000000000000057
:1001A0002C0000000000000000000000C40100005E
:1001B000040000000000000001000000FFFFFFFF3E
:0C01C000FFFFFFFF08000000000000002F
:1001CC0034050000E401000099A1011095A701106D
:1001DC00A5C2011009B2011045B8011000000000C1
:0801EC00000000002E000000DD
:1001F40028000000000000000000000014020000BD
:100204000000000000000000FFFFFFFF00000000EE
:080214000800000000000000DA
:10021C00300500003002000069C201106DC10110F0
:10022C001FC2011095BA0110000000000000000070
:04023C00300000008E
:10024000300500005402000075C20110A9B601106B
:100250009DBF011049B60110000000000000000021
:040260003100000069
:1002640024000000000000000000000080020000E4
:100274000000000000000000000000000800000072
:040284000000000076
:10028800240000000000000000000000A40200009C
:10029800000000000000000000000000080000004E
:0402A8000000000052
:1002AC00240000000000000000000000C802000054
:1002BC000000000001000000000000000800000029
:0402CC00000000002E
:1002D00000000000300A00200400000000000000C0
:1002E000000000002000000070010000300000004D
:1002F0001C020000380A002004000000000000007A
:10030000000000000C000000300400001800000095
:1003100040020000400A002004000000000000002D
:100320000000000024000000480400001800000045
:1003300000000000480A0020040000000000000047
:100340000000000010000000A00100002C000000D0
:10035000CC010000500A0020040000000000000052
:1003600000000000200000006402000024000000E3
:10037000FFFFFFFF580A00200400000000000000FB
:100380000000000028000000880200002400000097
:10039000FFFFFFFF600A00200400000000000000D3
:1003A00000000000580000003C0100003400000084
:1003B000FFFFFFFF680A00200400000000000000AB
:1003C00000000000100000006004000018000000A1
:1003D000FFFFFFFF700A0020040000000000000083
:1003E000000000001C000000AC020000240000001F
:1003F000FFFFFFFF780A002004000000000000005B
:100400000000000038000000F40100002800000097
:10041000FFFFFFFF800A0020040000000000000032
:100420000000000054000000000100003C0000003B
:100430001800000000000000000000004004000060
:080440000800000000000000AC
:100448001800000000000000000000005804000030
:08045800080000000000000094
:100460001800000000000000000000007004000000
:0804700008000000000000007C
:0804780001000000805C00009F
:040484000100000073
:0404880000000C0064
:04048C0000000D005F
:040490003200000036
:040494000200000062
:040498000009002037
:04049C00000200005A
:0404A0000000000058
:0404A40001CA011078
:0404A8000000000050
:0404AC00000000004C
:0404B0000800000040
:0404B4000000200024
:0404B8009808002080
:0404BC00010000003B
:0404C000F809002017
:0404C400080000002C
:0404C8000000000030
:0404CC00000000002C
:0404D0000000000028
:0404D4000000000024
:0404D8000000000020
:0404DC00010000001B
:0404E00030090020BF
:0404E400060000000E
:0404E800010000000F
:0404EC00C80700201D
:0404F0000000000008
:0404F4000000000004
:0404F80000020000FE
:0404FC0000000000FC
:020502002A00CD
:020504000100F4
:020506002500CE
:020508003000C1
:02050A003100BE
:02050C002E00BF
:02050E000100EA
:0105100001E9
:0805140004000000405C00003F
:08051C000000000000000000D7
:0405240000000100D2
:0405280000000300CC
:04052C0087C401106F
:04053000380500008A
:040534003805000086
:0405380000000000BF
:04053C00800000003B
:040540008000000037
:0405440000000000B3
:04054800F80900208E
:04054C00DF1B0000B1
:040550002000000087
:04055400185C00002F
:04055800C85900007E
:04055C000DC30110BA
:04056000691300001B
:040564006B13000015
:0405680099C801101D
:04056C009BC8011017
:040570000000000087
:040574000A19000060
:04057800DC5800004B
:04057C00F45800002F
:04058000C45800005B
:0205840008006D
:0205860009006A
:02058800010070
:02058A0000006F
:01058C00016D
:040590000000000067
:040594000000000063
:04059800000000005F
:04059C00000000005B
:0405A0000512000040
:0405A40065120000DC
:0405A800E51000005A
:0405AC008F120000AA
:0405B0004D110000E9
:0405B4000111000031
:0405B8008D110000A1
:0405BC00D112000058
:0405C0005D1B0000BF
:0405C400631D0000B3
:0405C800671D0000AB
:0405CC000800000023
:0405D0002400000003
:0405D400180000000B
:0405D80028000000F7
:0405DC0020000000FB
:0405E0003C000000DB
:0405E4000C00000007
:0405E80034000000DB
:1005EC00DFF800F013C10110DFF800F0F5C00110C6
:1005FC00DFF800F049BA0110DFF800F025C2011055
:10060C00DFF800F0C1C20110DFF800F0E3BF011009
:10061C00DFF800F0D5C00110DFF800F095C0011034
:10062C00DFF800F00DA80110DFF800F0BDBE0110DE
:10063C00DFF800F02DBF0110DFF800F0E1B501107C
:10064C00DFF800F0D5C20110DFF800F0D9C20110BC
:10065C00DFF800F0F1C50110DFF8D400007D704721
:10066C0038B5DFF8D400DFF8CC500068EFF3118414
:10067C0080F31188A8680021FFF7CEFF6969081A7A
:10068C00A969814238BF002084F3118832BD000073
:10069C002DE9F041DFF8A000DFF898400768EFF390
:1006AC00118887F31188A0680121FFF7B5FF01219C
:1006BC00A1830021E183656921682268461B801AA9
:1006CC00691A884204D20020A08388F311882AE09A
:1006DC0088F31188002005E04519361A29460120B7
:1006EC00FFF79EFF8642F7D2EFF3118887F311884C
:1006FC00E18B012903D129460020FFF791FFA16965
:10070C0010F1010F08BF084603D0801B814238BF8F
:10071C0008464119FFF788FF012020840020A083A0
:10072C00256088F31188BDE8F081808A704700004D
:10073C00A401002078010020785C0000DFF8041090
:10074C0009687047785C000000F00ABE80B5002391
:10075C0001223421DFF8D00901F0C0F800B10120EA
:10076C00C0B202BDDFF8A41A0A68002812BF42F01A
:10077C000100500840000860704700007047FEE719
:10078C0010B582B0042001F0DDF8022818BF032850
:10079C000DD1032000901C234FF040520021DFF8B4
:1007AC00880901F078F8BDE81640042066E0DFF80F
:1007BC007C19DFF87C0A09680C18DFF87419DFF86B
:1007CC00740A0968B0FBF1F12046FFF719FF2046C7
:1007DC00BDE81640FFF718BF80B5DFF85809007860
:1007EC00DFF8540901688908890041F001010160B2
:1007FC0001F0B5F801F03FF9DFF84019002008606E
:10080C000220DFF874190968C9688847DFF83C0AC8
:10081C00016849084900016000F017FA042000F053
:10082C000FF900F0A6BC00000022012904D1012818
:10083C0007D1DFF8480903E0012802D1DFF8140AD8
:10084C00026810467047DFF8E8090079704700002D
:10085C0001F09AB810B5DFF824160968EFF311848B
:10086C0081F31188DFF8C819C9880120012908BF54
:10087C00FFF76CFF84F3118810BD000030B5DFF872
:10088C00FC15DFF870390A68EFF3118182F31188D7
:10089C00B0FA80F2C2F11F02D25CB0FA80F4C4F15B
:1008AC001F04551EE55405D1DFF88429136823EA8B
:1008BC000000106081F3118830BD00002DE9F0417B
:1008CC00FFF73CFFEFF3118481F31188DFF868190F
:1008DC00425C531E435444D1DFF86019DFF8608941
:1008EC0001EB80052E786F88300618D5D8F80010EB
:1008FC00096A38468847D8F80010896A384688470C
:10090C00D8F80010096B38468847DFF838190120F1
:10091C000860DFF8340900688007FAD514E0700627
:10092C0006D5DFF8981951F82710002088470BE0FE
:10093C00D8F80010896938468847D8F80010496BF8
:10094C00384688470228F8D106F03F003F2818BFE8
:10095C00FFF7B4FF687800F03F003F2818BFFFF79F
:10096C00ADFF84F31188BDE8F08110B508B1140017
:10097C0001D1032010BD8160C26003610146DFF824
:10098C00D028DFF8340912681018FFF751FE002048
:10099C0010BD0000F8B50446DFF8E004DFF8981845
:1009AC000068EFF3118580F31188625C531C63546B
:1009BC00002A3ED1DFF8841801EB8407387800F068
:1009CC003F003F2818BFFFF7E5FF787800F03F00A5
:1009DC003F2818BFFFF7DEFF7E883878DFF8607895
:1009EC00010613D53968C969304688473968496AA0
:1009FC00304688473968C96A3046884700F038F86D
:100A0C00DFF8440800688007FAD512E0400606D5E6
:100A1C00DFF8A81851F826100120884709E039683A
:100A2C004969304688473968496B30468847012800
:100A3C00F9D185F311882046BDE8F24001F078B970
:100A4C00DFF838140A68EFF3118182F31188DFF8AC
:100A5C00E027136803431360B0FA80F0C0F11F0065
:100A6C00DFF89027835C5B1C835481F311887047FB
:100A7C00DFF8D01701200860704700002DE9F04F17
:100A8C0083B04FF0000800210128C1468A4618BFE8
:100A9C00022412D1DFF8E403DFF81C780268EFF3CC
:100AAC00118082F311883A79012A06BF02223A7129
:100ABC00012180F3118809B10624BDE0FFF794FDF4
:100ACC000090012000F0DAF8040002D00120387107
:100ADC00AFE0FFF79DFDDFF810180190C1F8009012
:100AEC00012000F02FFF012804D1002001F000F9B3
:100AFC004FF00108DFF8C847DFF83C5721688968D8
:100B0C000020884700F0A1F8687C08B14FF001097B
:100B1C00287C08B149F00209E87B08B149F00409C6
:100B2C00E87ADFF8186718B1A16AF08D096B88476D
:100B3C00A87A18B1A16A708D096B8847FFF798FFE6
:100B4C0049F02000A16A896988470120FFF70AFE55
:100B5C003878C00748BF4FF0010A12D4DFF880077D
:100B6C0001F012F98346BBF1040FF7D000F067F8DF
:100B7C008008800008600321A26CDFF864075268CB
:100B8C009047002001F008F900F05FF8A06A806B34
:100B9C008047BAF1000F0AD1A26CDFF84407526803
:100BAC005946904700F04BF840F0030008600120D4
:100BBC00216889688847DFF82C0700688006FAD519
:100BCC00B8F1000F1CBF012001F092F8A16A49692D
:100BDC0048468847A16A496B484688470128F9D19D
:100BEC00E87A18B1A16AF08DC96A8847A87A18B159
:100BFC00A16A708DC96A8847FFF73AFF0020FFF79A
:100C0C00B1FD03203871042000F038F8DFF8D81655
:100C1C000120086000F019F801F0CCF9082000F070
:100C2C002DF80446012038710198FFF705FD01F0FD
:100C3C004CF90098FFF7DCFC2046BDE8FE8FDFF88E
:100C4C00B806DFF8B41600687047DFF89006006845
:100C5C007047000038B58948DFF85C560068EFF340
:100C6C00118480F31188E888012803D100F0E0FE9C
:100C7C000020E88084F3118831BD000038B500F005
:100C8C002AF80818FFF7ACFC002540B9204600F004
:100C9C0008F820B1DFF8680600688047022528466E
:100CAC0032BD70B500F017F80D182846FFF7C8FCD8
:100CBC000646B068204206D03169F268204690475B
:100CCC00C0B2012806D03046FFF7BEFC0646AE4245
:100CDC00EFD1002070BDDFF8781509680446DFF805
:100CEC00D805704730BF704770B501F05FF9DFF879
:100CFC0040552E6806F00C000C284BD0700727D4FA
:100D0C00FFF7AEFC044600210120FFF78DFDA04249
:100D1C001ED2DFF8C00300684519DFF8140406681A
:100D2C00DFF8D8050068B0FBF6F0211A2846FFF76B
:100D3C0067FC2846FFF768FC4FF47A70B0FBF6F2BC
:100D4C0000210120FFF79AFE2846FFF755FC23E00F
:100D5C0030071FD4DFF8F404DFF8E444DFF87C55E7
:100D6C00F10601685ABF4908490041F001010160D0
:100D7C00DFF88405016841F003010160202021683F
:100D8C008969884728682068806B80470120286023
:100D9C00286801E0FFF7A6FF01F00CF9BDE87040F0
:100DAC0001F0BEB810B50C1801F000F9401E8041DE
:100DBC00C00FDFF860150A68002AFCD024680122F5
:100DCC000A6008B101F0F6F8204610BD80B5042089
:100DDC00FFF736FE0820FFF733FE0E20FFF7DAFD93
:100DEC00DFF82005DFF820150068C0F381500328D8
:100DFC000CBF012000200880DFF8100502680AB142
:100E0C00012002BDDFF8103540221A600122C261B8
:100E1C000020486002BD10B5DFF85C13DFF8F04429
:100E2C0082B009680968202088470F2020600723BA
:100E3C0041F61D5060604FF4C0720220009000F02B
:100E4C00C9F8DFF8D8040121016001688907FCD5D5
:100E5C0001212161DFF8B0442188012907D100214B
:100E6C0001610220202100F091F8012004E0012111
:100E7C00002000F08BF80220606013BD785C00004D
:100E8C002DE9F041DFF89804DFF87C4482B001686A
:100E9C0042688A43426001616068002804BFBDE873
:100EAC00F341FFF7B8BF0128DFF878141AD10220FC
:100EBC00606008684BF2F52148436188000A11B163
:100ECC000021618006E0DFF860140968090210EB6C
:100EDC0011204008DFF854140860000C4860012011
:100EEC0088600CE002280FD10868B0F5C06F02D101
:100EFC000020606045E00321616000F06FF8012183
:100F0C00BDE8FC41002041E003283DD10020606099
:100F1C000868A0F5C065A06800F0B2F8064628463F
:100F2C0000F0AEF886422CDAA669284600F0ACF840
:100F3C008019A061E56860697B4E85420ED0A76977
:100F4C00A7F1100000F09CF880462069103800F0E2
:100F5C0097F8804502DABFB200970BE0ADB200956E
:100F6C0008234FF47F423021304600F094FC206976
:100F7C0080B2009012234FF4F8020421304600F0A6
:100F8C008AFCBDE8F3418AE0BDE8F38170B50D46FB
:100F9C00DFF89C4382B0032121600021DFF89463C9
:100FAC00316031688907FCD480B20090052360223F
:100FBC0000F010F80120306030688007FCD5A56186
:100FCC00002020600821DFF85003C160016001207F
:100FDC00206073BD0021544800F05DBC70B506461E
:100FEC00514C82B030212046FFF7DCFEDFF818535D
:100FFC00C0F30720E86004212046FFF7D3FEC0F3BE
:10100C0084402861A6F5C060A8602E6900F03CF809
:10101C008019A861A969E868022909DA401E6FF0F5
:10102C003F039842B8BF184610310BD5002109E098
:10103C001E2908DB401C4028A8BF3F20103920295E
:10104C00A8BF1F21A9616861082380B200904FF4EA
:10105C007F42302100F011F80120009011234FF451
:10106C00003200F009F8A86980B2009012234FF406
:10107C00F80200F001F873BD0421204600F00BBC0F
:10108C00002848BF4042704700284CBF6FF0010158
:10109C00022101EB4000032190FBF1F0704780B579
:1010AC00DFF878020021016001688907FCD4002177
:1010BC00016041600120DFF8541208600E20FFF738
:1010CC00FDFB0820FFF7DAFBBDE802400420FFF728
:1010DC00D5BB00005C5C000010B504460020D4E9D0
:1010EC000A2347F6906100F069FF012928BF4FF0F1
:1010FC00FF3010BD10B50C4600F0D8FF011D201AB2
:10110C00B0F1004F05D8081BB0F1004F38BF8C422E
:10111C0000D20C46DFF820221268526A2146BDE844
:10112C00104001201047000000A00C40605C000043
:10113C007C5C0000D3240020044003404010094094
:10114C002DE9F04180460A46D8E90A01D8E90C4558
:10115C00A0FB026701FB0277A6196F41340C002239
:10116C0044EA07414046FFF7C5FFC8E90E67BDE8F2
:10117C00F0814FF0FF3002BDA00100106C5C00004C
:10118C00F8B50546DFF8B801DFF8B8610068DFF89C
:10119C00B871EFF3118480F31188306840F080004F
:1011AC0030600120B96849688847F96A096A1420D7
:1011BC0088472869B0F5802F34BF0421010CBA6828
:1011CC00526A012090473A68126823210020904708
:1011DC00B968C96901208847306820F4E02040F4E0
:1011EC0080303060306840F00100306084F311884A
:1011FC00F1BD0000B0240020DFF854010368406802
:10120C000022002110185941704700000C200840A2
:10121C00DFF82411DFF8240110B509684468496827
:10122C00012088476069A169BDE8104008470000AB
:10123C00B0060020A08601007C2400200C59000080
:10124C00B801001028200860282008408C21084094
:10125C00645C0000705C0000F8B504460D46FFF7B6
:10126C00CBFFD4E90A6732463B4600F0A7FE3DB1FE
:10127C00A6FB002306FB013307FB0033C4E90C2358
:10128C00F2BD38B5DFF8BC40DFF8C050206840082C
:10129C0040002060206840F0800020600120E06267
:1012AC00E06A2968496801208847696A096A14203C
:1012BC008847E06A31BD0000B00600201C0A0020FF
:1012CC009001001080B500F004F8000C40EA0140D9
:1012DC0002BDDFF8800000688EE700002C2009407A
:1012EC0000400340141009400C40094009B9DFF8D4
:1012FC006810FFF7ADB9000024220840745C0000B0
:10130C00685C0000B43F0050DC09002004800C40F5
:10131C000C400C4000800C402C500C4034600C40B5
:10132C0028500C4008400C40102009403C600C40F8
:10133C0000400C4038600C408C010010E40100208F
:10134C00785C000000200940840100108C01001022
:10135C0008200940EC010020A0010000FEE77047C6
:10136C0010B5DFF86404046814F1010F08BF002401
:10137C0000F010FFDFF85414002008600120DFF8A3
:10138C0050140860DFF84C140860DFF84C04006857
:10139C0028B1DFF848040068204600F023F8DFF895
:1013AC004004DFF8402401688908890041F00051AD
:1013BC0041F005010160DFF8300401686FF31B4157
:1013CC0011430160DFF824040168C1F301310129E4
:1013DC0007D10168DFF81824114041F40032026093
:1013EC00016010BD2DE9F84F0446DFF80814012008
:1013FC000860DFF8040401680029FCD0DFF8FC5316
:10140C00DFF8FC83C0202860D8F80CA0D8F80810AE
:10141C00DFF8F00389075DBFD8F80410090C41F020
:10142C00F00172210170DFF8E0130968D8F80C2084
:10143C00C1F304611629A8BF203901EB2271491CA4
:10144C006FF009029142B8BF114601F01F0141F43F
:10145C00F8510183CAF3C061DFF8B00381F00101D8
:10146C000160CAF3806181F00101816014B9DFF879
:10147C00A0732DE0DFF89C030068C0F383615FEA82
:10148C008A32C0F38F2021D44FEA0A4212160AD5B1
:10149C004FF6FF73400804D11846490804BF0121D8
:1014AC000120521CF6D4012A10DB400040F0010050
:1014BC00B0F5803F21BF0120490041F00101102906
:1014CC0024BF0F214FF6FF70521EECE740EA014794
:1014DC0000F06CFD401E8041C00FCF4E31680029DA
:1014EC00FCD0DFF83893C9F810700121316008B1D5
:1014FC0000F060FD0CB9D82008E0C64A10681168ED
:10150C00C0F3870001F0030140EA0120009040F293
:10151C00FF3700233A462C21C14800F0BCF91CB11E
:10152C00BC48C06A8704BF0C00F040FD401E8041DF
:10153C00C00F31680029FCD0C9F81470012131604A
:10154C0008B100F037FD002C0FBFB64FB148406A10
:10155C0020F0033700F02AFD401E8041C00F316897
:10156C000029FCD0C9F80C700121316008B100F0E1
:10157C0021FD0CB9AC4F04E0A648AC49006A01EA65
:10158C00000700F013FD401E8041C00F3168002998
:10159C00FCD0C9F808700121316008B100F00AFDD7
:1015AC000CB9A34F20E09B48806AD8F80830DB07C1
:1015BC00C0F30352C0F303410BD4D8F804301F0519
:1015CC0002EB27721B0482F3040201EB237181F3FB
:1015DC000401090441EA025182B242EA0107222CB9
:1015EC0024BF00F08040074300F0E0FC401E804127
:1015FC00C00F31680029FCD0C9F80470012131609A
:10160C0008B100F0D7FC2220222C824F06D3F86BB5
:10161C00000F00F00100400040F0200085490872E6
:10162C001120222C05D3F86B400F00F0010040F084
:10163C001000202C08724FF0000B07D3B86CC10CB3
:10164C0001F44071C0F3845040EA010B00F0AEFC91
:10165C00401E8041C00F31680029FCD0C9F820B071
:10166C000121316008B100F0A5FC6020202C06D3CC
:10167C00B86C000D00F00300400040F060006D49B4
:10168C00C8728020222C06D3F86BC00E00F001002B
:10169C00C00040F080000870222C4FF47C4006D330
:1016AC00F86B400D00F03F00800040F47C40624934
:1016BC00DFF888B10880202C0AD3B86C0203810AA9
:1016CC0002F47C1242EA815100F00F0041EA003B27
:1016DC0000F06CFC401E8041C00F31680029FCD02A
:1016EC00C9F800B00121316008B100F063FC544826
:1016FC0044210170882181700CB9302105E0F96B0F
:10170C00C90C01F0030141F03001C1704FEA9A504D
:10171C0010F0030003D002283CD012D33CE001218E
:10172C00042000F0EDF843F2BD70E86386202864D5
:10173C0001206864434801680029FCD000206864DB
:10174C002EE0012000F0FEF804462146042000F0B3
:10175C00D7F8042000F0F6F8A042FAD1D8F80030FF
:10176C001802000A81B2E963000C28640120686445
:10177C00344801680029FCD0002068644FF06022D6
:10178C00180E314B1B681B68072198474FF480607B
:10179C00C9F83800032100E00221042000F0B0F861
:1017AC00F8692A4900F03F00087047F618002849EC
:1017BC000880104927480068002028600860012034
:1017CC0025490860BDE8F18F1C1300508404604269
:1017DC005C600C4008220443800128430001204334
:1017EC000440034000003901482003400400094034
:1017FC00FFFFFCFC101009409402224300600C40D7
:10180C00A83F005056620840B81200500000204318
:10181C00FF0F0F005013005000800C4008A00C402C
:10182C0000A00C40000088688A766800FFFFFC006E
:10183C00273F710041A10C40DCA10C4000803F40CF
:10184C0005A10C4084088C43B40100100BB00C4073
:10185C0070B00C402C2009409404604238B504460A
:10186C000D4600F0A3FB401E8041C00F1A490A68C8
:10187C00002AFCD0012D02D0022D02D003E02478E6
:10188C0002E0248800E0246801220A6008B100F01C
:10189C0091FB204632BD38B500EB4100102B00F512
:1018AC00007402D3103B241D120C0498984040EA9B
:1018BC00024500F07BFB401E8041C00F06490A68C0
:1018CC00002AFCD0256001220A6000281CBFBDE85C
:1018DC00314000F06FBB31BD00800C4038B51D4667
:1018EC000818102D144602D3103D801C240C022124
:1018FC00FFF7B4FF04EA000188B2E84032BD0000F3
:10190C0038B50446E0070D4607D5A8B20090002371
:10191C00012200216B48FFF7BEFFA00707D5A8B234
:10192C0000900123022200216648FFF7B4FF6007F4
:10193C0007D5ADB2009502230C2200216148FFF7B8
:10194C00AAFF31BD0146042907BF1D234FF0C04239
:10195C001C234FF080525B483421FFF7BFBF10B5FA
:10196C00594C2168896801208847584801688906C4
:10197C00FCD5216909684020884721698968402085
:10198C0088471128F9D110BD70B5054600F08EFBC3
:10199C004F4C6168401A4FF47A714843060C00F0C2
:1019AC0003FC2169401A48BF4042711940F6B93214
:1019BC00914207D2062805DAA068E168814201D37A
:1019CC00226852B943494A68D2074FF4FA6016D4D8
:1019DC000868C0B27D21484308E0081A3E494843D4
:1019EC00000C00EB9000904238BF1046C82801D282
:1019FC00C82070BDB0F57A6F88BF4FF47A6070BDA7
:101A0C0010B582B00120009000232E4C0122194603
:101A1C002046FFF740FF01200090034602220021E0
:101A2C002046FFF738FF00F041FB2949886013BDC1
:101A3C0080B50120FFF786FF01281AD00023012270
:101A4C0034212048FFF74AFFA0B1244800688047A2
:101A5C0000F02CFB1E498B680A68C860A2EB92024E
:101A6C00C01A1D4B5843000C0860904238BF1046FA
:101A7C000860012002BD10B582B000200090014624
:101A8C00104C002301222046FFF705FF0020009098
:101A9C000146012302222046FFF7FDFE1C234FF0D6
:101AAC00805234212046FFF719FF10B10B48006813
:101ABC008047074C00F0FAFA606000F075FB20617B
:101ACC0013BD000000A00C40900100101410094040
:101ADC0090240020AC3F005040420F0080000010CA
:101AEC00DFF800F049C10110DFF800F019C2011055
:101AFC00DFF800F00DC30110DFF800F081C6011013
:101B0C00DFF800F095B70110DFF800F08DC201107E
:101B1C00DFF800F03DC20110DFF800F009C301103E
:101B2C00DFF800F045C00110DFF800F0D1C701105C
:101B3C00DFF800F067BE0110DFF800F021B30110F0
:101B4C00DFF800F011C80110DFF800F021C8011017
:101B5C000C2811D0192814D01D2817D020281AD0E1
:101B6C0021281DD0252820D02A2823D02B2826D068
:101B7C002C2829D000207047DFF8E40100680068A9
:101B8C007047DFF8DC01006840687047DFF8D0016F
:101B9C00006880687047DFF8C8010068C06870474B
:101BAC00DFF8BC01006800697047DFF8B401006819
:101BBC0040697047DFF8A8010068C0697047DFF81A
:101BCC00A0010068006A7047DFF894010068406A61
:101BDC00704700B58BB00A216846FFF789FF0BB040
:101BEC0000BD00B581B0FEF7AFFDDFF87801DFF87E
:101BFC0078110068884218BF00F034F8DFF86C01E7
:101C0C00B0F5B26F03D001B05DF804EB2BE001B07E
:101C1C0000BD00B581B00FF22100FFF76DFFFFF79B
:101C2C006FFFFFF771FFFFF773FF01B05DF804EB77
:101C3C00FFF772BF0000000000B581B0FEF7E8FCB2
:101C4C00FEF7D2FC01B05DF804EB0320FFF768BF90
:101C5C0010B504460320FFF763FF2046BDE8104093
:101C6C00FFF762BFFEE7FEE700B581B0FFF760FF4C
:101C7C00DFF8FC00C06801B05DF804EBFFF75CBF57
:101C8C00DFF8F010DFF8F00088617047DFF8EC1037
:101C9C0001280CBF40F2FF70002008600020704744
:101CAC0030B581B0FFF71CFFDFF8D4500446E8884C
:101CBC0020B1FFF7BDFE60B10020E880FFF786F889
:101CCC0005461020FEF7DAFF012D0BD1FFF7A3F824
:101CDC0008E0052105F13000FEF792FC05F130001B
:101CEC00FEF792FC204601B0BDE83040FFF7FCBE89
:101CFC0010B5012818D1FFF725FE012816D0FFF7E3
:101D0C007FFEDFF87C400120E08004F13000FEF71C
:101D1C0073FC052104F13000FEF772FC04F1300075
:101D2C00FEF772FC002010BDFFF7A5FE002010BDD1
:101D3C0010B501240E2805D10120FFF703FE012860
:101D4C0005D003E0DFF83C10405C00B900242046CD
:101D5C0010BD00207047FFF7F3BEFFF7F5BE000083
:101D6C00F001002098CA011070472820900500004F
:101D7C0078010020440100200004000000000460F1
:101D8C00B00600207C2400200068010701D5042047
:101D9C00704700F003007047F8B505467748784C5B
:101DAC000068800705D50820A07176497648086040
:101DBC00F1BD00F0F9F9754A1268002112F0030F19
:101DCC0018BF0121520748BF41F002010DB141F08B
:101DDC00040194F90720821A052A02DAA2799142A9
:101DEC0059D0A0F10F0200250023002A1FD402EBCA
:101DFC0002121312082B28BF07231D46072D28BFDC
:101E0C000625634E06EB850756F825507F687E1B2A
:101E1C00F5B24F0744BFC6F307277D198F0744BFA0
:101E2C00C6F307477D19CF0748BF05EB1665584E1B
:101E3C0056F82370FEB25FEA417C44BFC7F3072C0F
:101E4C0066445FEA817C44BFC7F3074C66445FEA93
:101E5C00C17C48BF06EB1766A2EB03226A434D4BCD
:101E6C001D681B68A1718032092A92412D17C5F19A
:101E7C0008053427D243DBB27D436B4306EBD272A9
:101E8C00B3FBF2F2B2F5803F28BF4FF6FF7200F3BE
:101E9C000700A280E07140480068A1882060002003
:101EAC001F2904D21F21A18004E04908401CB1F570
:101EBC00007FFAD20F39090940EAC100314A37498B
:101ECC000843106000205060F1BD10B53448006824
:101EDC0084B224B300F068F9294991F907209042A3
:101EEC0005DA6FF07F029042B8BF1046C87188883F
:101EFC00844201D28C8010BD274A12680B68D21A1A
:101F0C00921C202A28BF1F22231A520823FA02F4FB
:101F1C002018B0F5803F28BF4FF6FF70888010BDA9
:101F2C002048006800B9704710B41F498A6802F055
:101F3C004063B3F1406F1ED04B689B071BD40F4B13
:101F4C001C680968C1F303511C31090114F0050F19
:101F5C0006D088420FD224F00500186010BC7047E0
:101F6C00814208D2100158BF44F00104500158BFFF
:101F7C0044F004041C6010BC7047000000000940D1
:101F8C00B824002030100940FDFDA4002422084094
:101F9C009C130050B43F00500820094000FFA4805F
:101FAC003410094028500940AC3F0050EFF310802A
:101FBC0072B67047EFF3108062B670471B4213D1B4
:101FCC00094236D12AB18446B0FBF2F002FB10C2B2
:101FDC00704700F0FDB8FCD30022002370470B00C3
:101FEC000200002100207047904271EB030CF6D3E5
:101FFC0070B5B1FA81F4B3FA83F52C1BA340C4F18C
:10200C00200532FA05F63343A2405FF00046E64065
:10201C0002E05B085FEA3202841A71EB030524BF0D
:10202C00204629467641F4D302000B0030000021F3
:10203C0070BD012ACFD970B5140C20D0B1FA81F43F
:10204C00B2FA82F5C4F120046419B4F12006D6D397
:10205C00B2405FF00044F440002502E052085FEA11
:10206C003303C61A71EB020E24BF3046714664412D
:10207C006D41F3D302000B002000290070BD0C460B
:10208C00B1FBF2F102FB11452D0445EA1045B5FBFD
:10209C00F2F402FB145580B240EA0545B5FBF2F0B0
:1020AC0002FB105240EA044070BD000038B5FFF747
:1020BC007DFF06490C684D68401E8041C00F18BF5B
:1020CC00FFF778FF280C40EA044032BD0820094095
:1020DC002D480068000C00F00700032828BF4FF0C3
:1020EC00FF30704729490968C1F30F314BF69A123A
:1020FC0091424FF0FF3001D1002070474BF6BE12D9
:10210C00914201D1012070474BF62032914208BF19
:10211C000220704710B41D491D4B0A681B680968E2
:10212C00120FDBB2802B28BF0023C1F30F314BF60B
:10213C009A14A1424FF0FF300CD1012A08D0032A87
:10214C001DD0072A1DD0082A08BF03F1160013E082
:10215C000A2011E04BF6BE14A14206D1002AF7D09A
:10216C00022A09D103F1140006E04BF62034A142F7
:10217C0004BF002A03F10A0010BC40B270471420BF
:10218C00FAE71520F8E700009412005018130050DD
:10219C00A010005080B5FFF7A5FF18B9FFF7BAFFE4
:1021AC00162800DAFEE701BD0748084A8168127854
:1021BC000068C90352B2A0F54070C9135043A1EB9B
:1021CC002010803000127047285009400C1300502A
:1021DC0070470000DFF800F0D9C10110DFF800F003
:1021EC0041AC0110DFF800F0ADB50110DFF800F0E4
:1021FC0019AE0110DFF800F0E5C10110DFF800F0B6
:10220C00CDA00110DFF800F085C20110DFF800F05E
:10221C0081C20110DFF800F055C10110DFF800F0A9
:10222C0043C20110DFF800F079AB0110DFF800F0C9
:10223C00D9B60110DFF800F085C10110DFF800F00D
:10224C00EDB30110DFF800F0C1C1011020B108237B
:10225C002C220021FFF74AB8704720B108233C22FA
:10226C000021FFF7B7BF704780B5FEF7BDF9ADF899
:10227C000000FFF735FCADF80200009802BD01B577
:10228C00BDF80200FFF730FCBDF80000BDE80240CD
:10229C00FEF7AEB938B5DFF86448DFF864580020B3
:1022AC00A4F86C0AE820208040F68410A4F8E8001A
:1022BC0004F1E8006860002000F003F8A8606C608E
:1022CC0031BDF8B500240025061D16F003001CBF17
:1022DC00311D0E1AFFF7C8FFDFF82418B6B20860DC
:1022EC00112EB4BF4F688F6839880B0403D581F465
:1022FC000041002519E0A5B123883A8813442380B6
:10230C009BB2B34211D327461946B7B1891B89B288
:10231C000429A7BFF15346F40041398841F4004128
:10232C0009E0B142F1DA01253C46CF193988002980
:10233C00DBD1002701E027F8041BFFF7A0FF38468C
:10234C00F2BD10B50446FFF78FFFDFF8B417221F5C
:10235C00086013885B045B0C13804B689A4238BF8F
:10236C004A60BDE810408AE738B50446FFF77CFFA9
:10237C0000210C23DFF88C2703FB0125AA6C4AB142
:10238C00944204D1FFF77BFF05F1480032BD491C94
:10239C000329EFD3FFF773FF002032BD70B505465C
:1023AC00FFF762FF044600200C22DFF8581702FBEF
:1023BC00001101F14806316849B90020B060356060
:1023CC000022FFF70FFF706018B900F069FC8D4216
:1023DC0004D12046FFF753FF304670BD401C032844
:1023EC00E3D32046FFF74BFF002070BD38B5044601
:1023FC00FFF73AFF0025DFF80C170C2202FB051241
:10240C00128842B1944203D1FFF739FFA8B232BD12
:10241C006D1C062DF1D3FFF732FFFF2032BD10B536
:10242C0004462088FFF7E2FFFF2800D16AE1DFF8BD
:10243C00D4160C2202FB00108168080002D16FF048
:10244C00010010BD2046BDE81040084702460FF2BF
:10245C00A070104710B500200C21DFF8A82600242E
:10246C0001FB0023401C03289C641C65F8D300204E
:10247C00002301FB0024401C06282380F9D30820EC
:10248C0010800FF255709060BDE8104002E770B5F7
:10249C0090B0FEF7A9F804466846FFF7DEFE05206B
:1024AC00069000224FF44870089069464FF20100E4
:1024BC000490DFF854060590DFF85006FFF796FEFF
:1024CC00050006D0FFF7D0FE06462846FFF766FF4C
:1024DC0008B900F0E5FB3046FFF7D1FE2046FEF7C9
:1024EC0087F810B070BD70B500F0E5F8FFF756FF37
:1024FC000546FFF7B9FEA2880021DFF808360C2646
:10250C0006FB01331E883EB91A805D60A2689A6092
:10251C00A1816968216165E7B24204D1FFF7AFFE82
:10252C006FF0020070BD491C0629E6D300F0B8FB21
:10253C0000BF38B500F0BFF8FFF730FF050016D02C
:10254C00FFF792FE0021DFF8BC250C2303FB0122D0
:10255C0013884BB94FF6F8731380556000239360C2
:10256C00A1806968A16015E7491C0629EBD300F02E
:10257C0097FB00BF10B5044660680C3080B2FFF7C3
:10258C00A0FE10B96FF0030010BD6168018100213D
:10259C000160FF2181720C30A060002010BD80B55D
:1025AC0040680C3810E080B28BE610B504466068C9
:1025BC0080B2FFF786FEA06000280CBF6FF003000E
:1025CC00002010BD80B54068FFF7BBFE002002BDA7
:1025DC0038B504460D46FFF747FE002145F80C1CA4
:1025EC00216811B9256006E0114651F80C2C002A1F
:1025FC00FAD141F80C5CBDE8324040E62DE9F041DF
:10260C0004466FF00206E068A0F10C05E08806288D
:10261C00BCBFA08806280BDAFFF726FEE188DFF89E
:10262C00E4840C2707FB0181496819B9FFF727FEE1
:10263C00304617E0FFF723FEA0882871E088687108
:10264C00207AA871E088E16807FB008040680830B8
:10265C00FFF7BEFFE08807FB008040684068FFF78B
:10266C00BDFD0020BDE8F08170B500F024F8FFF747
:10267C007BFE10B96FF0040070BD00F10806FFF787
:10268C00F3FD3168002541B10D46A5F10C010A6836
:10269C00326000220A60FF228A72FFF7F0FDA5600B
:1026AC00A5F10C010DB9022070BD0879A080487904
:1026BC00E080002070BD0446FFF79CBD06280BDAB5
:1026CC00DFF840240C2303FB0020008800281CBFEB
:1026DC004FF6F872904202D14FF0FF3070470880ED
:1026EC0000207047811D8088E8E710B50446E0881B
:1026FC00FFF77CFEFF2800D104E0E0802046BDE817
:10270C0010407BE74FF0FF3010BD3EB50446FFF79D
:10271C00ABFF050017D1A0886946FFF7CFFF78B152
:10272C00A06802900821ADF8041001A80321ADF8AF
:10273C000610DFF8DC13896888476FF005003EBD92
:10274C00BDF80000A08028463EBD10B5DFF8C423BC
:10275C0012680C464FF47A71A1FB00010023FFF7BD
:10276C002DFC002902D8B0F1004F02D36FF002000B
:10277C0010BD2060002010BD38B5FFF79CFFFFF79F
:10278C00F3FD0546FDF768FF002818BF012800D0AF
:10279C0015B96FF0040032BD606840B90090009923
:1027AC006868FFF72BFD401E8041C00F32BD10F151
:1027BC00010F08BF4FF0FF30F0D000F050F90028A7
:1027CC00EDD032BD80B54068FFF708FD002002BD9A
:1027DC0000F066FA00BF80B54068FFF713FD0020DB
:1027EC0002BD80B54068FFF711FD002002BD80B529
:1027FC00FFF710FDFFF712FD002002BD80B5FDF7BD
:10280C00F3FEFFF76DF9002002BD10B58CB0044645
:10281C006846FFF71BFDE02000F013F808B900F044
:10282C003FFA0BE010B58CB004466846FFF70EFD7E
:10283C00E06800F006F808B900F032FA00200CB09D
:10284C0010BD08900023A16860686A46FFF7EABCD7
:10285C0010B50446FFF7EAFC6060002010BD01468D
:10286C00886849680847F0B507468BB0BC68A84D26
:10287C006CBB0C20FFF725FD04006FF003061ED087
:10288C0008232422002101A8FFF7D4FC0020ADF876
:10289C00140006900794002379689F4801AAFFF75B
:1028AC00CDFC206068B90820ADF800000C20ADF814
:1028BC0002006846A96888472046FFF742FD30466B
:1028CC0018E0F86860603869A060BC600AE02868AD
:1028DC00804706462068FDF78FFE3869A0603046B9
:1028EC006968884779682068FDF78AFE2068FDF7DB
:1028FC008BFE00200BB0F0BD10B5044682B06068B2
:10290C0000F0ADF820B9009860602046FFF7ABFFEF
:10291C0016BD80B5406810B96FF0020002BD0068AA
:10292C00FDF76AFE002002BD7A490968416000206B
:10293C00704750B50446774802686FF00046A6FB16
:10294C00020100234FF47A72FFF738FB002902D8FA
:10295C00B0F1004F00D330466060002050BD2DE92F
:10296C00F04186B00646FFF745FCFFF7FDFC044638
:10297C00002002900025FDF76FFE002818BF0128EB
:10298C0000D014B96FF0040066E0706820B110F14B
:10299C00010F03D14FF0FF30009004E000F05FF81E
:1029AC005FEA000857D1FFF741FC00994FF001088E
:1029BC000F1800E0009000996068FFF71FFC80B3CF
:1029CC0003A8FFF751FE5FEA00081AD1BDF810000A
:1029DC0001A9FFF773FE80B9059ABDF81210BDF876
:1029EC000400B368984740B1BDF80400B081BDF84D
:1029FC001200F0810598306113E0059902A8FFF7E9
:102A0C00E7FD00986D1C10F1010F18BF00284FF066
:102A1C000108D0D0FFF70AFC381A02D00099814285
:102A2C00C8D2029EFFF720FC04F1080756B13146CC
:102A3C0000E0114651F80C2C002AFAD13A6841F802
:102A4C000C2C3E60FFF71BFC002D03E06068FFF7C9
:102A5C00C5FB6D1EFAD1404606B0BDE8F081694653
:102A6C0073E6F8B5FFF727FE0546FDF7F5FD0028E0
:102A7C0018BF01286FF0040613D0FFF7F5FB0021F7
:102A8C00204A0C234B439F5A4FB19B185B681B6821
:102A9C00AB4201D1A18041E0491C0629F1D3FFF7DB
:102AAC00EEFB3046F2BDF8B50446FDF7D5FD002827
:102ABC0018BF012802D16FF00400F2BDFFF79AFB9A
:102ACC000546FFF7D1FBA7880E4A00210C234B4388
:102ADC009E5A6EB1BE4208D1991849680968A9423C
:102AEC000CBF01210021A16018E0491C0629EDD37F
:102AFC00FFF7C5FB4FF0FF30F2BD00009C0A002031
:102B0C00A42400206C200020C009002059240000BF
:102B1C00100A00207C5C00006B280000FFF7AFFB64
:102B2C000020F2BD70B504463C20FFF7CAFB05003F
:102B3C006FF0030611D0FFF790FB207AA8610022FA
:102B4C00608928622946E06828616068FFF74EFBBF
:102B5C0004462846FFF7F5FB0CB9304670BD002043
:102B6C0070BD70B504462420FFF7ABFB05006FF079
:102B7C00030613D0082324220021FFF763FB2079DE
:102B8C00012808BF2876A06800222946FFF72AFBF7
:102B9C00E0602846FFF7D5FBE06808B9304670BD09
:102BAC00002070BD10B5044682B0A06840B90090FA
:102BBC0000996068FFF722FB401E8041C00F16BDD4
:102BCC0010F1010F08BF4FF0FF30F0D0FFF747FFB7
:102BDC000028EDD016BD00004188292902D36FF0E2
:102BEC00010070470FF2140252F821100847000040
:102BFC002B240000752200008B220000F32400001F
:102C0C003F25000081250000AB250000B725000002
:102C1C00D12500000926000075260000F7260000CB
:102C2C001727000085270000D1270000DD270000B2
:102C3C00E3270000EF270000FB2700000928000015
:102C4C00172800005D280000052900003529000028
:102C5C003F290000F1260000C55500008D560000EC
:102C6C006B2900006F2A0000732800001F29000048
:102C7C00275600005F56000073560000B32A000070
:102C8C00C5560000E1560000312B00006F2B0000F0
:102C9C00B12B0000D7560000EF5600003128000081
:102CAC00012000F001B80000202109032631182072
:102CBC00ABBEF9E7DFF800F025B101102DE9F84CB7
:102CCC00DFF83C790C46002640F2013B92467B78BB
:102CDC00398A97F804C097F803E0B0EB0B0540F67F
:102CEC007B4232D06D1E37D06D1E3DD0AD1E41D013
:102CFC006D1E00F07D806D1E00F080806D1E00F05A
:102D0C008D806D1E00F09D806D1E00F0A2806D1EEA
:102D1C0000F0A7806D1E00F0AD806D1E00F0B2803B
:102D2C00ED1E00F0B7806D1E00F0BC806D1E00F033
:102D3C00C1806D1E00F0C6806D1E00F0CB806D1F33
:102D4C0000F0D380AD1E2ED0E7E0102C05D1102260
:102D5C00514607F1A4008AE0102C40F0DC801022D0
:102D6C00514607F1B40082E0042C6BD1DAF8000074
:102D7C00F862DDE0012C65D1BCF1010F36D09AF878
:102D8C000000F870BEF1000F06D00028F1D1022B24
:102D9C001BD0052BEDD118E00028EAD0012B21D057
:102DAC00042B1DD11EE0012C4CD1BEF1010F1DD006
:102DBC009AF800003871BCF1000F0AD0002807D136
:102DCC00032B1CBF072B052B02D1C8B200F059FEF8
:102DDC00AEE00028FCD0012B1CBF042B062B01D02D
:102DEC00052B02D1012000F004FCA1E012269FE08B
:102DFC00022C27D1BAF80000B88299E0202C0EDA08
:102E0C0007F1CC061F21304601F05CF800F097F872
:102E1C00388A7C713346224601210EE0202C7ADA66
:102E2C0007F1EC061F21304601F04CF800F087F852
:102E3C00388ABC71334622460021C0B200F004FE31
:102E4C0073E0012C67D19AF80000052863DAF87159
:102E5C006EE0012C5FD19AF8000004285BDA38721E
:102E6C0066E0062C57D10622514607F5867001F014
:102E7C002DF85DE0012C4ED19AF8000008284ADAB2
:102E8C00787255E0012C46D19AF80000042842DAF9
:102E9C00B8724DE0012C3ED19AF8000002283ADAC3
:102EAC00F87245E000F047F835D1811F914232D2DB
:102EBC0038833DE000F03FF82DD1811F91422AD29A
:102ECC00788335E000F037F825D1B0F5FA7F22DAB7
:102EDC00B8832DE000F02FF81DD1A0F10A0140F6C7
:102EEC007742914217D2F88322E0012C04BF9AF862
:102EFC00000001280FD107F1800001F07CF840B9E7
:102F0C0000F01CFB060013D107F15C0001F07AF80D
:102F1C000EE016260CE018260AE0272807DA022C09
:102F2C0005D1BAF8001000F0BFFD064600E00226FD
:102F3C003046BDE8F28CBAF80000022C70472246ED
:102F4C005146304600F0C2BF38B500244FF44073F0
:102F5C000D46C21ADFF8A81636D0521E36D0521EB5
:102F6C0037D0521E38D0521E39D0521E3AD0521E73
:102F7C003CD0521E3CD0521E3DD0521E3ED0521E52
:102F8C003ED0521E3ED0521E40D0521E40D0521E39
:102F9C0040D0921E40D0521E40D0521E40D0521EE5
:102FAC0040D0521E40D0521E40D0521E45D0521E10
:102FBC0045D0521E45D0921E47D0521E14D0521EE0
:102FCC0041D0521E43D045E0887841E01022A43114
:102FDC002FE01022B4312CE0C86A286041E00622B0
:102FEC00C43126E0C87833E0087931E0888A35E0CE
:102FFC004A79CC311DE08A79EC311AE0C87927E0A6
:10300C00087A25E0062201F5867112E0487A1FE065
:10301C00887A1DE0C88A21E0C87A1FE0088B1DE081
:10302C00488B1BE0888B19E0C88B17E0062201F552
:10303C008A71284600F04AFF13E0088C0EE0488C99
:10304C000CE0888C0AE0087B02E0487800E0487BC2
:10305C00287006E0272803DA00F042FD288000E003
:10306C000224204632BD1CB5DFF89445617889B93D
:10307C0000B1206304F12C00019004F1B400009025
:10308C0004F1A403208AA1780022C0B200F097FCBE
:10309C00002016BD112016BDDFF864054178062905
:1030AC0018BF072905D1C18A008A1322C0B200F0CB
:1030BC00ACBC1220704700B58FB008233C22002115
:1030CC006846FFF787F8DFF83C0500F150010791DF
:1030DC0000234FF4DC7108916A46032106910FF22C
:1030EC00D101FFF7E7FD0FB000BD70B584B000F063
:1030FC0016F90120DFF81015DFF8044509680FF206
:10310C000D55ADF80200002668468847BDF804004E
:10311C0020820298A062002060704FF6FF70E0825F
:10312C0000F0FCFC20700023012001900022002004
:10313C000090294604F1380000F022FF022000F034
:10314C002FF804F15C0000F01BFF042000F028F8BD
:10315C0004F1800000F014FF0420A07004F1A4021C
:10316C0000200021002300252BC204F1B405103AE5
:10317C004BC5E062E0712072A172072060721021D1
:10318C00022000F056FE103D2A461021032000F0CC
:10319C0050FE04F12C020421042000F04AFE7FBDF5
:1031AC000190002300200090002229467047000067
:1031BC00FEB5FFF79AFFDFF84854DFF84C4405F1F1
:1031CC00800700F0ACF80A20ADF802004FF0FF3099
:1031DC00019068462168884700284BD100F09FF881
:1031EC000920ADF80200684621688847BDF8061032
:1031FC00029E00283ED1BDF80400102804BF288A86
:10320C0081422DD130884FF6FF71884209D17088E8
:10321C00400425D505F12C020421042000F01EFEEB
:10322C001EE03078A22805D0D02804BF304600F02C
:10323C007AF815E07079132812D13089012804BF6F
:10324C00A87B022805D1384600F0DCFEFFF724FFEE
:10325C0006E0052000F044FC0146384600F0B6FEBE
:10326C0046B100F05CF80320ADF802000196684608
:10327C0021688847688AC10730D54FF6FE7108402F
:10328C006882E9782879014328D018B103208DF899
:10329C0000000CE0E8798DF800000622287A8DF801
:1032AC00010005F586710DF1020000F00FFE687A41
:1032BC008DF808006946A87A8DF80900288AC0B2F2
:1032CC0000F0BEFB00281FBF08206870286B002888
:1032DC0004D0016808001CBF08208847688A810751
:1032EC0006D54FF6FD7108406882002000F026F9E3
:1032FC00688A41070AD54FF6FB7108406882A87BA3
:10330C00012804D0022808BFFFF7C6FE59E7009039
:10331C00EB8BAA8B698B288B00F044F951E70820C2
:10332C00ADF800007047F8B50546B54CA87801001B
:10333C0004F58A7704F1800612D002283BD00328CA
:10334C0018BF04285BD0052800F08180062800F007
:10335C00AB80072800F0CD800F2800F0E980F1BD8C
:10336C006878D8B904F1A4021021022000F076FD8F
:10337C0004F1B4021021032000F070FD0622E91CB8
:10338C0004F1C40000F0A2FD0120607004F1CC0334
:10339C00208A62790121C0B200F056FB08B10820E6
:1033AC006070206B30B10168080003D06078BDE814
:1033BC00F4400847F1BD6878E8B9E87848B1208A4C
:1033CC00A27904F1EC030021C0B200F03DFB68705F
:1033DC0011E06078022818BF07280CD0062802D10B
:1033EC002079012807D104F1380000F004FE10B94F
:1033FC00012000F0FEF868780028DBD0CFE7697870
:10340C0021BB03280AD16078062808BF0720C7D043
:10341C00E07800280CBF03200220C1E7A18AE078E5
:10342C00002907D0227910430AD004F1380000F0AB
:10343C00CDFD05E0012807BF0020E07000202071C1
:10344C006078072814BF04200620A9E7A7E768784E
:10345C0020BB0622291D384600F038FD6889E08221
:10346C0006206070E8892084288A6084688AA08499
:10347C00E8782073E07A012809D11F2000F030FB96
:10348C004FF47A71414304F15C0000F09FFD6A89AE
:10349C00E8780423291D00F0BCF982E73128D5D146
:1034AC000020E07004207BE7A88800F0C9F9062111
:1034BC00384600F007FD002020846084A084A879A1
:1034CC00607304F15C0000F09DFD304600F09AFD45
:1034DC004FF6FF70E082207908B1032060E7A879ED
:1034EC0008280CBF052004206070012000F081F832
:1034FC0057E7304600F086FD687800280AD1E88846
:10350C002084288960846889A08404F15C0000F020
:10351C0072FD00287FF44EAF636B002B3FF44AAF73
:10352C00A28C618C208C1B6801B0BDE8F040184760
:10353C00A888BDE8F440052100F0A8BAFEB5304DCE
:10354C00298B0446288C884224BF698B814207D37F
:10355C00688CA98B884202BFA88CE98B88421ED04C
:10356C00052000F0BDFA0646E88AADF80000288B6D
:10357C00ADF80200688BADF80400A88BADF806001E
:10358C00E88BADF80800684600F03AFA070007D15E
:10359C00AC73314605F1800000F018FD00E01827EF
:1035AC003846FEBD70B5164C6578062D01D014203A
:1035BC0070BD40F67A45861FAE423CBF8E1FAE42B0
:1035CC0015D2B2F5FA7F12DAA3F10A0540F6764667
:1035DC00B5420CD220836183A283E3830498FFF766
:1035EC00ADFF04F15C0000F00DFD002070BD182053
:1035FC0070BD03494A8A10434882886AFEF7EEBDC3
:10360C0038030020641E0020180A0020F1E7000097
:10361C00E0B50821ADF800100190022100F00FF880
:10362C00002814BF002002980EBD00B583B00821FD
:10363C00ADF800100190032100F001F807BDADF8C2
:10364C0002106846DFF8FC15096808471FB5ADF88D
:10365C000610ADF804000824DFF8E8158DF80820F2
:10366C000393ADF80040ADF80240684609688847FE
:10367C0004B010BD30B585B0144608220291ADF8E7
:10368C0000201922DFF8BC1509680190ADF8022062
:10369C001D466846884714B1BDF80C10218015B141
:1036AC00BDF80E102980089A0499116005B030BD40
:1036BC0000B583B00820ADF800001A2000F014F813
:1036CC0000280CBFBDF80400FF200EBDE0B5ADF81E
:1036DC000000ADF80610002000F006F800280CBF22
:1036EC009DF80800FF200EBDDFF858150968ADF8ED
:1036FC0002006846084750B110F1040F01D10420B4
:10370C00704710F1030F01D1022070470120704760
:10371C008123037042EAC111002341F47C41C37040
:10372C00818070478223037081800023C370827173
:10373C0070473EB504460820ADF800000D46202029
:10374C00ADF802001020DFF8FC140968ADF8040095
:10375C006846884720B9029810B16FF004003EBD4E
:10376C0000950023002221464FF0FF30FFF782FF27
:10377C003EBD10B582B01446CA78012A03D18A889E
:10378C00DFF8D8341A8000F010F858B90090694668
:10379C002046FFF7CEFF28B900984478FFF745FF85
:1037AC00204616BDFFF7A7FF16BD0B4602221021BF
:1037BC004CE738B51C461546FFF7F7FFB8B9009033
:1037CC0069462846FFF7B5FF88B900984578002D63
:1037DC0004BFC079A04205D10098816804982246A4
:1037EC0000F074FB0098FFF720FF284632BDFFF76E
:1037FC0082FF32BD38B500F0F2F9050004D0042286
:10380C0000F032F8AC6026E031BD3C81BD72FE6048
:10381C004EE72DE9F04100F040F907000FD01422DB
:10382C0000F022F83C72FD603E8287F81280FFF7B0
:10383C003FFF3946BDE8F041DFF8242499E72FE03B
:10384C0038B500F030F8050001D0152200E031BD8C
:10385C0000F00AF82C81FFF72BFF2B4601B0BDE8D6
:10386C00304002221021F1E601215BE70022042105
:10387C005FE02DE9F04100F010F9070010D00222B2
:10388C000421FFF74FFFBC60BD81BE73C7F81080E9
:10389C00FFF70EFF3946BDE8F041DFF8C82368E7B3
:1038AC000420BDE8F08104460A20B1E60022032181
:1038BC003FE000B583B00FF2490301930623009358
:1038CC00032300F04AF80EBD1078802802BF508800
:1038DC0040F27F61884208D19088984202BF91796A
:1038EC000098814201D1012070470020704710B52B
:1038FC0082B00624FFE70094FFF7E6FF16BD000038
:10390C000323F4E71078802802BF508840F27F61CF
:10391C0088420CD19088032818BF042807D19079CD
:10392C0000281CBF1028112801D10120704700204D
:10393C007047F8B500F03DFA07000CD03246294626
:10394C00FFF7F0FEBC60FFF7B3FE3946BDE8F84068
:10395C00DFF814230DE70420F2BD2DE9F04100F04F
:10396C0027F807000AD0069A4146FFF7DBFE3C8198
:10397C007D81FFF74CFF079A00F03CBA90E7424676
:10398C000321C5E670B582B000F085F9FFF790FE13
:10399C001B210091C3B232462946204600F029F97A
:1039AC0076BD10B582B01D24009400F022F916BD2E
:1039BC0004460D46164698461020FFF729BE2DE901
:1039CC00F04180460D4616461F461820FFF720FE94
:1039DC00040014D0002200F05DF800F026FA2072EA
:1039EC006572A672E7600698206107986061FFF720
:1039FC005FFE2146BDE8F0410FF21132B9E64FE708
:103A0C000FF20D331122002149E1F8B500F0EBF86B
:103A1C0007000FD00A2200F03DF800F00DF83872C4
:103A2C007D813E73FFF744FE3946BDE8F8400FF246
:103A3C00E5229EE60420F2BD21465020FFF746BE4B
:103A4C000FF2D52306223BE12DE9F04180460D46CD
:103A5C0016461F461020FFF7DBFD040010D007228E
:103A6C0000F018F800F0E1F920726572A672E760B8
:103A7C00FFF71EFE2146BDE8F0410FF2A12278E6C9
:103A8C000EE70FF29D230822002119E10FF2952376
:103A9C001022EFE00421FFF73BBE04460D4616460C
:103AAC0098461420FFF7B4BD70B500F014F806006A
:103ABC000BD03022FFF7EEFF00F009F83146BDE8DD
:103ACC0070400FF26522FFF754BE042070BD3481A4
:103ADC007581FFF7EDBD04460D460C20FFF798BD30
:103AEC0030B583B004460020ADF8040000F013F8A4
:103AFC0005000DD03122FFF7CDFF2C81FFF7D8FD4B
:103B0C0001A9009102230FF225222946FFF751FE4D
:103B1C00BDF804003EBD0A20FFF77ABD1CB500209D
:103B2C008DF8040000F012F804000CD01222FFF7FC
:103B3C009BFEFFF7BDFD01A9009101230FF2F112CD
:103B4C002146FFF736FE9DF8040016BD0820FFF74E
:103B5C005FBDF8B500F012F807000DD03622FFF764
:103B6C0099FF3C817D81FFF752FE3946BDE8F84054
:103B7C000FF2CD12FFF7FDBD0420F2BD04460D4639
:103B8C0016461020FFF744BD70B5054682B00C46B2
:103B9C00FFF7C1FF060020D03722FFF77BFF3581EE
:103BAC00FFF786FD3346FFF701FE98B90090694692
:103BBC000FF29110FFF7BDFD60B90098457825B95B
:103BCC00C2798168204600F081F90098FFF72DFD3D
:103BDC00284676BDFFF78FFD76BD042076BD0446E2
:103BEC000C20FFF715BD04460D4616460E20FFF7B8
:103BFC000FBD2DE9F041FFF750FF070011D0069AD9
:103C0C00FFF7BEFE3C813E74FD6000F00EF9787447
:103C1C00FFF74EFD3946BDE8F0410FF25D12FFF79C
:103C2C00A8BDFFF73DBE38B51446104A15682A00EA
:103C3C0006D0009302460B4621460120A84732BD10
:103C4C00002032BD180A0020094A13681A0003D05C
:103C5C000A46014601201847704700008C0A0020D4
:103C6C00A53D0000AB3D000011390000C024002030
:103C7C00C42400202DE9F04100F00DF898460C20EA
:103C8C00FFF7C6FC070004D000F016F83C81BD72AB
:103C9C00ADE0FFF705BE04460D46164670472DE90C
:103CAC00F041FFF785FE070004D000F005F8BC607A
:103CBC00FD609CE0FFF7F4BD32460421FFF728BD00
:103CCC002DE9F041FFF774FE070006D0FFF7F4FF73
:103CDC00FFF7B2FE3872FD6089E0FFF7E1BD1078A6
:103CEC00802802BF508840F27F6188420CD19088B6
:103CFC004FF680710140B1F57E4F04BF00F07F009C
:103D0C00984201D101207047002070470023E6E75C
:103D1C001123E4E70A23E2E70623E0E70723DEE7C3
:103D2C000823DCE71023DAE73023D8E73123D6E782
:103D3C0080B5122300930123FFF7C6FD02BD0000DE
:103D4C003623CCE73723CAE71078802802BF508887
:103D5C0040F27F6188420DD190884FF6807101400E
:103D6C004FF68052914204BF00F07F00984201D17F
:103D7C00012070470020704770B5FFF78CFF1D23A2
:103D8C00FFF7E2FF30B9324629462046BDE87040C5
:103D9C001B23D9E7012070BD80B51423CAE780B579
:103DAC00022300930423C7E70FF2710142F21000C3
:103DBC0005E004460D4616460C20FFF729BC70B5ED
:103DCC0004460D46FFF7C2FE06000CD08120307071
:103DDC00B4800120F070FFF76BFC2A463146BDE839
:103DEC007040FFF7C6BC042070BD3D81FE60FFF73C
:103DFC005FFC42463946BDE8F041FFF7BABC10788B
:103E0C00802802BF508840F27F61884204BF9088AE
:103E1C00984201D1012070470020704742F21003F4
:103E2C00EDE700003C817D81BE8141465020FFF7CB
:103E3C004DBCF8B5FFF7A2FE07000DD0012200F033
:103E4C0022F83C727D72FFF7E2FC3946BDE8F8407F
:103E5C000FF26902FFF78DBC0420F2BDF8B5FFF735
:103E6C008DFE07000DD0022200F00DF83C727D7221
:103E7C00FFF7CDFC3946BDE8F8400FF24502FFF7DD
:103E8C0078BC0420F2BD0521FFF742BC10788028D5
:103E9C0002BF508840F27F6188420DD190884FF666
:103EAC00807101404FF68062914204BF00F07F00A8
:103EBC00984201D101207047002070470123E5E7AB
:103ECC000223E3E7002200F0E5B8000062B38B07A1
:103EDC0008D0521E11F8013B00F8013B00F0248081
:103EEC008B07F6D1830740F0208000BF103A07D330
:103EFC0030B4B1E83810103AA0E83810F9D230BC20
:103F0C00530724BFB1E80810A0E8081044BF51F8CB
:103F1C00043B40F8043BD20724BF31F8022B20F8B5
:103F2C00022B44BF0B7803707047083A07D3B1E8F3
:103F3C000810083A40F8043B40F804CBF7D253077A
:103F4C00E4E70000DFF800F079B50110DFF800F0CD
:103F5C00F5B80110DFF800F0B5C10110DFF800F082
:103F6C00A9C1011000B583B00821ADF80010019073
:103F7C000521ADF80210684644490968884707BD19
:103F8C00F0B589B004460D4616461F460823242278
:103F9C0000216846FEF74EF90F983D4909680690D6
:103FAC006B464FF47A70B0FBF1F101FB07F0059012
:103FBC0001FB06F20E98ADF8100029462046FFF7DB
:103FCC00C1FF204609B0F0BDFCF71EBB38B5044656
:103FDC000D46FCF7AAFB10B12046FCF70DFB00F0D8
:103FEC0013F800FB05F12046FCF70AFB2046BDE860
:103FFC003240FCF709BB80B5FCF797FB00B1012000
:10400C00C0B202BDFCF7F8BA214909684FF47A70C6
:10401C00B0FBF1F0704710B504460021FFF796FF96
:10402C00204610BD70B584B004460820ADF80000E1
:10403C000D460420ADF802000C20144909680190CB
:10404C0016466846884758B9029949B18E60204691
:10405C00FFF780FF15B12846FEF7C0F8012003E0FA
:10406C003046FFF77FFF002004B070BD10B504464A
:10407C00FCF7B6FA38B92046FFF770FF8468FFF7F3
:10408C0071FF204610BD002010BD0000180A002052
:10409C007C5C0000401810F0030308D0C91A1FD331
:1040AC00DB0748BF00F8012D28BF20F8022D1300B4
:1040BC0030B414461546103928BF20E93C00FAD814
:1040CC00490728BF20E90C0048BF40F8042D89009F
:1040DC0028BF20F8022D48BF00F8012D30BC7047D6
:1040EC00C91818BF00F8012DCB0728BF00F8012D07
:1040FC0070470000E0B50821ADF8001001900421D4
:10410C0000F00FF8002814BF002002980EBD00B577
:10411C0083B00821ADF800100190052100F001F8E2
:10412C0007BDADF802106846DFF8001809680847AB
:10413C0000B58FB008233C2200216846FEF74AF8F0
:10414C00DFF8EC0700F15001079100234FF42171C7
:10415C0008916A46012106910FF25921FEF7AAFD3A
:10416C000FB000BD3EB500F031FA0120DFF8BC17EE
:10417C00DFF8C04709680FF27D75ADF8020068469C
:10418C008847BDF80400E0800298606104F1B40037
:10419C00FFF741FFA0610023022001904FF47A72D7
:1041AC0000200090294604F12400FFF7E9FE0420CA
:1041BC00019000230020009041F28832294604F13E
:1041CC006C00FFF7DDFE80200190002300200090A2
:1041DC0043F69822294604F19000FFF7D1FE0820FF
:1041EC0001904FF4FA730020009040F6B832294643
:1041FC0004F14800FFF7C4FE0FF2D93000F0A2FB27
:10420C000020ADF80A00ADF800000DF10102C82045
:10421C00ADF8080001214FF4C860ADF8060000208D
:10422C00ADF804004FF47A70ADF8020040F205309E
:10423C00FEF744FD0DF10A02022140F20630FEF7B2
:10424C003DFD04F1C0020F214FF44270FEF736FD24
:10425C0004F1D002072140F20730FEF72FFD6A4629
:10426C0001214FF44470FEF729FD02AA022140F20D
:10427C001130FEF723FD0DF10602022140F212303F
:10428C00FEF71CFD01AA022140F21330FEF716FDC9
:10429C000DF1020202214FF44570FEF70FFD04F1FF
:1042AC00D80215210020FFF704FB0020029002AA7F
:1042BC0002208DF80400042100208DF80300032057
:1042CC008DF8020001208DF801008DF800004FF4EC
:1042DC008160FFF73EFC01AA01214FF48060FFF7DB
:1042EC0038FC0DF10302012140F20240FFF731FCD2
:1042FC000DF10202012140F20340FFF72AFC0DF1FF
:10430C000102012140F20640FFF723FC6A4601211D
:10431C0040F20D40FFF71DFC4FF0FF30FFF7C6FADF
:10432C004FF0FF30FFF7A2FA4FF0FF3000F0B8FB70
:10433C0000F07AFD0FF2AD510FF2815000F0E5FB69
:10434C0007208DF805000DF103020A208DF80400FA
:10435C008DF80300012105208DF802000C208DF84A
:10436C00010003208DF80000072000F0D2FB0DF1B6
:10437C00020200F01BF80DF1010200F017F86A467A
:10438C0000F014F801AA0121042000F0C2FB0DF189
:10439C0005020121032000F0BCFB04F1F000FEF744
:1043AC0062FE0FF29850FFF725FA37BD0121072066
:1043BC0000F0AFBB2DE9F04184B0FFF7D3FEDFF87E
:1043CC007445DFF8685504F1900801E0FEF764FECF
:1043DC0000F0FCF80A20ADF802004FF0FF3001901D
:1043EC0068462968884700282BD100F0EFF809208F
:1043FC00ADF80200684629688847BDF80610029F90
:10440C00D8B9BDF80400102801BFE0888142387883
:10441C00B02804D1397907F10800FFF715FC67B112
:10442C0000F0D4F80320ADF8020001976846296823
:10443C00884702E03846FFF76AFEA069FCF7D0F81F
:10444C0000284CD1A069FFF711FE0700F5D0388881
:10445C00012807D010283DD0202804BFB87800F0E0
:10446C0087F9E7E778680668B878401E06282DD8E3
:10447C00DFE800F0252C190E0804040000F0A2F867
:10448C0020BB03E004F12400FFF7BCFD404607E02D
:10449C004046FFF7B7FD2078062817D104F1240019
:1044AC00FFF792FD12E000F08DF810B94046FFF7CF
:1044BC008BFD04F12001042000F047FB06E000F026
:1044CC0081F810B94046FFF77FFDE6617868FFF789
:1044DC001EFEAFE7B978002000F080F8AAE720892B
:1044EC0000284CD0410607D54FF6BF7108402081FB
:1044FC00E088C0B200F0D6FB208981070CD54FF6BE
:10450C00FD71084020812078062805D100F0DCF8E8
:10451C0004F12400FFF758FD2089410710D54FF610
:10452C00FB71084020814FF47A7301200090002227
:10453C004FF4C861C820FFF735F84046FFF744FD3B
:10454C002089010605D54FF67F7108402081FEF7C2
:10455C00A3FD2089010712D54FF6F7710840208181
:10456C00207806283FF432AF022809D100208DF8BC
:10457C0000006A46012140F20530FEF79FFB27E759
:10458C00617959B9012060716A46002060708DF81C
:10459C00000000F090F8FFF707FC19E701281CBF9A
:1045AC0004280528F9D100F082F804F14800FFF73F
:1045BC0029FD002060716A46002140F20940FFF796
:1045CC00C8FA05E704F12400FFF715BD0820ADF883
:1045DC000000704701460022102092E138B5D54CFE
:1045EC002079012804F190050AD10020207104F1F2
:1045FC004800FFF707FD2078062853D1284608E02D
:10460C00C80709D5012020712846FFF7FBFC04F1EF
:10461C004800FFF7D9FC31BD880708D5A078401CAD
:10462C00A070C0B204283DD10020A07031BDC806D6
:10463C0038D52078062835D000F042F82021092002
:10464C00FFF732FA42F2107100F034F940F20535FE
:10465C0069462846FEF778FC9DF8000018BB00F070
:10466C0026F80DF1010100208DF8010040F20E40FA
:10467C00FFF78AFA607858B99DF8010040B1032021
:10468C008DF802000DF1020200F015F801206070A7
:10469C006A4601212846FEF711FB9DF8000008B977
:1046AC000120E07031BD00208DF80000F0E7012002
:1046BC008DF800007047012140F20D30FEF7FEBA74
:1046CC0020210820FFF7F0B930B59A4C83B06089EF
:1046DC0000230B221B21FFF7A6FA002801903CD0E7
:1046EC00A2780FF25421525C00F8012BD107E36938
:1046FC0014D500F033F8190C00F8011B190E00F852
:10470C00011BE58900F8015B290A00F8011B022B4B
:10471C0034BF00239B1E05F50071E1819107E36115
:10472C000DD5A28900F8012B110A00F8011B238A70
:10473C0000F014F8911CA18103F5007121820199FC
:10474C00401AC0B2ADF802006946608900F010FA58
:10475C0018B11B216846FFF777FA37BD00F8013B0B
:10476C00190A00F8011B7047014600222020C8E0FE
:10477C00FEB50446062C6F4D0AD105F10A0140F234
:10478C000E30FEF7E1FB05F16C00FFF71DFC8EE02F
:10479C002878062840F2053640F20D3734D1012036
:1047AC008DF8020000208DF8000005F12400FFF7C1
:1047BC0029FC694640F20E40FFF7E6F9687868B9C3
:1047CC009DF8000050B103208DF801000DF101029D
:1047DC0001213846FEF772FA01206870052C42F26E
:1047EC00107703D1FFF76CFF202105E04FF4D56162
:1047FC00FFF767FF4FF4D5610920FFF755F900F07B
:10480C0058F80DF1020236E0022808BF042C37D10B
:10481C0069780020012908D18DF800006A463846D5
:10482C00FEF74CFA002101206970E97811B10020E3
:10483C00E8703CE044F6206750B10820FFF750F9CF
:10484C0020280AD1FFF733FFFFF73AFF20210CE0B5
:10485C000820FFF745F9202829D1FFF728FF4FF44E
:10486C00D561FFF72EFF4FF4D5610920FFF71CF936
:10487C0000F01FF86A4601213046FEF71FFA16E0D9
:10488C00012C14D101A94FF44170FEF75DFB01A876
:10489C0001AA41798DF80B1001798171C1784171B0
:1048AC0000210171C1700020082100F0C5FA2C70A4
:1048BC00F7BD39460020FFF7F7B8000038B50446BD
:1048CC000D460420FFF716FC50B1002D14BF2968CB
:1048DC000021016002462146BDE83840012010E06D
:1048EC0031BD00001348018941F04001018140694C
:1048FC00FDF774BC0F490A89104308814869FDF71C
:10490C006DBC70B504460D4616460820FFF7F2FB49
:10491C0050B10480857046600246BDE87040054B7E
:10492C0059699869FFF77EBB70BD0000180A00201A
:10493C00901B002054040020030001020000000022
:10494C000000000030B50446414D83B005F1300144
:10495C0005F1480000F0AEFCA8600FF2810100F0F8
:10496C00F6FCA8683B4A00F035F8A8683A4A00F013
:10497C0031F8A868394A00F02DF8A868384A00F0D8
:10498C0029F8A868374A00F025F8A868364A00F0DC
:10499C001DF8A868354A00F019F8A868344A00F0E8
:1049AC0015F8A868334A00F011F8A868324A00F0EC
:1049BC000DF80020019000900023C8220FF2810115
:1049CC0005F10C00FFF7DCFA6C6037BD4FF0C051FD
:1049DC0000F0C3BC4FF4E02100F0BFBC10B51C4C80
:1049EC00002020700B2000F0A6FC18B9207840F0B5
:1049FC0001002070132000F09EFC18B9207840F0C4
:104A0C00020020700C2000F096FC18B9207840F0C1
:104A1C00040020700F2000F08EFC18B9207840F0B4
:104A2C0008002070122000F086FC18B9207840F0A5
:104A3C001000207004F10C00BDE81040FFF7C4BA60
:104A4C00034841680A001CBF007808477047000003
:104A5C00740700200B000580130005800C000580F6
:104A6C000F000580120005800B00001013000010D1
:104A7C000C0000100F00001012000010E0B508210F
:104A8C00ADF8001001900421ADF802106846DFF873
:104A9C006C1309688847002814BF002002980EBDCB
:104AAC007CB5DFF85C53DFF85C6304462878800043
:104ABC00FFF7E4FFB06288B128788000FFF7DEFFD3
:104ACC00B16AF06260B90820ADF8000001910520D0
:104ADC00CA490968ADF8020068468847132076BDBC
:104AEC004FF6FF75284600F06FFCF16A284600F07F
:104AFC006BFCE00707D50FF22433C34810220B21BF
:104B0C00FEF7B7FE76BD002076BDBE4A106251623C
:104B1C00704710B500210328BA4B07D0042802D0E7
:104B2C00072806D00EE0107898700CE01078D88327
:104B3C0009E018780E2806DA1278C418401C227185
:104B4C00187000E00221084610BD00220328AD4B6E
:104B5C0004D00AD3052805D002D306E0D88B02E096
:104B6C00987800E0D878087000E002221046704770
:104B7C0038B50446A3480D46816A204600F066FC11
:104B8C00C00709D5A048408D288029462046BDE89D
:104B9C0038400022FEF7F6BE122032BD2DE9F0415E
:104BAC00984D82B08046A8690E461746012440B93C
:104BBC00A88B002311221D21FFF735F80028A861CE
:104BCC006ED00320E8826C70A5F814801020A969BF
:104BDC000870A9693078487096F800C0E88B2B6A89
:104BEC002A78BCF1010F00F0040106D0BCF1030FD0
:104BFC002BD0BCF1040F3ED04BE0062F47DAC00798
:104C0C0045D5781E04280BD17078B17800EB0120C3
:104C1C00F17800EB0140317900EB016000900EE07F
:104C2C000021009109E08F194FEAC10C7F78009A9E
:104C3C0007FA0CF7BA180092491C8142F3DB1800F2
:104C4C0028D069460120984724E0022F1FD1F1B1EA
:104C5C00707800214F193F79874204D0491CC9B2A2
:104C6C008A42F7D213E07078A870180012D0002195
:104C7C00032098470EE0012F09D141B1E88A1018A2
:104C8C00E882291DA869C01CFFF720F902E0032463
:104C9C0000E00224A8698470686A010018BF80478C
:104CAC00BDE8F38110B50346564CA08B002204F1ED
:104CBC001401FEF776FE20B11D2104F11400FEF75D
:104CCC00C3FF082104F11400FFF7FCF8002060700A
:104CDC0010BDF8B51446069A0AB10B20F2BD4A680D
:104CEC00484E1778527807EB0222002592B242F612
:104CFC000217D21B11D04FF4AD77D21B06D0521E27
:104D0C001CD101201880C868007815E0022018809A
:104D1C00C86800782070657011E0B26ACF6897425D
:104D2C0003D101211980114604E0F16A8F4205D1AB
:104D3C0001221A8000F08AFB207000E00A25326AFA
:104D4C00100002D00021062090472846F2BDF0B595
:104D5C0083B00F46154608991A46002409B10B205A
:104D6C00FEBD7968274E0B78497803EB012189B297
:104D7C0042F60213994216D042F65523994239D184
:104D8C00717809B1802436E0F16A01EB80018978F1
:104D9C00890758BF81242ED5B083D2B27889294691
:104DAC00FFF7FCFE27E0184B7989B3F8AAC06145E0
:104DBC0009D1022100F02AF8326A044610001AD0F8
:104DCC000021072014E05B8F994214D1012100F0DF
:104DDC001DF804000FD1326A10000CD028786978C5
:104DEC0000EB012080B200280CBF0520042000211C
:104DFC00904700E00A242046FEBD0000180A00205F
:104E0C0038030020D0080020000600200191134632
:104E1C0000942A46394600F0F1BA0000DF4C00003D
:104E2C005B4D0000000000000FF204237D481022AF
:104E3C001321FEF71EBD00002DE9F04300240828C5
:104E4C0085B00E469146784F00F28A80DFE800F07C
:104E5C00050C1824303C48537D00082E76D1324680
:104E6C00494607F1080076E0152E77DA152107F18F
:104E7C00100000F017FB3246494607F110006AE0BB
:104E8C00152E6BDA152107F1280000F00BFB3246CA
:104E9C00494607F128005EE0152E5FDA152107F16F
:104EAC00400000F0FFFA3246494607F1400052E05C
:104EBC00152E53DA152107F1580000F0F3FA32469B
:104ECC00494607F1580046E0152E47DA152107F13F
:104EDC00700000F0E7FA3246494607F170003AE0FC
:104EEC00152E3BDA88371521384600F0DBFA3246AE
:104EFC00494638462FE00820ADF808000420ADF8EC
:104F0C000A00039602A8DFF82481D8F8001088471D
:104F1C00C8B9049DBDB1786807F1A00188420AD0D8
:104F2C000821ADF8001001900521ADF8021068467B
:104F3C00D8F800108847324649462846FEF7C6FF87
:104F4C007D603E700DE013240BE0072E06D1324637
:104F5C00494607F1B000FEF7B9FF02E0182400E063
:104F6C000224204605B0BDE8F08300002DE9FE497F
:104F7C0090464A680A9C107852780B9D00EB0220F0
:104F8C001F46002680B242F62322274B801A04EBE0
:104F9C00030C07D0401E052810D9801F1ED02638C0
:104FAC0029D03AE0092C28D2C4F10800854228BF48
:104FBC00C4F108053D800CF1080129E0D1F80CB0D2
:104FCC00584600F073FA80B2A04216DB011B8D42EA
:104FDC00A8BF051B3D8004EB0B0119E018780146B6
:104FEC00A1420AD3001B8542A8BF0D1B3D80586807
:104FFC003A8821180DE0082C01D307260FE0C4F1E4
:10500C000700854228BFC4F107053D800CF1B001B3
:10501C003A884046FEF75AFF01E03E800A263046A9
:10502C00BDE8FE890802002048050020180A00206F
:10503C00794F00000000000000000000DFF800F0D5
:10504C0009B70110DFF800F03DC10110DFF800F0E6
:10505C0029AF011090FAA0F0B0FA80F0704780B53B
:10506C00DFF820030068FFF7F5FF0121DFF81823B4
:10507C00814011600121DFF814231160DFF8101357
:10508C000A6890420BD201EB80014A683AB113686E
:10509C00190004D0C1B21046BDE80440184701BD48
:1050AC00F8B50D00ECB244BF85F0204585F4C04541
:1050BC00A10001F1804101F5012100EA05060A6811
:1050CC00DFF8D0723E4085EA02038243324303404C
:1050DC0000F4E0261B0EB6F5E02F03F0010302D11D
:1050EC00D30105D411E010F4E02F08BF002B0CD035
:1050FC0002F4E023B3F5A02F04D0B3F5C02F04D1F4
:10510C00052300E0062363F312420A60410205D531
:10511C00A90DDFF8842201F00101115500020ED512
:10512C00FCF7DEFC00F00EF92C024CBF1C460024F0
:10513C009A4322430A60BDE8F240FCF7D5BCF1BDAE
:10514C00002948BF0021800000F1804000F50120BB
:10515C0001F03F010268920941EA82110160704737
:10516C002DE9F04F97B08146FCF7BCFF00250128D4
:10517C0004D1FCF7ADFF022808BF0125DFF81C02A3
:10518C00C168C1F3815101294FF0010A04D10068B3
:10519C00000E0AFA00F00543DFF80402DFF8F061B4
:1051AC000078DFF800020068C0F346003060FCF7BE
:1051BC0099FF012802D13068401C30603168DFF85B
:1051CC00E87119B1FF22384600F08CF94FF0000855
:1051DC00002405E0CC550AFA00F040EA0808641CEB
:1051EC0059F82400C1B2FF2908D03268914203D289
:1051FC0025FA00F2D207EDD5022058E00920FBF782
:10520C00C9FBC6F880900823242200210DA8FDF7C5
:10521C0019F88DF84CA00DAA012106F1A000FFF79A
:10522C000DFF0024DFF884A10BE05046FFF738FF98
:10523C004FF0FF31E0B2FFF783FF0020CBF8040002
:10524C00641C3068844212D225FA04F0C00706EBC5
:10525C00840B48BF0420F1D428FA04F0C00747BFE0
:10526C00E05D59F82010E0B240F4C041DDE70823BE
:10527C003022002101A8FFF7E5FE0020009001ABD1
:10528C00DFF82C21102106F18400FFF7DFFEDFF898
:10529C002401016821F47C5141F40051016001208A
:1052AC00DFF814110860DFF814110860002017B043
:1052BC00BDE8F08F2DE9F041DFF8D46004460D46CF
:1052CC0006F1A00800F032F800273DB9002020605C
:1052DC006060A06000271DB31EE07F1C15F827003E
:1052EC00FF28F3D03168884204D206EB8000406876
:1052FC000028F2D0002413E006EB800101224C6060
:10530C0002FA00F0616808436060204655F82720D7
:10531C00264900F022F87F1C15F82700FF28EBD156
:10532C004046FCF75BFF2046BDE8F0814FF0FF31B3
:10533C004046FCF763BF2249096821FA00F202F0EB
:10534C00010070471F490A680123A340704710B140
:10535C000160002070470220704738B50C4C25685E
:10536C000B461146CAB2AA4204D204EB820252681E
:10537C00824201D0022032BD1846FFF791FE002078
:10538C0032BD0000E0200240E020026080E200E03C
:10539C00A0230020007F077F00200240A83F005080
:1053AC00D3240020801208405C240020007FC767B3
:1053BC006B500000003009400C40094008000940C7
:1053CC00C0200240D020024038B54FF6FF74A042F6
:1053DC000DD10020324A137898420EDA21F8204081
:1053EC0001EB80050023401CAB70C0B2F3E700F06A
:1053FC0046F810B104800021817031BDF8B5044627
:10540C0006980D460026F0B9022B1AD11078517867
:10541C0000EB01270798C043B9B201420FD1E868ED
:10542C000168204600F012F8BFB2B8420CD0E86810
:10543C0001683A46204600F00FF8064604E0802644
:10544C0002E00D2600E00B263046F2BD80B500F0E0
:10545C0016F800B1807802BD70B504460D461646AC
:10546C0000F00DF840B929464FF6FF7000F007F830
:10547C0008B9112070BD04808670002070BD002218
:10548C0000E0521C064B1B78D2B29A4206D231F87D
:10549C0022308342F5D101EB820070470020704727
:1054AC0038030020002200F021B8000000F10103B5
:1054BC00810704D010F8011B89B18107FAD1026869
:1054CC00B2F10131914311F0803F04BF50F8042F29
:1054DC00F6E710F8011B11B110F8011BFBE7C01A1D
:1054EC007047000062F30F2262F31F4200B500BF49
:1054FC00130096469446103928BFA0E80C50FAD8F1
:10550C005FEA417C28BF0CC048BF40F8042BC90798
:10551C0028BF20F8022B48BF00F8012B00BD00006B
:10552C0080B501280BD002280BD0042802D0082803
:10553C0009D00AE000200A689047002002BD022032
:10554C00F9E70420F7E70520F5E7FDF7A9FB00BF15
:10555C0038B50446012504E005FA00F0C0B2FBF7AB
:10556C006FFAB4FA84F0202800D131BD00F01CF899
:10557C00F2DB401FC0B2FBF70DFAF2E738B5044678
:10558C00012504E005FA00F0C0B2FBF777F9B4FA94
:10559C0084F0202800D131BD00F006F8F2DB401F6A
:1055AC00C0B2FBF78BF9F2E7C0F11F00C0B205FAED
:1055BC0000F14C400528704738B500793C4CA8B137
:1055CC00FCF752FE05462078FF2805D12846FCF74B
:1055DC0056FE6FF0060032BD401C2070C0B2012890
:1055EC0004BF6068FFF7B4FF284612E0FCF73CFEEE
:1055FC00217821B9FCF743FE6FF0070032BD491E3C
:10560C002170C9B229B9FCF73AFE6068FFF7B6FF02
:10561C0001E0FCF734FE002032BD70B50446606832
:10562C0010F07F4F02D06FF0020070BDFCF71CFE33
:10563C001F4E0546307828B17068FFF79FFF6068F1
:10564C00FFF786FF606870602846FCF718FE0020A4
:10565C0070BD80B5406810F07F4F00D00DE0FFF7B3
:10566C0077FF002002BD80B5406810F07F4F00D05E
:10567C0003E0FFF783FF002002BD6FF0020002BDC4
:10568C001CB50446A168606808601420FCF78BFF09
:10569C00019010B96FF0030016BD002000900F218F
:1056AC00A3680198034AFBF760F9002016BD0000BF
:1056BC00280A00202D55000010B50446FBF7CAF847
:1056CC0000B101202071002010BD80B5FBF7C2FA9B
:1056DC00002002BD10B50446FBF7B5F86060002051
:1056EC0010BD10B504466068FBF7B2F8A06000204E
:1056FC0010BD816807E002681168536889185B184F
:10570C00C36008320260C2689142F4D04A1C8260C5
:10571C000878704738B504460D46A068E1688842A1
:10572C0012D120686168884208BFFDF7B9FA206879
:10573C00227C016802B14944A16042685218E260BF
:10574C00083091422060ECD0A068401CA06000F8AA
:10575C00015D31BD2DE9F0418AB000F108010091E5
:10576C000268520801EBC2010191002102910391E0
:10577C000168490800EBC10108310491017901F07D
:10578C0001018DF8201040680499400801EBC0001D
:10579C00059000200690079084E06846FFF7A9FF6B
:1057AC00044614F0030603D16846FFF7A2FFC61C9B
:1057BC0025090F2D1BD16846FFF79BFF00F10F0544
:1057CC0015E00098016808180099029049680818BB
:1057DC000390009808300090029803998842F0D00A
:1057EC00401C029010F8011D04A8FFF793FF761ED1
:1057FC00F2D1002D51D06846FFF77BFF0646A0087A
:10580C0000F00300032804BF6846FFF772FFDDF8C1
:10581C0010800699079F06EB002008E0A8F1080805
:10582C00A8F10801801A0A6849688F18394658F897
:10583C00082C8A1A8242F1D30C1AAE1C2DD0BC4211
:10584C0006D158F8044B58F8040B0719BC42F8D091
:10585C000698079914F8015B884217D104980599AA
:10586C00884208BFFDF71CFA049800689DF82010C8
:10587C00069009B148440690049906984968049A20
:10588C0009180832884207910492E7D00698401C08
:10589C000690761E00F8015DD1D1029803998842DA
:1058AC007FF47BAF0098019988427FF476AF05981E
:1058BC000AB0BDE8F08100007B756E6B6E6F776E81
:1058CC002D696E7374616E63652D6E616D657D00FF
:1058DC007B656D7074792D696E7374616E63652D63
:1058EC006E616D657D0000007B7374617469632D5E
:1058FC00696E7374616E63652D6E616D657D0000FC
:10590C008F3F00008F3F01008F3F02008F3F03004D
:10591C00903F00018F3F0101903F0002903F000338
:10592C008F3F01048F3F00058F1208048F3F000446
:10593C008F3F0006513F00007F3F01003F3F0400B6
:10594C003F3F02003F3F01007F3F020019E050F84B
:10595C00041BCB0744BFA9F101035918121F0023E4
:10596C00042A41F8043BF9D25FEA827C0B4604D549
:10597C004FF0000CA1F800C09B1CD10744BF0021C4
:10598C00197050F8042B002AE1D17047EBC70CEECC
:10599C00C90CF1CB0CF44B14F74E19FA521DFD58EF
:1059AC002500613101144202184E031C5A04249341
:1059BC0005309300985900000D0700007FC80110B6
:1059CC00C9BC011051B2011037C20110BDAD01109C
:1059DC00C1B10110E507000071BA011069BB0110DB
:1059EC0021C0011010B5074979441831064C7C448C
:1059FC00163404E00A68081D511888470146A14274
:105A0C00F8D110BD3400000074010000DFF800F084
:105A1C0055C0011080B50748FFF7A2FBFCF71AFD33
:105A2C00FCF735FDFDF747FBFEF782FBFFF7EEFFBA
:105A3C00002002BD1408002015FFFFFF381A0000DB
:105A4C009C0A0020000000000DFDFFFF020000007A
